:100000000C9404010C944B010C944B010C944B0187
:100010000C944B010C944B010C944B010C944B0130
:100020000C944B010C944B010C944B010C943A062C
:100030000C94E9060C94A4150C944B010C944B0100
:100040000C944B010C944B010C944B010C94E21555
:100050000C944B010C944B010C944B010C944B01F0
:100060000C944B010C944B010C944B010C944B01E0
:100070000C944B01560778076B0878076B08BD078F
:10008000E0076B08350848084F0B4F0B790B790BCD
:10009000D40B3D0E3D0E3D0E080C3D0EF30CF30C43
:1000A000B90DCE0D3D0E2A0E028A01D45F60615457
:1000B0005C5D5E56595A5B556263C05453520101F0
:1000C0005051010101510101C1C201C31403560085
:1000D0006F00790061006700650072003100360032
:1000E00000000A03610069003000330000000403CF
:1000F000090409025400030100A0320904000001B0
:1001000003010100092111010001224000070581BE
:100110000308000A0904010001030000000921117D
:100120000100012236000705820308000A090402C3
:10013000000103000000092111010001223900071C
:100140000583032000011201100100000008AEFE2B
:10015000468801000102000105010906A101050709
:1001600019E029E7150025019508750181020508A8
:1001700019012905950575019102950175039101F4
:100180000507190029F71500250195F87501810269
:10019000C005010980A101850216810026B7001A59
:1001A00081002AB700751095018100C0050C090176
:1001B000A1018503160100269C021A01002A9C0257
:1001C000751095018100C005010906A101050719F7
:1001D000E029E71500250195087501810295017553
:1001E00008810105081901290595057501910295F8
:1001F00001750391010507190029FF150026FF006D
:10020000950675088100C00011241FBECFEFD4E011
:10021000DEBFCDBF04B603FE27C08091DC01909104
:10022000DD01A091DE01B091DF018730904BA74046
:10023000B04BD1F41092DC011092DD011092DE017E
:100240001092DF0114BE84B7877F84BF0FB6F89485
:10025000A895809160008861809360001092600092
:100260000FBEE0E0F8E3099511E0A0E0B1E0EEE1B7
:10027000F4E302C005900D92AE31B107D9F721E049
:10028000AEE1B1E001C01D92AC3DB207E1F70E94C2
:1002900091030C940D1A0C94000084B18F7984B9E9
:1002A00085B18F7985B98AB18F7C8AB98BB18F7C02
:1002B0008BB908950E944D0184B1897F84B985B1BD
:1002C000866085B98AB1837F8AB98BB18C608BB91E
:1002D000A2E2B1E01C92EEE1F1E0108211961C92D4
:1002E0001197118212961C921297128213961C92E9
:1002F00013820895FF920F931F93CF93DF930EE124
:1003000011E0C0E0D1E085E0F82EC23051F0C330FA
:1003100059F0C13019F0259A2D9808C0269A2E98C8
:1003200005C0549A5C9802C0559A5D9880EA8A95F7
:10033000F1F783B1869581708D271A9902C092E0FA
:1003400001C090E0892B4A9902C094E001C090E07E
:10035000892B4B9902C098E001C090E0892BF801ED
:100360009081981719F08083F09200010E944D014E
:10037000CF5F0F5F1F4FC43041F68091000188238B
:10038000E1F0815080930001882339F08FE99FE0EC
:100390000197F1F700C0000010C080911E0180930A
:1003A000220180911F01809323018091200180937D
:1003B0002401809121018093250181E0DF91CF917B
:1003C0001F910F91FF900895E82FF0E0EE5DFE4F32
:1003D000808108950895279A882311F02F9A08950F
:1003E0002F98089508958091470108950895CF9317
:1003F000DF9300D01F92CDB7DEB72091D10124301A
:1004000021F523E029839B838A8382E08093E9009E
:100410008FEF9091E800815095FD06C095ED9A957B
:10042000F1F700008111F5CF8091E80085FF0DC044
:1004300040E050E063E070E0CE0101960E944C0481
:100440008091E8008E778093E8000F900F900F90D6
:10045000DF91CF910895CF93DF9300D01F92CDB756
:10046000DEB79C018091D101843019F592E0998327
:100470003B832A839093E9008FEF9091E8008150AD
:1004800095FD06C095ED9A95F1F700008111F5CF25
:100490008091E80085FF0DC040E050E063E070E02F
:1004A000CE0101960E944C048091E8008E778093E3
:1004B000E8000F900F900F90DF91CF910895CF93A8
:1004C000DF932091D101243009F048C0EC018091E4
:1004D0000B018823E1F080910C018823C1F083E0B7
:1004E0008093E9008FEF9091E800815095FD06C060
:1004F0009AE29A95F1F700C08111F5CF8091E8005A
:1005000085FF2CC040E050E060E270E017C081E061
:100510008093E9008FEF9091E800815095FD06C02F
:1005200095ED9A95F1F700008111F5CF8091E800E3
:1005300085FF14C040E050E068E070E0CE010E940A
:100540004C048091E8008E778093E80080E2FE0101
:10055000A7E2B1E001900D928A95E1F7DF91CF918A
:100560000895089542E061EC81E00E94500542E068
:1005700061EC82E00E94500542E261EC83E00C9461
:1005800050058091D301833009F455C030F4813097
:1005900071F0823009F48EC008958A3009F47AC06F
:1005A0008B3009F460C0893009F09CC020C0809174
:1005B000D201813A09F096C08091E800877F80934C
:1005C000E8008091D6019091D701892B21F460E257
:1005D00087E291E003C060E080E090E070E00E947C
:1005E00097048091E8008B778093E80008958091CC
:1005F000D201813209F076C08091D6019091D70165
:10060000009719F0029709F06DC08091E800877F8C
:100610008093E8008091E80082FD05C08091D101BF
:100620008111F8CF5FC08091F100809347018091E4
:10063000E8008B7753C08091D201813A09F052C013
:100640008091D6019091D701892B09F04BC0809100
:10065000E800877F8093E8008091E80080FFFCCF6E
:1006600080910B0136C08091D2018132D9F5809101
:10067000D6019091D701892BA9F58091E800877F59
:100680008093E8000E9485058091D40180930B013E
:100690000C94590E8091D201813221F58091E800AD
:1006A000877F8093E8000E9485058091D501809323
:1006B000480108958091D201813AA1F48091E80027
:1006C000877F8093E8008091E80080FFFCCF8091D5
:1006D00048018093F1008091E8008E778093E800D4
:1006E0000C948505089508950C9473038091470137
:1006F000809326011092470180E00E94F2010E943F
:1007000065090C94590E0C9476030E946115809132
:10071000CF01882329F00E948A1581110C94360498
:10072000089584B7877F84BF0FB6F894A895809109
:100730006000886180936000109260000FBE90E0BE
:1007400080E80FB6F89480936100909361000FBE2B
:100750000E9474030E94CC080E94D7050E942A06BA
:100760008091E20084608093E20078948091D101CE
:100770008430E1F781ED97E0019739F0EFE9FFE090
:100780003197F1F700C00000F7CF0E94CE0881E05A
:1007900091E00E9484080E9473038091D10185300A
:1007A00019F40E948503F9CF0E94D608F6CF0E9463
:1007B0009E15809126018093470108950C94D703DC
:1007C000292F332723303105C9F060F4213031055A
:1007D00081F02230310509F041C084E590E022EF3C
:1007E00030E040C021323105E1F02232310531F1F3
:1007F00035C082E190E026E431E034C099278130B1
:10080000910549F028F0029749F5ECECF0E005C0BD
:10081000EEEEF0E002C0E2EEF0E0849190E09F01A5
:1008200021C06330D8F4E62FF0E0EE0FFF1FE85E42
:10083000FE4F2081318189E090E014C0633070F474
:1008400070E0FB01EE0FFF1FEE5EFE4F2081318155
:10085000FB01E15FFE4F808190E004C080E090E00A
:1008600020E030E0FA0131832083089584E089BDDF
:1008700086E089BD09B400FEFDCF8091D8008F7D50
:100880008093D8008091E00082608093E0008091A6
:10089000E00081FDFCCF0895CF92DF92EF92FF92AE
:1008A0000F931F93CF93DF93EC018B017A010E948A
:1008B000A405811133C0E114F10439F0F7018081FE
:1008C0009181081B190BC80FD91FC12CD12C011500
:1008D000110519F18091E80085FD16C08091E800AE
:1008E0008E778093E800E114F10449F0F7018081EC
:1008F0009181C80ED91ED182C08285E00FC00E94AE
:10090000A405882321F30AC089918093F100015046
:100910001109FFEFCF1ADF0ADACF80E0DF91CF9124
:100920001F910F91FF90EF90DF90CF90089520914D
:10093000D8013091D9012617370748F061157105A4
:1009400039F42091E8002E772093E80001C0B90126
:10095000FC0120E06115710561F18091D1018823CE
:10096000D9F18530D9F18091E80083FD39C08091BB
:10097000E80082FD2BC08091E80080FFEBCF8091E2
:10098000F20090E06115710551F08830910538F45E
:1009900021912093F100615071090196F3CF21E07C
:1009A000089709F020E08091E8008E778093E800B6
:1009B000D1CF2111D2CF0AC08091D101882361F01B
:1009C000853061F08091E80083FD0AC08091E800E5
:1009D00082FFF2CF80E0089582E0089583E00895D9
:1009E00081E008952091D8013091D9012617370769
:1009F00048F06115710539F42091E8002E772093B5
:100A0000E80001C0B901FC0120E06115710579F130
:100A10008091D101882309F43DC0853009F43CC0A0
:100A20008091E80083FD3AC08091E80082FD2CC0EF
:100A30008091E80080FFE9CF8091F20090E061159D
:100A4000710559F08830910540F424912093F1000C
:100A50003196615071090196F2CF21E0089709F0B3
:100A600020E08091E8008E778093E800CECF2111BE
:100A7000CFCF0AC08091D101882361F0853061F029
:100A80008091E80083FD0AC08091E80082FFF2CFE8
:100A900080E0089582E0089583E0089581E008955C
:100AA000982F953068F59093E900981739F0709178
:100AB000EC002091ED005091F00003C0242F762F20
:100AC00050E021FD02C09F5FECCF3091EB003E7FF4
:100AD0003093EB003091ED003D7F3093ED0030918D
:100AE000EB0031603093EB007093EC002093ED004D
:100AF0005093F0002091EE0027FDE5CF80E00895AF
:100B00008F708093E90081E008958091D20187FF82
:100B100011C08091E80082FD05C08091D101811152
:100B2000F8CF11C08091E8008B770BC08091D10184
:100B3000882349F08091E80080FFF8CF8091E80099
:100B40008E778093E80008952091E4003091E500CD
:100B500095E64091EC00842F817040FF23C0809186
:100B6000E80080FD1DC08091D101882399F0853077
:100B700099F08091EB0085FD11C04091E400509107
:100B8000E5002417350729F3915011F09A01E1CFC0
:100B900084E0089582E0089583E0089581E0089557
:100BA00080E008954091E80042FFDDCF08950E9463
:100BB00034060E943706E0EEF0E080818160808399
:100BC000E8EDF0E080818F77808319BCE3E6F0E008
:100BD0008081816080831092D00108950E94340644
:100BE0000E9437068091D8008F778093D80080913B
:100BF000D80080688093D8008091D8008F7D809342
:100C0000D80084E089BD86E089BD09B400FEFDCF2F
:100C10001092D1011092CD011092CF011092CE010D
:100C200042E060E080E00E9450058091E1008E7F0C
:100C30008093E1008091E20081608093E2008091E6
:100C4000E20088608093E2008091E0008E7F8093D4
:100C5000E0000895E3E6F0E080818E7F808381E00C
:100C60008093D0010C94EE051092E200089510924A
:100C7000E10008951F920F920FB60F9211242F9347
:100C80003F934F935F936F937F938F939F93AF9314
:100C9000BF93EF93FF938091E10082FF0BC080919F
:100CA000E20082FF07C08091E1008B7F8093E1002A
:100CB0000E9483088091E10080FF19C08091E200CA
:100CC00080FF15C08091E2008E7F8093E2008091CA
:100CD000E20080618093E2008091D800806280937E
:100CE000D80019BC85E08093D1010E9483038091D4
:100CF000E10084FF30C08091E20084FF2CC084E0DA
:100D000089BD86E089BD09B400FEFDCF8091D80081
:100D10008F7D8093D8008091E1008F7E8093E100E9
:100D20008091E2008F7E8093E2008091E2008160FA
:100D30008093E2008091CD01882311F084E007C008
:100D40008091E30087FD02C081E001C083E08093D1
:100D5000D1010E94DE038091E10083FF29C08091D0
:100D6000E20083FF25C08091E100877F8093E1004E
:100D700082E08093D1011092CD018091E1008E7FBD
:100D80008093E1008091E2008E7F8093E200809169
:100D9000E20080618093E20042E060E080E00E9437
:100DA00050058091F00088608093F0000E94B102AD
:100DB000FF91EF91BF91AF919F918F917F916F9133
:100DC0005F914F913F912F910F900FBE0F901F9009
:100DD00018951F920F920FB60F9211242F933F93E5
:100DE0004F935F936F937F938F939F93AF93BF9333
:100DF000CF93DF93EF93FF93C091E900CF70809181
:100E0000EC00D82FD17080FDD0E81092E9008091DD
:100E1000F000877F8093F00078940E942D07109255
:100E2000E9008091F00088608093F000CD2BCF70B6
:100E3000C093E900FF91EF91DF91CF91BF91AF9106
:100E40009F918F917F916F915F914F913F912F91E2
:100E50000F900FBE0F901F9018951F93CF93DF93A5
:100E6000CDB7DEB7AA970FB6F894DEBF0FBECDBFE1
:100E7000E2EDF1E08091F100819321E0EA3DF2079B
:100E8000C9F70E94C1028091E80083FF24C18091CC
:100E9000D2019091D301492F50E04A30510508F01A
:100EA0001AC1FA01E65CFF4F0C94D619803881F024
:100EB000823809F010C18091D6018F708093E900CB
:100EC0008091EB0085FB882780F91092E90006C02D
:100ED0008091CE019091CF01911182609091E800B4
:100EE000977F9093E8008093F1001092F100C8C0C2
:100EF000282F2D7F09F0EFC0882319F0823061F090
:100F0000EAC08091D401813009F0E5C0933009F046
:100F100080E08093CF012BC08091D401811127C044
:100F20008091D6018F7009F4D6C08093E90020919A
:100F3000EB0020FF1CC0933021F48091EB00806215
:100F400014C09091EB0090619093EB0021E030E0B1
:100F5000A90102C0440F551F8A95E2F74093EA00A9
:100F60001092EA008091EB0088608093EB00109271
:100F7000E9008091E800877F86C08111ACC01091A4
:100F8000D4011F778091E3008078812B8093E30068
:100F90008091E800877F8093E8000E94850580911A
:100FA000E80080FFFCCF8091E30080688093E3003D
:100FB000111102C082E001C083E08093D1018BC097
:100FC0008058823008F087C08091D4019091D5017B
:100FD0008C3D53E0950779F583E08A838AE2898323
:100FE0004FB7F894DE01139620E03EE051E2E32F84
:100FF000F0E050935700E49120FF03C0E295EF70BA
:101000003F5FEF708E2F90E0EA3010F0C79601C07E
:10101000C0968D939D932F5F243149F74FBF8091E8
:10102000E800877F8093E8006AE270E0CE010196D5
:101030000E94970414C0AE014F5F5F4F6091D601CC
:101040000E94E003BC01892B09F445C09091E8009F
:10105000977F9093E80089819A810E94F2048091A1
:10106000E8008B778093E80036C08038A1F5809146
:10107000E800877F8093E8008091CD018093F100A4
:101080008091E8008E778093E8000E94850523C058
:10109000811121C08091D4019091D50199270297A7
:1010A000D4F48091E800877F8093E8008091D40198
:1010B0008093CD010E9485058091CD01811106C0EC
:1010C0008091E30087FD02C081E001C084E080934D
:1010D000D1010E94B2028091E80083FF0AC0809192
:1010E000E800877F8093E8008091EB008062809326
:1010F000EB00AA960FB6F894DEBF0FBECDBFDF910E
:10110000CF911F910895089590934E0180934D01C2
:101110000895E0914D01F0914E01309721F001903A
:10112000F081E02D099480E00895E0914D01F09167
:101130004E01309721F00280F381E02D099408954B
:1011400020914B0130914C012817390771F0909391
:101150004C0180934B01E0914D01F0914E0130978D
:1011600021F00680F781E02D09940895209149012E
:1011700030914A012817390771F090934A01809302
:101180004901E0914D01F0914E01309721F000842A
:10119000F185E02D099408950C9466090E94CD15FF
:1011A0000E945A010E94A0170C943419BF92CF924A
:1011B000DF92EF92FF920F931F93CF93DF9300D0B4
:1011C00000D01F92CDB7DEB70E947A0100E511E092
:1011D000F12C8F2D0E94E401B82EF801C080C826A2
:1011E00039F4F3940F5F1F4FF4E0FF12F2CF30C0D9
:1011F0008091C70181FD0E94EA01D12CEE24E39485
:101200008C2D8E21F9F0D982FA8291E08B2D8E21DE
:1012100009F490E09B830E94D6158160782F9D830E
:101220008C8349815A816B818D810E946909498132
:101230005A816B817C818D810E944D15F8018081DE
:101240008E258083D394EE0CF4E0DF12D9CFC9CF82
:101250008FEF89838A831B820E94D6158160782F45
:101260009D838C8349815A816B818D810E9469099C
:101270000E944C150E94890890914F018917A1F096
:101280000E94890880934F010F900F900F900F904C
:101290000F90DF91CF911F910F91FF90EF90DF9012
:1012A000CF90BF900C945E150F900F900F900F9001
:1012B0000F90DF91CF911F910F91FF90EF90DF90F2
:1012C000CF90BF9008950C94F20108950895089569
:1012D0000895CF93DF93CDB7DEB72B970FB6F89471
:1012E000DEBF0FBECDBF942F4F83252F5887698750
:1012F0007A878B874A855B85452B31F02F3F31F408
:1013000081E09F3F19F403C081E001C080E080FDCF
:1013100007C04F81588569857A858B850E944D1558
:10132000DE01119686E0FD0111928A95E9F785E0CC
:10133000FE01379601900D928A95E1F749815A8115
:101340006B817C818D819E810E9477112B960FB6D7
:10135000F894DEBF0FBECDBFDF91CF9108958823F3
:1013600009F4DFC08238A1F40E94890881FDD9C048
:1013700089E30E9469140E9426152FEF81EE94E004
:10138000215080409040E1F700C0000089E315C083
:101390008338B9F40E94890880FDC3C083E50E94A8
:1013A00069140E9426152FEF81EE94E021508040B1
:1013B0009040E1F700C0000083E50E94A8140C945F
:1013C00026158438A1F40E94890882FDAAC087E40A
:1013D0000E9469140E9426152FEF81EE94E021509F
:1013E00080409040E1F700C0000087E4E6CF9CEF2A
:1013F000980F913A18F40E946914E1CF90E2980F87
:10140000983050F4877091E001C0990F8A95EAF7FF
:10141000892F0E94EC14D3CF9BE5980F933070F482
:10142000853A29F0863A31F083E890E005C081E8FA
:1014300090E002C082E890E00C94A00898E5980F34
:10144000953108F06EC0883A61F1893A69F18A3ABB
:1014500071F18B3A79F18C3A81F18D3A89F18E3ABA
:1014600091F18F3A99F1813BA1F1803BA9F1823B47
:10147000B1F1833BB9F1843BC1F1853BC9F1863BB6
:10148000D1F1873BD9F1883BE1F1893BE9F18A3B16
:10149000F1F18B3BF9F18C3B09F43FC080E090E027
:1014A0003EC082EE90E03BC089EE90E038C08AEE0C
:1014B00090E035C085EB90E032C086EB90E02FC025
:1014C00083EB90E02CC084EB90E029C087EB90E0A8
:1014D00026C08CEC90E023C08DEC90E020C083E827
:1014E00091E01DC08AE891E01AC082E991E017C03E
:1014F00084E991E014C081E292E011C083E292E0BD
:101500000EC084E292E00BC085E292E008C086E261
:1015100092E005C087E292E002C08AE292E00C9479
:10152000B6080895882309F466C08238A1F40E94A1
:10153000890881FF60C089E30E9469140E94261512
:101540002FEF81EE94E0215080409040E1F700C001
:10155000000089E315C08338B9F40E94890880FF30
:101560004AC083E50E9469140E9426152FEF81EE80
:1015700094E0215080409040E1F700C0000083E5F6
:101580000E94A8140C9426158438A1F40E9489089E
:1015900082FF31C087E40E9469140E9426152FEF54
:1015A00081EE94E0215080409040E1F700C00000BF
:1015B00087E4E6CF9CEF980F913A10F390E2980FF2
:1015C000983050F4877091E001C0990F8A95EAF73E
:1015D000892F0E94F214D6CF9BE5980F933020F408
:1015E00080E090E00C94A008885A853120F480E0D7
:1015F00090E00C94B6080895882321F00E94EC1422
:101600000C9426150895882321F00E94F2140C945E
:1016100026150895CF92DF92EF92FF920F931F93BA
:10162000CF93DF9300D000D01F92CDB7DEB76C010F
:1016300085E0F601DE01119601900D928A95E1F7A1
:10164000F60140815181238134812115310531F02A
:101650005F3F31F491E04F3F19F403C091E001C0C6
:1016600090E090FD0AC3F601F280E580E2948FE0FD
:10167000E822722F3D832C836F2D8D810E94E01311
:101680008C010E94DF130E94CF12E12FE295EF70D0
:101690008E2F90E0FC01EC5BFF4F0C94D619812F4C
:1016A000807F1F70882311F01295107FFF2049F072
:1016B000112309F43BC2812F0E94FF140E942615BA
:1016C00035C2802F0E94920A112309F4D6C2812FBD
:1016D0000E9405150F900F900F900F900F90DF91C3
:1016E000CF911F910F91FF90EF90DF90CF900C94CE
:1016F0002615812F807F1F70803211F01295107F88
:10170000002319F0013009F12BC0FF20A9F0EE20D1
:1017100059F1F1E0812FEF1228C00F900F900F9038
:101720000F900F90DF91CF911F910F91FF90EF904D
:10173000DF90CF900C940F15EE2021F081E0E81699
:1017400009F49BC20E9412152DC0FF20E9F0E5E0CC
:10175000EE1508F492C20E94E914812329F022C0F8
:10176000FF20F1F0E11015C0812F0F900F900F9026
:101770000F900F90DF91CF911F910F91FF90EF90FD
:10178000DF90CF900C94FC0AF4E0FE1508F475C2CB
:1017900009C0F601858180FFC9C18F708583E4CFC0
:1017A000E110D7C1812F4AC1812F8695869583701C
:1017B00019F08130B9F061C2FF2019F0C8019370AF
:1017C00002C080E090E00F900F900F900F900F906C
:1017D000DF91CF911F910F91FF90EF90DF90CF900D
:1017E0000C94A008FF2019F0C801937002C080E09B
:1017F00090E00F900F900F900F900F90DF91CF918E
:101800001F910F91FF90EF90DF90CF900C94B6084E
:10181000812F837009F070C0F1102FC2202F229504
:1018200026952770220F220F602F6F70862F90E071
:10183000A0E0B0E06C017D01022E04C0CC0CDD1CE8
:10184000EE1CFF1C0A94D2F704FF12C08FE090E058
:10185000A0E0B0E004C0880F991FAA1FBB1F2A9503
:10186000D2F7BC01CD01609570958095909503C02D
:1018700060E070E0CB011695169513701230B1F050
:1018800040F56C297D298E299F29113031F10F9067
:101890000F900F900F900F90DF91CF911F910F91AC
:1018A000FF90EF90DF90CF900C94F4126C297D297B
:1018B0008E299F290F900F900F900F900F90DF911E
:1018C000CF911F910F91FF90EF90DF90CF900C94EC
:1018D0000E130E94F412C701B6010F900F900F90E3
:1018E0000F900F90DF91CF911F910F91FF90EF908C
:1018F000DF90CF900C94DA12FF2019F0812F8170C5
:1019000001C08695882309F4B8C1202F2295269519
:101910002770220F220F602F6F70862F90E0A0E0BB
:10192000B0E06C017D01022E04C0CC0CDD1CEE1C6D
:10193000FF1C0A94D2F704FF12C08FE090E0A0E0F1
:10194000B0E004C0880F991FAA1FBB1F2A95D2F7C9
:10195000BC01CD01609570958095909503C060E0C5
:1019600070E0CB011695169513701230B1F040F56A
:101970006C297D298E299F29113031F10F900F900C
:101980000F900F900F90DF91CF911F910F91FF90CB
:10199000EF90DF90CF900C94BB136C297D298E299A
:1019A0009F290F900F900F900F900F90DF91CF9184
:1019B0001F910F91FF90EF90DF90CF900C94CD137B
:1019C0000E94BB13C701B6010F900F900F900F90AC
:1019D0000F90DF91CF911F910F91FF90EF90DF90CB
:1019E000CF900C94A913003FC1F128F480E4800F3C
:1019F000803250F096C0023F09F45EC008F449C03E
:101A0000033F09F46CC08DC0F02FF071EF2E812FD1
:101A10008F71FF2051F00E944213802FEE2019F0A9
:101A20008295807FA2CE8F70A0CE0E946313802FFC
:101A3000EE2019F08295807F01C08F700F900F907B
:101A40000F900F900F90DF91CF911F910F91FF900A
:101A5000EF90DF90CF900C94030BFF20A9F084E06F
:101A60008E1508F40AC1812F8F710F900F900F907F
:101A70000F900F90DF91CF911F910F91FF90EF90FA
:101A8000DF90CF900C948813E5E0EE1508F4F5C0D4
:101A9000EACFFF2099F0812F8F710F900F900F9058
:101AA0000F900F90DF91CF911F910F91FF90EF90CA
:101AB000DF90CF900C944213FF2069F3812F8F7138
:101AC0000F900F900F900F900F90DF91CF911F917B
:101AD0000F91FF90EF90DF90CF900C946313FF2055
:101AE00089F0812F8F710F900F900F900F900F90B2
:101AF000DF91CF911F910F91FF90EF90DF90CF90EA
:101B00000C942D130F900F900F900F900F90DF916A
:101B1000CF911F910F91FF90EF90DF90CF900C9499
:101B20002813FF2099F0EE2009F4B5CF802F0F90F5
:101B30000F900F900F900F90DF91CF911F910F9109
:101B4000FF90EF90DF90CF900C94AF09EE2009F456
:101B5000B5CF802F0F900F900F900F900F90DF91C7
:101B6000CF911F910F91FF90EF90DF90CF900C9449
:101B7000920A412F4F70602FC6010E94BD160F9030
:101B80000F900F900F900F90DF91CF911F910F91B9
:101B9000FF90EF90DF90CF900C942A12F1106DC05F
:101BA0001F701230C9F1A0F4112339F1113009F07E
:101BB00064C00F900F900F900F900F90DF91CF9116
:101BC0001F910F91FF90EF90DF90CF900C945619DA
:101BD000133089F1143009F050C0802F0F900F900E
:101BE0000F900F900F90DF91CF911F910F91FF9069
:101BF000EF90DF90CF900C94A8190F900F900F905A
:101C00000F900F90DF91CF911F910F91FF90EF9068
:101C1000DF90CF900C9445190F900F900F900F907C
:101C20000F90DF91CF911F910F91FF90EF90DF9078
:101C3000CF900C9472190F900F900F900F900F90FF
:101C4000DF91CF911F910F91FF90EF90DF90CF9098
:101C50000C948519412F4F70602FC6010F900F9083
:101C60000F900F900F90DF91CF911F910F91FF90E8
:101C7000EF90DF90CF900C94C0160F900F900F90C4
:101C80000F900F90DF91CF911F910F91FF90EF90E8
:101C9000DF90CF9008950E940C150E94DB140E94E3
:101CA000261580E090E00E94A00880E090E00C946F
:101CB000B6080E94FC140C944B0E1F93CF93DF9335
:101CC00000D000D01F92CDB7DEB7942F4983252FC7
:101CD0005A836B837C838D834C815D81452B31F0EE
:101CE0002F3F31F481E09F3F19F403C081E001C030
:101CF00080E0182F117080FD31C049815A816B81BD
:101D00007C818D810E94E013292F22952F702C3029
:101D100030F42A30A0F42250223030F022C02C308F
:101D2000C9F02F30B9F01DC0853A28F48430C0F4D2
:101D3000823028F415C090E2980F983088F0883EE1
:101D400030F4803E68F48450813A58F409C0803FF2
:101D500041F406C093FB112710F903C010E001C045
:101D600011E0812F0F900F900F900F900F90DF9147
:101D7000CF911F910895CF93DF9300D000D01F9291
:101D8000CDB7DEB70F900F900F900F900F90DF91AF
:101D9000CF910895CF93DF9300D000D000D0CDB77E
:101DA000DEB726960FB6F894DEBF0FBECDBFDF912B
:101DB000CF910895CF93DF93C09154018091550145
:101DC000C817A1F0D0E0CE0166E070E00E94C5190E
:101DD000FC01EA5AFE4F4081518162817381848106
:101DE00095810E94CA0E2196C770E8CFDF91CF91EE
:101DF000089540918601509187016091880170910A
:101E0000890180918A0190918B010C94CA0E1F93D5
:101E1000CF93DF9380918B0182958F7009F066C01C
:101E200080918801882309F461C0209154011091A8
:101E30005501C0918601D0918701E0918901F0910F
:101E40008A0181E0CF3F09F080E0482F211709F493
:101E50004DC0309721F0DF3F21F080E003C081E0EA
:101E600001C0842F30E080FD3DC0C90166E070E014
:101E70000E94C519DC01AA5ABE4F11968C91119788
:101E80008D1330C08C918C132DC012968C911297AB
:101E9000811128C013968D919C9114978E179F07DE
:101EA00008F401978E1B9F0B883C9105D8F4809114
:101EB0008B018F70806180938B01C90166E070E0B7
:101EC0000E94C519FC01E55AFE4F90819F709061F8
:101ED000908386E891E00E940A0BDF91CF911F91D9
:101EE0000C94DA0E2F5F3F4F2770B0CFDF91CF9168
:101EF0001F910895AF92BF92CF92DF92EF92FF921F
:101F00000F931F93CF93DF93CDB7DEB761970FB6D3
:101F1000F894DEBF0FBECDBF7C0185E0F701DE0186
:101F20001D9601900D928A95E1F7D7014C9111967B
:101F30002C9111971296DC90129713960D911C918B
:101F40001497509186016091870180918901909149
:101F50008A01009731F06F3F31F431E05F3F19F4AF
:101F600003C031E001C030E0B32FB170BB2E30FDB3
:101F700076C1A0908801AA2009F4D2C030918B01CB
:101F80000817190728F0F801E81BF90BCF0104C066
:101F900080959095800F911FCC24C394883C910527
:101FA00088F0C12C307F09F0A6C0702F198B088BE8
:101FB000522F6D2D89890E94BB0E86E891E00E9408
:101FC0000A0BC3C0832F807F09F059C0261315C0A8
:101FD000451313C0CD2CD11010C03F703061309329
:101FE0008B010E94F90E86E891E00E940A0B809115
:101FF0008B01D70115968C9368C10115110531F03D
:102000002F3F31F481E04F3F19F403C081E001C05C
:1020100080E080FD03C081E08D2502C080E090E07B
:10202000B82FB170CB2E80FF1FC0E09154013091CA
:102030005501E31709F425C1F0E0CF0166E070E037
:102040000E94C519DC01AA5ABE4F11968C911197B6
:10205000281307C08C91481304C012968C91D81293
:1020600003C03196E770E5CFCD2CDD2009F42DC1FA
:1020700080918B01816080938B01C12C26C1261336
:1020800008C0451306C0D11004C080918B01D70150
:10209000B9C04D872E87DF86702F198B088B522F82
:1020A0006D2D89890E945D0E8823A1F1DD2091F1BB
:1020B00020918B01822F82958F7090E0029774F0AF
:1020C000809186019091870198878F8319861B875D
:1020D0000A872C87CE0107960E940A0B86E0F7013B
:1020E000A6E8B1E001900D928A95E1F70E94070FF2
:1020F0000E94F90E12C0261791F14D872E87DF86B8
:10210000702F198B088B522F6D2D89890E945D0EBF
:10211000811139C0C7010E940A0BCC24C394D5C0D9
:102120000817190708F447C0F801E81BF90BCF019D
:10213000883C910508F444C0C12C702F198B088B82
:10214000522F6D2D89890E94BB0EE6E8F1E086E0F2
:10215000DF011D928A95E9F70E94F90EB6C045137A
:10216000CCCFD110CACF80918B01F7018583C701F5
:102170000E940A0B86E0E6E8F1E0DF011D928A95F5
:10218000E9F7CA2CA2C0DD2029F220918B01822F11
:1021900082958F7090E002970CF4A0CF8091860119
:1021A000909187019A8389831B821D830C832E83E0
:1021B000CE01019691CF80959095800F911FB8CF59
:1021C000CD2CDD2009F4A6CF261333C0451331C032
:1021D00020918B0120FD24C0822F82958F70482F83
:1021E00050E041155105E1F0D70115962C93159754
:1021F0004F30510549F08F5F982F9295907F822F35
:102200008F70892B15968C93C7010E940A0B86E06C
:10221000F701A6E8B1E001900D928A95E1F79CCF15
:1022200086E0F701A6E8B1E001900D928A95E1F70A
:102230004CC04D872E87DF86702F198B088B522F4D
:102240006D2D89890E945D0E811148CF80918B018F
:10225000816080938B01C7010E940A0B36C0DD208C
:1022600009F458CF4D872E87DF86702F198B088B86
:10227000522F6D2D89890E945D0E882309F44ACF63
:102280002DCF702F198B088B522F6D2D89890E94AD
:10229000E013292F22952F70223028F49F7039F0F7
:1022A000811105C00BC0243028F49F7049F4805E72
:1022B000883020F0C7010E940A0BBC2CCB2C05C033
:1022C000F7019581907F99F7F9CF8C2D61960FB624
:1022D000F894DEBF0FBECDBFDF91CF911F910F915C
:1022E000FF90EF90DF90CF90BF90AF900895CF9385
:1022F000DF93CDB7DEB72C970FB6F894DEBF0FBED5
:10230000CDBF4F83588769877A878B879C87CE019B
:1023100007960E947A0F8823D1F09F8188852A85AD
:102320003B85232B31F08F3F31F481E09F3F19F43F
:1023300003C081E001C080E080FD6FC04F815885FF
:1023400069857A858B859C850E94CA0E66C086E069
:10235000FE013796DE01119601900D928A95E1F704
:10236000FF81E8856A857B856115710531F0EF3F56
:1023700031F481E0FF3F19F403C081E001C080E047
:1023800080FD4BC08091550190E09C012F5F3F4F35
:10239000277033274091540150E02417350709F482
:1023A00043C0F983EA837D836C8366E070E00E941A
:1023B000C519DC01AA5ABE4F96E0FE013196019084
:1023C0000D929A95E1F7209355010E94DA0E25C0EF
:1023D00090E066E070E00E94C5198A5A9E4F0E9404
:1023E0007A0F882371F18091540190E066E070E0EB
:1023F0000E94C519FC01EA5AFE4F40815181628159
:102400007381848195810E94CA0E8091540190E06D
:10241000019687709927809354018091540190917F
:1024200055018913D5CF0DC00E94590E1092550148
:1024300010925401E6E8F1E086E0DF011D928A95F2
:10244000E9F72C960FB6F894DEBF0FBECDBFDF9133
:10245000CF910895DF92EF92FF920F931F93CF9346
:10246000DF93FC01892B09F488C0E12CF12CDD24D9
:10247000D394EF0121968491853709F460C058F414
:10248000843708F04EC0843008F068C08130D1F045
:10249000823071F172C0883709F45BC050F486371E
:1024A00009F453C0873709F068C08E2D0E94F914D3
:1024B00052C09CE7980F903708F05FC08F770E945A
:1024C000920A4EC08F010E5F1F4FFE01849190E271
:1024D000980F983050F48770FD2D01C0FF0F8A953A
:1024E000EAF78F2F0E94FF1415C00E94AF0914C095
:1024F0008F010E5F1F4FFE01849190E2980F98307C
:1025000068F48770FD2D01C0FF0F8A95EAF78F2FC1
:102510000E9405150E942615E80122C00E94920A19
:10252000FBCFCF010296FE01C491CC2361F0EFE90D
:10253000FFE03197F1F700C00000C150F6CFCF01A6
:102540000296FE01F490EC010BC00E94E914E82E03
:1025500007C00E94FC140E94261502C00E94AF0909
:102560008F2D882341F0EFE9FFE03197F1F700C0AC
:1025700000008150F6CFFE017CCFDF91CF911F91FB
:102580000F91FF90EF90DF90089560939C017093FE
:102590009D0180939E0190939F010C945D15089579
:1025A0006093A0017093A1018093A2019093A30175
:1025B0000C945C150F931F930091A0011091A10141
:1025C0002091A2013091A301602B712B822B932BC0
:1025D0006093A0017093A1018093A2019093A30145
:1025E0001F910F910C945C150F931F930091A00104
:1025F0001091A1012091A2013091A30160237123C8
:10260000822393236093A0017093A1018093A20180
:102610009093A3011F910F910C945C150F931F933E
:102620000091A0011091A1012091A2013091A3017C
:1026300060277127822793276093A0017093A101DF
:102640008093A2019093A3011F910F910C945C15AC
:1026500060E070E0CB010C94C5120F931F9341E032
:1026600050E060E070E08A019B0104C0000F111F80
:10267000221F331F8A95D2F7C901B8011F910F910C
:102680000C94C5120F931F9341E050E060E070E09E
:1026900004C0440F551F661F771F8A95D2F780919B
:1026A0009C0190919D01A0919E01B0919F018A0192
:1026B0009B01082B192B2A2B3B2BC901B8011F9119
:1026C0000F910C94C5120F931F9341E050E060E00E
:1026D00070E004C0440F551F661F771F8A95D2F71C
:1026E000409550956095709580919C0190919D01C9
:1026F000A0919E01B0919F018A019B01082319239B
:102700002A233B23C901B8011F910F910C94C512D4
:102710000F931F9341E050E060E070E004C0440F6D
:10272000551F661F771F8A95D2F780919C01909163
:102730009D01A0919E01B0919F018A019B010827F4
:1027400019272A273B27C901B8011F910F910C9423
:10275000C5120F931F9300919C0110919D01209130
:102760009E0130919F01602B712B822B932B1F9127
:102770000F910C94C5120F931F9300919C0110911F
:102780009D0120919E0130919F016023712382233E
:1027900093231F910F910C94C5120F931F930091D7
:1027A0009C0110919D0120919E0130919F01602715
:1027B0007127822793271F910F910C94C5120895BA
:1027C0008F929F92AF92BF92DF92EF92FF920F9300
:1027D0001F93CF93DF9300D000D01F92CDB7DEB709
:1027E0006B837C838D838A018C819D81892B31F061
:1027F0001F3F31F481E04F3F19F403C081E001C075
:1028000080E080FF03C080E090E052C08B8188238D
:1028100009F43CC080909C0190909D01A0909E0185
:10282000B0909F018091A0019091A101A091A2017F
:10283000B091A301882A992AAA2ABB2A2FE1E22E65
:10284000F12CD501C4010E2C04C0B695A79597951F
:1028500087950A94D2F780FD06C081E0E81AF10856
:1028600080F7D12C07C0DE2CB8018E2D0E94DC161B
:10287000019799F3E12FF0E0EE0FFF1FEE0FFF1F1E
:10288000E457FE4FE00FF11DD0820BC0E12FF0E0C6
:10289000EE0FFF1FEE0FFF1FE457FE4FE00FF11D7D
:1028A000D08009831A8369817A818D2D0E94DC167C
:1028B0000F900F900F900F900F90DF91CF911F917D
:1028C0000F91FF90EF90DF90BF90AF909F908F900F
:1028D000089590910B019923F1F090910C019923A7
:1028E000D1F0982F9695969596959F3181F1E0912C
:1028F0000D01F0910E01E90FF11D877021E030E02C
:10290000A90102C0440F551F8A95E2F7CA019181BF
:10291000892B8183089520910D0130910E01F901D9
:1029200032969FEF40E05191851789F09F3F19F44F
:10293000511101C0942F4F5F4E31A9F79F3F39F0DD
:10294000F901E90FF11D97FDFA9582830895089525
:1029500090910B019923F9F090910C019923D9F0F2
:10296000982F9695969596959F3121F1E0910D01BE
:10297000F0910E01E90FF11D877021E030E0A9010F
:1029800002C0440F551F8A95E2F7CA0180959181D4
:10299000892381830895E0910D01F0910E019F013B
:1029A000225E3F4F9281891301C012823196E21755
:1029B000F307C1F7089581E090E0E0910D01F091F7
:1029C0000E01E80FF91F1082019680329105A9F7D8
:1029D00008958091C60108959091C601892B809336
:1029E000C601089580959091C60189238093C60100
:1029F00008958093C60108951092C601089590919C
:102A0000C501892B8093C501089580959091C501DA
:102A100089238093C50108951092C501089580937C
:102A2000A40108951092A401089580910D01909140
:102A30000E01FC0131969C01205E3F4F80E0919198
:102A400091118F5FE217F307D1F70895E0910D011F
:102A5000F0910E018091C6018083E0910D01F0910B
:102A60000E0190818091C501892B80838091A40102
:102A7000882361F0E0910D01F0910E019081892B86
:102A800080830E94151581111092A40180910D017F
:102A900090910E010C9495080895CF93DF9300D088
:102AA00000D01F92CDB7DEB70F900F900F900F9010
:102AB0000F90DF91CF910895089508950C946309C4
:102AC00008958091D101843021F11092C80120E451
:102AD00088E190E00FB6F894A895809360000FBE4F
:102AE0002093600083B7817F846083BF83B7816058
:102AF00083BF7894889583B78E7F83BF0FB6F89491
:102B0000A8958091600088618093600010926000B9
:102B10000FBE0895CF930E9467090E947A010E9418
:102B20006809C0E08C2F0E94E401811104C0CF5FCE
:102B3000C430C1F701C081E0CF9108950E946509BA
:102B40000E94590E0C9434191F920F920FB60F92D7
:102B500011248F939F93AF93BF938091C8018111EC
:102B600013C08091C9019091CA01A091CB01B0918D
:102B7000CC014196A11DB11D8093C9019093CA015A
:102B8000A093CB01B093CC01BF91AF919F918F9156
:102B90000F900FBE0F901F90189582E084BD93E0B8
:102BA00095BD9AEF97BD80936E0008952FB7F89466
:102BB0008091C9019091CA01A091CB01B091CC0143
:102BC0002FBF08951F920F920FB60F9211248F936B
:102BD0009F93AF93BF938091C9019091CA01A09137
:102BE000CB01B091CC010196A11DB11D8093C9010B
:102BF0009093CA01A093CB01B093CC01BF91AF9148
:102C00009F918F910F900FBE0F901F9018950E946B
:102C1000D705F8942FEF87EA91E621508040904045
:102C2000E1F700C0000087E090EBDC018093DC015D
:102C30009093DD01A093DE01B093DF019CE088E179
:102C40000FB6F894A895809360000FBE9093600033
:102C5000FFCF8D3B60F4883A90F5853A28F58430B3
:102C600008F5813009F086C081E090E00895883E43
:102C700098F4803EB8F48F3B09F07CC00E94590E56
:102C80002FEF80E792E0215080409040E1F700C0B4
:102C900000000E9407166EC0803F08F46BC090E0F1
:102CA0009065089590E00895853A21F0863A21F0E4
:102CB00033E803C031E801C032E820E458C0883A64
:102CC00051F1893A59F18A3A59F18B3A59F18C3AD2
:102CD00059F18D3A59F18E3A59F18F3A59F1813BB8
:102CE00059F1803B59F1823B59F1833B59F1843BC7
:102CF00059F1853B59F1863B61F1873B61F1883B96
:102D000061F1893B61F18A3B61F18B3B61F18C3B65
:102D100061F130E001C032EE24E429C039EEFCCF8D
:102D20003AEEFACF35EBF8CF36EBF6CF33EBF4CF04
:102D300034EBF2CF37EBF0CF3CECEECF3DECECCF09
:102D400033E805C03AE803C032E901C034E925E4BC
:102D50000EC031E20BC033E209C034E207C035E2F5
:102D600005C036E203C037E201C03AE226E4832F11
:102D7000922F089580E090E0089580E090E008951B
:102D80000895E82FF0E0EE0FFF1FEE0FFF1FE70F93
:102D9000F11DEE0FFF1FEE0FFF1FE60FF11DE455B3
:102DA000FF4F84910895E82FF0E0EE0FFF1FE85DDC
:102DB000F0408591949108950E94C116803EA8F438
:102DC000803C00F5813309F45CC038F4893209F4A1
:102DD00052C08A3209F45BC05FC08933B1F08238D7
:102DE000A1F0853309F441C057C0833E41F128F476
:102DF000803E99F0823EB9F04FC0863E31F1873E69
:102E000071F14AC00E94D31608959091DA0190FDA5
:102E100002C091FF41C080EE3FC08091DA0180FF87
:102E2000FACF89E339C08091DA0182FF0CC080912A
:102E3000DA0184FF02C080E02FC083EE2DC08091B4
:102E4000DA0182FFF4CF82EE27C08091DA0183FF9E
:102E50000AC08091DA0184FDEECF87EE1DC080911B
:102E6000DA0183FFF6CF86EE17C08091DA0185FF85
:102E700006C089E211C08091DA0185FFFACF85E3AF
:102E80000BC08091DA0186FF06C08AE205C08091FE
:102E9000DA0186FFFACF81E30E9429160895CF92C6
:102EA000DF92EF92FF920F931F93CF936C01C0E0DC
:102EB0008C2F0E94E40100E010E0E82EF12CC70105
:102EC000002E02C0959587950A94E2F780FF15C001
:102ED000602F7C2F80E00E94DC168C159D0559F038
:102EE000292F207E392F307C11F0203A31F490E0E8
:102EF000C816D90611F481E009C00F5F1F4F0430D6
:102F00001105E9F6CF5FC43099F680E0CF911F91AB
:102F10000F91FF90EF90DF90CF900895CF93DF93C4
:102F2000EC018CE290E00E944F17882329F0CE013B
:102F3000DF91CF910C944F1780E0DF91CF910895EE
:102F4000CF930E940519811102C00E94E618C5E6C0
:102F5000C15049F00E947A018FE39CE90197F1F793
:102F600000C00000F5CF89E290E00E948E17811129
:102F70002BC18AE290E00E948E1781110E94E61810
:102F800085E090E00E948E1781110E9407160E9432
:102F900060150E9410198093C70187E090E00E949D
:102FA0008E178823C1F18BE190E00E948E17882351
:102FB00051F08091C70181FB222720F991E09227EF
:102FC00090FB81F90FC08EE090E00E948E1788235D
:102FD00061F08091C70182FB222720F991E09227BE
:102FE00090FB82F98093C70116C080E190E00E94B7
:102FF0008E179091C701882341F093FB222720F977
:1030000081E0822780FB93F904C0892F809580FBA3
:1030100090F99093C7018091C7010E9414190E94F2
:1030200022198093DA0180EE90E00E948E178823A7
:1030300041F08091DA01982F909590FB80F9809370
:10304000DA0189E390E00E948E17882359F080917D
:10305000DA0181FB222720F991E0922790FB81F988
:103060008093DA0182EE90E00E948E17882359F057
:103070008091DA0182FB222720F991E0922790FBD0
:1030800082F98093DA0186EE90E00E948E17882301
:1030900059F08091DA0183FB222720F991E09227F1
:1030A00090FB83F98093DA0183EE90E00E948E1703
:1030B000882359F08091DA0184FB222720F991E0DE
:1030C000922790FB84F98093DA0185E390E00E94D7
:1030D0008E17882359F08091DA0185FB222720F989
:1030E00091E0922790FB85F98093DA0181E390E0EB
:1030F0000E948E17882359F08091DA0186FB2227DF
:1031000020F991E0922790FB86F98093DA0181E122
:1031100090E00E948E17882359F08091DA0187FB96
:10312000222720F991E0922790FB87F98093DA011A
:103130008091DA010E9426198091DA0187FB8827A5
:1031400080F980930C0187E290E00E948E17C82FCF
:103150008EE190E00E948E178111C2608FE190E0B5
:103160000E948E178111C46080E290E00E948E1749
:103170008111C86081E290E00E948E178111C061C8
:1031800082E290E00E948E178111C06283E290E09B
:103190000E948E178111C06484E290E00E948E1715
:1031A000882311F0C06802C0CC2329F08C2F0E9424
:1031B0001D196C2F03C00E941919682F70E080E060
:1031C00090E0CF910C94D012CF9108956DEE7EEFE8
:1031D00080E090E00E94F81960E082E090E00E94B8
:1031E000EA1960E083E090E00E94EA1960E084E080
:1031F00090E00E94EA1960E085E090E00E94EA1900
:1032000060E086E090E00C94EA1980E090E00E9493
:10321000E41921E08D3E9E4F09F020E0822F0895B1
:1032200082E090E00C94DC19682F82E090E00C942E
:10323000EA1983E090E00C94DC19682F83E090E0B9
:103240000C94EA1984E090E00C94DC19682F84E077
:1032500090E00C94EA1986E090E00C94DC19682F59
:1032600086E090E00C94EA190E940519811102C0D1
:103270000E94E6180E942B198093DB0180FF02C098
:10328000869501C080E00C94EB018091DB01982FC2
:10329000969539F48170826081608093DB010E9491
:1032A0002F198091DB0186950C94EB018091DB0155
:1032B000982F969591F09158990F8170892B809352
:1032C000DB018E7F91E009F490E08091DB0190FBBF
:1032D00080F98093DB010E942F198091DB01869594
:1032E0000C94EB018091DB01982F909590FB80F975
:1032F0008093DB010E942F198091DB0180FF02C0C7
:10330000869501C080E00C94EB019091DB01892F40
:1033100086958F5F8F779170823028F4880F892B84
:103320008093DB0102C09093DB018091DB018E7FF3
:1033300091E009F490E08091DB0190FB80F98093AB
:10334000DB010E942F198091DB0186950C94EB0123
:103350002091DB01922F96958927982F990F822F24
:103360008170892B8093DB018E7F91E009F490E0DE
:103370008091DB0190FB80F98093DB010E942F1983
:103380008091DB0186950C94EB010024552704C045
:10339000080E591F880F991F009729F07695679599
:1033A000B8F37105B9F7802D952F0895EE0FFF1F23
:1033B0000590F491E02D0994F999FECF92BD81BD5D
:1033C000F89A992780B50895A8E1B0E042E050E06E
:1033D0000C94FF19262FF999FECF1FBA92BD81BD1B
:1033E00020BD0FB6F894FA9AF99A0FBE0196089587
:1033F0000E94EA19272F0C94EB19DC01CB01FC0188
:10340000F999FECF06C0F2BDE1BDF89A319600B43D
:0E3410000D9241505040B8F70895F894FFCF48
:10341E0005F3015F02F6012B02F7010101A5014040
:0E342E003639C7019101580104011D01360114
:00000001FF
