:100000000C9403060C944A060C944A060C944A0677
:100010000C944A060C944A060C944A060C944A0620
:100020000C944A060C944A060C94750D0C94470ED9
:100030000C94E31D0C944A060C944A060C944A0650
:100040000C944A060C944A060C944A060C944A06F0
:100050000C944A060C94571E0C944A060C944A06BB
:100060000C944A060C944A060C944A060C944A06D0
:100070000C944A060C944A060C944A060C944A06C0
:100080000C944A060C944A060C944A060C944A06B0
:100090000C944A060C944A060C944A060C944A06A0
:1000A0000C944A060C944A060C944A06B40ED60EDA
:1000B000C90FD60EC90F1B0F3E0FC90F930FA60F06
:1000C000441344136E136E13C913FD1349164916D6
:1000D00014144916FF14FF14C515DA1549163616FF
:1000E0000000028A00D200D100D000D05F606157CA
:1000F0005C5D5E56595A5B586263C12A53C2C3A9FC
:10010000C452C5AA50514F01010101010A00253016
:10011000313662003A200025303258000A722F63CF
:100120002030313233343536373839414243444553
:10013000460A000A002530325800626F756E63650A
:10014000213A20004B6579626F617264207374619B
:1001500072742E0A0055534220636F6E666967758C
:100160007265642E0A000D0A696E69740A005B44A8
:100170005D005B435D00100352006F00610064008E
:100180006B006900740000000A0361006900300020
:10019000330000000403090409028D00050100A0DA
:1001A00032090400000103010100092111010001CD
:1001B0002240000705810308000A09040100010329
:1001C000010200092111010001224D0007058203EF
:1001D00008000A09040200010300000009211101BE
:1001E00000012236000705830308000A0904030002
:1001F000020300000009211101000122220007056D
:100200008403200001070504032000010904040001
:100210000103000000092111010001223900070536
:1002200085032000011201100100000008AEFE4607
:100230008801000102000105010906A10105071955
:10024000E029E715002501950875018102050819C7
:100250000129059505750191029501750391010527
:1002600007190029F71500250195F875018102C0CD
:100270000631FF0974A1010975150026FF009520BC
:10028000750881020976150026FF009520750891F2
:1002900002C005010980A101850216810026B70070
:1002A0001A81002AB700751095018100C0050C095C
:1002B00001A1018503160100269C021A01002A9C57
:1002C00002751095018100C005010902A101090113
:1002D000A1000509190129051500250195057501DC
:1002E00081029501750381010501093009311581EC
:1002F000257F95027508810609381581257F9501AE
:1003000075088106050C0A38021581257F9501754F
:10031000088106C0C005010906A101050719E029E9
:10032000E715002501950875018102950175088181
:1003300001050819012905950575019102950175B9
:100340000391010507190029FF150026FF009506F6
:1003500075088100C0636F6E73756D65723A2025F4
:100360003034580A0073797374656D3A202530343F
:10037000580A000A002530325820006B6579626FF8
:100380006172643A20004C45443A20253032580AC4
:100390000064656C5F6B65795F6269743A206361C4
:1003A0006E27742064656C3A20253032580A00614B
:1003B00064645F6B65795F6269743A2063616E277C
:1003C00074206164643A20253032580A00646F6EEC
:1003D000652E0A00626F6F746D61676963207363D5
:1003E000616E3A202E2E2E2000290A002575002F3E
:1003F000002575005D28002564002000256400208C
:100400000025640020002564007C0025303258005F
:100410006D6F7573656B6579205B62746E7C782097
:1004200079207620685D287265702F61636C293AA7
:10043000205B006D6B5F776865656C5F74696D65E7
:100440005F746F5F6D6178203D2025640A006D6BDD
:100450005F776865656C5F6D61785F737065656413
:10046000203D2025640A006D6B5F74696D655F74C3
:100470006F5F6D6178203D2025640A006D6B5F6DB4
:1004800061785F7370656564203D2025640A006DA6
:100490006B5F696E74657276616C203D2025640A1D
:1004A000006D6B5F64656C6179203D2025640A00F6
:1004B0006D6B5F776865656C5F74696D655F746FA0
:1004C0005F6D6178203D2025640A006D6B5F776861
:1004D00065656C5F6D61785F7370656564203D2054
:1004E00025640A006D6B5F74696D655F746F5F6D85
:1004F0006178203D2025640A006D6B5F6D61785F37
:100500007370656564203D2025640A006D6B5F692A
:100510006E74657276616C203D2025640A006D6BF7
:100520005F64656C6179203D2025640A000A00251E
:100530007500363A20776865656C5F74696D655F34
:10054000746F5F6D61783A20000A00257500353AB6
:1005500020776865656C5F6D61785F737065656451
:100560003A20000A00257500343A2074696D655FF1
:10057000746F5F6D61783A20000A00257500333A88
:10058000206D61785F73706565643A20000A00250C
:100590007500323A20696E74657276616C286D73ED
:1005A000293A20000A00257500313A2064656C6103
:1005B00079282A31306D73293A20000A092D2056F6
:1005C000616C756573202D0A004D3E004D25643E1B
:1005D00020003F007365742064656661756C740A61
:1005E00000433E200077686572652064656C746125
:1005F0003A20637572736F723D25642C20776865AD
:10060000656C3D25640A53656520687474703A2FE3
:100610002F656E2E77696B6970656469612E6F72E4
:10062000672F77696B692F4D6F7573655F6B6579A0
:10063000730A000A092D204D6F7573656B6579206B
:100640002D0A4553432F713A09717569740A313A7D
:100650000964656C6179282A31306D73290A323A50
:1006600009696E74657276616C286D73290A333A74
:10067000096D61785F73706565640A343A0974695D
:100680006D655F746F5F6D61780A353A09776865EB
:10069000656C5F6D61785F73706565640A363A09F1
:1006A000776865656C5F74696D655F746F5F6D61B8
:1006B000780A0A703A097072696E742076616C75F6
:1006C00065730A643A097365742064656661756CC4
:1006D00074730A75703A092B310A646F776E3A09A0
:1006E0002D310A706775703A092B31300A706764D2
:1006F0006F776E3A092D31300A0A73706565642090
:100700003D2064656C7461202A206D61785F737090
:10071000656564202A2028726570656174202F2029
:1007200074696D655F746F5F6D6178290A003F00C1
:100730004D3E2000433E20004C25640A000A092D4E
:1007400020436F6E736F6C65202D0A4553432F71E4
:100750003A09717569740A6D3A096D6F7573656B45
:1007600065790A000A092D204D61676963202D0A09
:10077000643A0964656275670A783A096465627566
:1007800067206D61747269780A6B3A0964656275F5
:1007900067206B6579626F6172640A6D3A096465FE
:1007A000627567206D6F7573650A763A09766572B2
:1007B00073696F6E0A733A097374617475730A63AF
:1007C0003A09636F6E736F6C65206D6F64650A30F4
:1007D0002D343A096C61796572302D3428463130F8
:1007E0002D4634290A506175733A09626F6F746C33
:1007F0006F616465720A653A09656570726F6D0AAA
:100800006E3A094E4B524F0A000A002575002E6CB5
:100810006576656C3A20000A002575002E656E61CC
:10082000626C653A20000A0025303258006261632C
:100830006B6C696768745F636F6E6669672E72615F
:10084000773A20000A002575002E6E6B726F3A20F1
:10085000000A002575002E737761705F6261636B1B
:10086000736C6173685F6261636B73706163653A37
:1008700020000A002575002E737761705F67726132
:1008800076655F6573633A20000A002575002E6E59
:100890006F5F6775693A20000A002575002E73772F
:1008A00061705F72616C745F726775693A20000AEB
:1008B000002575002E737761705F6C616C745F6CDE
:1008C0006775693A20000A002575002E6361707310
:1008D0006C6F636B5F746F5F636F6E74726F6C3A93
:1008E00020000A002575002E737761705F636F6EBC
:1008F00074726F6C5F636170736C6F636B3A20002E
:100900000A0025303258006B65796D61705F636F46
:100910006E6669672E7261773A20000A00257500BD
:100920002E6D6F7573653A20000A002575002E6BD9
:100930006579626F6172643A20000A002575002EA5
:100940006D61747269783A20000A002575002E6581
:100950006E61626C653A20000A00253032580064EE
:10096000656275675F636F6E6669672E7261773A5D
:1009700020000A0025750064656661756C745F6C03
:10098000617965723A20003F004E4B524F3A206F1A
:1009900066660A004E4B524F3A206F6E0A00746929
:1009A0006D65725F72656164333228293A202530A3
:1009B000346C580A006B6579626F6172645F6E6BAC
:1009C000726F3A2025580A006B6579626F61726414
:1009D0005F69646C653A2025580A006B6579626F1F
:1009E0006172645F70726F746F636F6C3A20255828
:1009F0000A00686F73745F6B6579626F6172645F20
:100A00006C65647328293A2025580A000A092D20AC
:100A1000537461747573202D0A004743433A20359F
:100A20002E342E30204156522D4C4942433A20322A
:100A30002E302E30204156525F415243483A2061B9
:100A40007672350A004F5054494F4E533A204C5558
:100A5000464120424F4F544D41474943204D4F5549
:100A600053454B45592045585452414B4559204315
:100A70004F4E534F4C4520434F4D4D414E44204E19
:100A80004B524F20343039360A004255494C443AD3
:100A900020323565386437322D64697274792028C4
:100AA00031323A34393A3231204D617220203820C7
:100AB00032303232290A005649443A2030784645CD
:100AC0004145286169303329205049443A20307823
:100AD0003838343628526F61646B69742920564562
:100AE000523A203078303030310A00444553433A8E
:100AF000206B6579626F617264206669726D7761DF
:100B0000726520666F7220526F61646B69740A00AF
:100B10000A092D2056657273696F6E202D0A000A2E
:100B20006D6F7573653A206F66660A000A6D6F75A2
:100B300073653A206F6E0A000A6B6579626F6172A5
:100B4000643A206F66660A000A6B6579626F6172AB
:100B5000643A206F6E0A000A6D61747269783A20F7
:100B60006F66660A000A6D61747269783A206F6E6A
:100B70000A000A64656275673A206F6E0A000A64AB
:100B8000656275673A206F66660A000A0A626F6FCF
:100B9000746C6F616465722E2E2E2000433E20001F
:100BA0006565636F6E6669673A0A006261636B6CC4
:100BB0006967687420737465703A2025750A00624D
:100BC00061636B6C6967687420746F67676C653A02
:100BD0002025750A006261636B6C69676874206424
:100BE000656372656173653A2025750A0062616309
:100BF0006B6C6967687420696E6372656173653ACE
:100C00002025750A000011241FBECFEFDAE0DEBFF9
:100C1000CDBF04B603FE27C0809106029091070263
:100C2000A0910802B09109028730904BA740B04BC9
:100C3000D1F410920602109207021092080210924C
:100C4000090214BE84B7877F84BF0FB6F894A895B5
:100C500080916000886180936000109260000FBEF8
:100C6000E0E0F8E3099511E0A0E0B1E0E4E7F8E5A1
:100C700002C005900D92A833B107D9F722E0A8E38E
:100C8000B1E001C01D92A630B207E1F70E949E0AB2
:100C90000C94382C0C940000FF93EF93E0913801F2
:100CA000F0913901309709F00995EF91FF9108957E
:100CB000FC018591803011F0EFDFFBCF0895FF2715
:100CC000E0E230E247FF0CC0419597FF09C0EDE23A
:100CD0006095709580959095611D711D811D911D88
:100CE00027FF02C0219530E350E2AA27660F771F45
:100CF000881F991FAA1FA41710F0A41B63955A956B
:100D0000A9F7AA3008F0A95FA05DAF93F39561152C
:100D100071058105910541F7ED3211F4EF93F395DB
:100D2000F21718F43F93F395FBCF8F91B5DFFA9547
:100D3000E1F70895E991F9918591803021F08532AC
:100D400019F0AADFF9CF089520E0E89455915532C3
:100D5000C1F3503311F4689455915A3348F4505309
:100D600090F3220F022E220F220F200D250FF4CF19
:100D70000EF4219589919991533619F3533729F13E
:100D8000533559F1BC0188279927E8945C3621F442
:100D90008991999168945591543639F446EF7EF0D3
:100DA00077FF0DC08FEF9FEF0AC055374AE039F04B
:100DB000583540E121F0523642E009F00895FF93A2
:100DC000EF937DDFEF91FF91B7CFFF93EF93FC019E
:100DD00081918030B9F360DFFBCFFF93EF9368DF41
:100DE000F1CFDF93CF93CDB7DEB72596A3DFCF91B9
:100DF000DF91089580B38E7D80BB81B38E7D81BBF2
:100E000057985F9824982C98089585B7806885BF77
:100E100085B7806885BF0E94FA0680B38D7E80BB4F
:100E200081B3826181BB8AB18F7A8AB98BB18065C7
:100E30008BB9AEE3B1E01C92EAE3F1E010821196C7
:100E40001C921197118212961C921297128213967D
:100E50001C9213820895DF92EF92FF920F931F93DB
:100E6000CF93DF930AE311E0C0E0D1E085E0D82E14
:100E700095E3E92E91E0F92EC23051F0C33059F0DC
:100E8000C13019F0809A889808C0859A8D9805C05D
:100E9000509A5F9802C0249A2C9880EA8A95F1F7BC
:100EA0008FB1869581708D277C9902C092E001C038
:100EB00090E0892B4E9902C094E001C090E0892B0C
:100EC0004C9902C098E001C090E0892BF801908114
:100ED000981739F1808380910001882301F1809176
:100EE000E60180FF04C08AE391E00E9458068091E9
:100EF000E60180FF0CC0809100011F928F93FF924A
:100F0000EF920E94F1060F900F900F900F9080913A
:100F1000E60180FF04C083E391E00E945806D0926E
:100F200000010E94FA06CF5F0F5F1F4FC43009F027
:100F3000A3CF809100018823E1F0815080930001CC
:100F4000882339F08FE99FE00197F1F700C0000096
:100F500010C080913A0180933E0180913B018093C3
:100F60003F0180913C018093400180913D0180933D
:100F7000410181E0DF91CF911F910F91FF90EF90A0
:100F8000DF900895E82FF0E0E25CFE4F8081089545
:100F9000CF92DF92EF92FF920F931F93CF93DF9345
:100FA0008CE191E00E9458068EE3E82E81E0F82E55
:100FB000C0E0D0E097E1C92E91E0D92E0EE011E01B
:100FC000DF93CF93DF92CF920E94F10684E191E00C
:100FD0000E945806F70181917F0190E00E94781DE0
:100FE0009F938F931F930F930E94F1068CE091E0E3
:100FF0000E94580621968DB79EB708960FB6F894B2
:101000009EBF0FBE8DBFC430D105D1F6DF91CF9109
:101010001F910F91FF90EF90DF90CF900895259A48
:10102000882311F02D9A08952D98089508958091A0
:10103000660108959FB7F894109245019FBF909163
:10104000FB01943009F057C09091E9009F703091F6
:10105000EC00232F217030FD20E8922B24E0209318
:10106000E9002091EB0020FF43C02091EE0027FF14
:101070003FC020914201222321F02091E80025FF6A
:1010800037C01092420126E03091E80035FD15C0CE
:101090003091FB01343061F53091EB0035FD28C013
:1010A000215021F481E08093420122C0EFE9FFE06A
:1010B0003197F1F700C00000E7CF8093F1008091F5
:1010C000E80085FD0AC08091E80080FFFCCF809198
:1010D000E8008E778093E80006C08FB7F89421E08F
:1010E000209345018FBF9F709093E90080E00895A1
:1010F0009F709093E9008FEF0895CF93DF9300D016
:101100001F92CDB7DEB79C018091FB01843019F5A9
:1011100093E099833B832A839093E9008FEF90912A
:10112000E800815095FD06C095ED9A95F1F7000015
:101130008111F5CF8091E80085FF0DC040E050E0BF
:1011400063E070E0CE0101960E94690B8091E80097
:101150008E778093E8000F900F900F90DF91CF91E2
:101160000895CF93DF9300D01F92CDB7DEB72091C3
:10117000FB01243021F522E029839B838A8383E0CD
:101180008093E9008FEF9091E800815095FD06C0B3
:1011900095ED9A95F1F700008111F5CF8091E80067
:1011A00085FF0DC040E050E063E070E0CE010196A5
:1011B0000E94690B8091E8008E778093E8000F9081
:1011C0000F900F90DF91CF9108952091FB01243073
:1011D000F1F422E02093E9002FEF3091E800215054
:1011E00035FD06C035ED3A95F1F700002111F5CF38
:1011F0002091E80025FF0BC040E050E065E070E082
:101200000E94690B8091E8008E778093E800089532
:10121000CF93DF932091FB01243009F048C0EC010B
:1012200080910B018823E1F080910C018823C1F0AB
:1012300085E08093E9008FEF9091E800815095FD63
:1012400006C09AE29A95F1F700C08111F5CF80911E
:10125000E80085FF2CC040E050E060E270E017C07D
:1012600081E08093E9008FEF9091E800815095FD37
:1012700006C095ED9A95F1F700008111F5CF8091A8
:10128000E80085FF14C040E050E068E070E0CE0167
:101290000E94690B8091E8008E778093E80080E2DD
:1012A000FE01A6E4B1E001900D928A95E1F7DF918D
:1012B000CF91089582E791E00E9458068091FA014B
:1012C000811109C00E94FA0C0E94570D8091E20022
:1012D00084608093E20008958EE691E00E945806B3
:1012E0001092FA0108950895209143012F5F822FF3
:1012F00062E30E94CD2B992319F0209343010895B6
:101300001092430180914501882371F18091FB0186
:10131000843041F58091E9008F702091EC00922F8C
:10132000917020FD90E8892B94E09093E9009091D2
:10133000EB0090FF14C09091EE0097FF10C09091C9
:10134000E80095FF03C01092F100F9CF9091E800FA
:1013500090FF05C09091E8009E779093E8008F7011
:101360008093E90010924501089542E061EC81E02C
:101370000E94730C42E061EC82E00E94730C42E038
:1013800061EC83E00E94730C42E261EC84E00E9415
:10139000730C42E261EC85E00C94730C8091FD01CA
:1013A000833009F455C030F4813071F0823009F493
:1013B0008EC008958A3009F47AC08B3009F460C079
:1013C000893009F09CC020C08091FC01813A09F06D
:1013D00096C08091E800877F8093E80080910002AA
:1013E00090910102892B21F460E286E491E003C030
:1013F00060E080E090E070E00E94B40B8091E80033
:101400008B778093E80008958091FC01813209F088
:1014100076C08091000290910102009719F0049724
:1014200009F06DC08091E800877F8093E80080918B
:10143000E80082FD05C08091FB018111F8CF5FC0FB
:101440008091F100809366018091E8008B7753C012
:101450008091FC01813A09F052C080910002909184
:101460000102892B09F04BC08091E800877F8093AF
:10147000E8008091E80080FFFCCF80910B0136C02E
:101480008091FC018132D9F5809100029091010296
:10149000892BA9F58091E800877F8093E8000E945E
:1014A000A80C8091FE0180930B010C946916809129
:1014B000FC01813221F58091E800877F8093E8006C
:1014C0000E94A80C8091FF0180936701089580918C
:1014D000FC01813AA1F48091E800877F8093E800C5
:1014E0008091E80080FFFCCF809167018093F1003C
:1014F0008091E8008E778093E8000C94A80C089502
:1015000008950C94800A80916601809344011092A2
:10151000660180E00E9416080E944F110C94691623
:101520000C94830A0E94A01D8091F901882329F060
:101530000E94C91D81110C94530B089584B7877FB5
:1015400084BF0FB6F894A89580916000886180935D
:101550006000109260000FBE90E080E80FB6F89433
:1015600080936100909361000FBE8AE198E00E9431
:10157000611D86E691E00E9458060E94810A0E9441
:10158000A0100E94FA0C0E94570D8091E200846026
:101590008093E20078948091FB018430E1F781ED43
:1015A00097E0019739F0EFE9FFE03197F1F700C0DC
:1015B0000000F7CF85E591E00E9458060E94A21036
:1015C00081E091E00E94E10F84E491E00E945806DE
:1015D0000E94800A8091FB01853019F40E94920AD2
:1015E000F9CF0E94AA10F6CF0E94DD1D8091440120
:1015F0008093660108950C94F40A292F3327233031
:101600003105C9F060F42130310581F02230310517
:1016100009F041C08DE890E028E931E040C0213276
:101620003105E1F02232310531F135C082E190E03F
:1016300025E232E034C099278130910549F028F045
:10164000029749F5E6E7F1E005C0E4E9F1E002C000
:10165000E8E8F1E0849190E09F0121C06530D8F482
:10166000E62FF0E0EE0FFF1FEC5DFE4F2081318191
:1016700089E090E014C0653070F470E0FB01EE0F7B
:10168000FF1FE65EFE4F20813181FB01EB5EFE4FC6
:10169000808190E004C080E090E020E030E0FA013A
:1016A00031832083089580E189BD82E189BD09B439
:1016B00000FEFDCF8091D8008F7D8093D80080916F
:1016C000E00082608093E0008091E00081FDFCCF2B
:1016D0000895CF92DF92EF92FF920F931F93CF93D3
:1016E000DF93EC018B017A010E94C70C811133C09A
:1016F000E114F10439F0F70180819181081B190B85
:10170000C80FD91FC12CD12C0115110519F18091D9
:10171000E80085FD16C08091E8008E778093E80090
:10172000E114F10449F0F70180819181C80ED91EBE
:10173000D182C08285E00FC00E94C70C882321F3AC
:101740000AC089918093F10001501109FFEFCF1A6F
:10175000DF0ADACF80E0DF91CF911F910F91FF90E8
:10176000EF90DF90CF900895209102023091030214
:101770002617370748F06115710539F42091E80004
:101780002E772093E80001C0B901FC0120E061152B
:10179000710579F18091FB018823F1F18530F1F138
:1017A0008091E80083FD3CC08091E80082FD2EC05E
:1017B0008091E80080FFEBCF2091F3008091F20050
:1017C00090E0922B6115710551F08830910538F445
:1017D00021912093F100615071090196F3CF21E02E
:1017E000089709F020E08091E8008E778093E80068
:1017F000CECF2111CFCF0AC08091FB01882361F0A9
:10180000853061F08091E80083FD0AC08091E80096
:1018100082FFF2CF80E0089582E0089583E008958A
:1018200081E00895209102023091030226173707C4
:1018300048F06115710539F42091E8002E77209366
:10184000E80001C0B901FC0120E06115710591F1CA
:101850008091FB01882309F440C0853009F43FC022
:101860008091E80083FD3DC08091E80082FD2FC09B
:101870008091E80080FFE9CF2091F3008091F20091
:1018800090E0922B6115710559F08830910540F474
:1018900024912093F1003196615071090196F2CFA5
:1018A00021E0089709F020E08091E8008E7780938E
:1018B000E800CBCF2111CCCF0AC08091FB01882357
:1018C00061F0853061F08091E80083FD0AC080916D
:1018D000E80082FFF2CF80E0089582E0089583E07F
:1018E000089581E00895982F973068F59093E90066
:1018F000981739F07091EC002091ED005091F000B4
:1019000003C0242F762F50E021FD02C09F5FECCF53
:101910003091EB003E7F3093EB003091ED003D7F46
:101920003093ED003091EB0031603093EB00709319
:10193000EC002093ED005093F0002091EE0027FD85
:10194000E5CF80E008958F708093E90081E00895ED
:101950008091FC0187FF11C08091E80082FD05C0E5
:101960008091FB018111F8CF11C08091E8008B7745
:101970000BC08091FB01882349F08091E80080FF33
:10198000F8CF8091E8008E778093E8000895209149
:10199000E4003091E50095E64091EC00842F8170E1
:1019A00040FF23C08091E80080FD1DC08091FB01B5
:1019B000882399F0853099F08091EB0085FD11C066
:1019C0004091E4005091E5002417350729F3915028
:1019D00011F09A01E1CF84E0089582E0089583E058
:1019E000089581E0089580E008954091E80042FF65
:1019F000DDCF08950E94680D0E94700DE0EEF0E0CA
:101A0000808181608083E8EDF0E080818F77808342
:101A100019BCA7EDB0E08C918E7F8C9380818F7E76
:101A200080831092FA0108950F931F93CF93DF9351
:101A30000E94680D0E94700DC8EDD0E088818F77FC
:101A4000888388818068888388818F7D888319BC9A
:101A50001092FB011092F7011092F9011092F80117
:101A600000EE10E0F80180818B7F808388818160A7
:101A7000888342E060E080E00E94730CE1EEF0E0D9
:101A800080818E7F8083E2EEF0E0808181608083C0
:101A9000808188608083F80180818E7F8083888147
:101AA00080618883DF91CF911F910F910895E8EDB8
:101AB000F0E080818F7E8083E7EDF0E080818160BF
:101AC000808384E082BF81E08093FA010C94140D3E
:101AD000E8EDF0E080818E7F80831092E20008952F
:101AE0001092DA001092E10008951F920F920FB643
:101AF0000F9211242F933F934F935F936F937F9394
:101B00008F939F93AF93BF93EF93FF938091E100E7
:101B100082FF0BC08091E20082FF07C08091E1004C
:101B20008B7F8093E1000E9474098091DA0080FF2E
:101B30001FC08091D80080FF1BC08091DA008E7F8B
:101B40008093DA008091D90080FF0DC080E189BDCB
:101B500082E189BD09B400FEFDCF81E08093FB01E5
:101B60000E945A0905C019BC1092FB010E946C0921
:101B70008091E10080FF19C08091E20080FF15C0D4
:101B80008091E2008E7F8093E2008091E20080618C
:101B90008093E2008091D80080628093D80019BCC5
:101BA00085E08093FB010E94900A8091E10084FF10
:101BB00030C08091E20084FF2CC080E189BD82E1C9
:101BC00089BD09B400FEFDCF8091D8008F7D809340
:101BD000D8008091E1008F7E8093E1008091E20047
:101BE0008F7E8093E2008091E20081608093E2002A
:101BF0008091F701882311F084E007C08091E30011
:101C000087FD02C081E001C083E08093FB010E9458
:101C1000FB0A8091E10083FF29C08091E20083FFED
:101C200025C08091E100877F8093E10082E080936E
:101C3000FB011092F7018091E1008E7F8093E1001B
:101C40008091E2008E7F8093E2008091E2008061CB
:101C50008093E20042E060E080E00E94730C80919B
:101C6000F00088608093F0000E947309FF91EF916B
:101C7000BF91AF919F918F917F916F915F914F91A4
:101C80003F912F910F900FBE0F901F9018951F92AC
:101C90000F920FB60F9211242F933F934F935F93A0
:101CA0006F937F938F939F93AF93BF93CF93DF9364
:101CB000EF93FF93C091E900CF708091EC00D82F93
:101CC000D17080FDD0E81092E9008091F000877F0C
:101CD0008093F00078940E948B0E1092E90080911E
:101CE000F00088608093F000CD2BCF70C093E900A6
:101CF000FF91EF91DF91CF91BF91AF919F918F9124
:101D00007F916F915F914F913F912F910F900FBEF7
:101D10000F901F9018951F93CF93DF93CDB7DEB729
:101D2000AA970FB6F894DEBF0FBECDBFECEFF1E07F
:101D30008091F100819322E0E430F207C9F70E941C
:101D4000CE098091E80083FF24C18091FC0190912D
:101D5000FD01492F50E04A30510508F01AC1FA013F
:101D6000EA5AFF4F0C94ED2B803881F0823809F04D
:101D700010C1809100028F708093E9008091EB0088
:101D800085FB882780F91092E90006C08091F80150
:101D90009091F901911182609091E800977F909362
:101DA000E8008093F1001092F100C8C0282F2D7F29
:101DB00009F0EFC0882319F0823061F0EAC0809109
:101DC000FE01813009F0E5C0933009F080E0809396
:101DD000F9012BC08091FE01811127C08091000282
:101DE0008F7009F4D6C08093E9002091EB0020FFAA
:101DF0001CC0933021F48091EB00806214C090915C
:101E0000EB0090619093EB0021E030E0A90102C06B
:101E1000440F551F8A95E2F74093EA001092EA00BA
:101E20008091EB0088608093EB001092E900809134
:101E3000E800877F86C08111ACC01091FE011F773A
:101E40008091E3008078812B8093E3008091E8000B
:101E5000877F8093E8000E94A80C8091E80080FFB3
:101E6000FCCF8091E30080688093E300111102C0F1
:101E700082E001C083E08093FB018BC080588230F8
:101E800008F087C08091FE019091FF018C3D53E0E6
:101E9000950779F583E08A838AE289834FB7F894BE
:101EA000DE01139620E03EE051E2E32FF0E0509394
:101EB0005700E49120FF03C0E295EF703F5FEF70A1
:101EC0008E2F90E0EA3010F0C79601C0C0968D9337
:101ED0009D932F5F243149F74FBF8091E800877FA2
:101EE0008093E8006AE270E0CE0101960E94B40B94
:101EF00014C0AE014F5F5F4F609100020E94FD0A67
:101F0000BC01892B09F445C09091E800977F90931C
:101F1000E80089819A810E94120C8091E8008B77F9
:101F20008093E80036C08038A1F58091E800877F73
:101F30008093E8008091F7018093F1008091E800A0
:101F40008E778093E8000E94A80C23C0811121C0E5
:101F50008091FE019091FF0199270297D4F480911E
:101F6000E800877F8093E8008091FE018093F7016D
:101F70000E94A80C8091F701811106C08091E300B6
:101F800087FD02C081E001C084E08093FB010E94D4
:101F9000B5098091E80083FF0AC08091E800877F3F
:101FA0008093E8008091EB0080628093EB00AA961A
:101FB0000FB6F894DEBF0FBECDBFDF91CF911F915A
:101FC000089590936D0180936C010895E0916C01E8
:101FD000F0916D01309721F00190F081E02D09948E
:101FE00080E00895EF92FF920F931F93CF93DF93BA
:101FF000E0916C01F0916D013097B1F18C0102809C
:10200000F381E02D09958091E60182FF2DC080FFCC
:1020100004C08BE793E00E945806E80110E285E7D0
:10202000E82E83E0F82E8091E60180FF0BC08881C6
:102030001F928F93FF92EF920E94F1060F900F90E4
:102040000F900F90115021961111EDCF8091E60164
:1020500080FF0AC083E793E0DF91CF911F910F913A
:10206000FF90EF900C945806DF91CF911F910F9144
:10207000FF90EF900895E0916C01F0916D01309721
:1020800021F00480F581E02D09940895CF93DF932A
:1020900020916A0130916B012817390709F190935B
:1020A0006B0180936A01E0916C01F0916D013097B2
:1020B000B9F0EC010680F781E02D09958091E601E9
:1020C00082FF0EC080FF0CC0DF93CF9385E693E0C4
:1020D0009F938F930E94F1060F900F900F900F9097
:1020E000DF91CF910895CF93DF93209168013091D4
:1020F00069012817390709F19093690180936801F4
:10210000E0916C01F0916D013097B9F0EC01008421
:10211000F185E02D09958091E60182FF0EC080FFD8
:102120000CC0DF93CF9385E593E09F938F930E943C
:10213000F1060F900F900F900F90DF91CF910895BF
:102140000C9450110E940C1E0E9405070E9414203E
:102150000C94BF29BF92CF92DF92EF92FF920F9320
:102160001F93CF93DF9300D000D01F92CDB7DEB77F
:102170000E942B070FE611E0F12C8F2D0E94C20761
:10218000B82EF801C080C82639F4F3940F5F1F4FB2
:10219000F4E0FF12F2CF30C08091E60181FD0E9491
:1021A000C807D12CEE24E3948C2D8E21F9F0D9822E
:1021B000FA8291E08B2D8E2109F490E09B830E949E
:1021C000151E8160782F9D838C8349815A816B8194
:1021D0008D810E94531149815A816B817C818D814F
:1021E0000E948C1DF80180818E258083D394EE0C93
:1021F000F4E0DF12D9CFC9CF8FEF89838A831B82A6
:102200000E94151E8160782F9D838C8349815A819D
:102210006B818D810E9453110E948B1D0E94AC2303
:102220000E94E60F90916E01891741F10E94E60F1E
:1022300080936E019091E60192FF0EC090FF0CC05A
:102240001F928F9386E893E09F938F930E94F106ED
:102250000F900F900F900F9080916E010F900F9044
:102260000F900F900F90DF91CF911F910F91FF90E2
:10227000EF90DF90CF90BF900C949D1D0F900F902A
:102280000F900F900F90DF91CF911F910F91FF90C2
:10229000EF90DF90CF90BF9008950C9416080895AA
:1022A000089508950895CF93DF93CDB7DEB72B97A8
:1022B0000FB6F894DEBF0FBECDBF942F4F83252FEE
:1022C000588769877A878B874A855B85452B31F0EC
:1022D0002F3F31F481E09F3F19F403C081E001C03A
:1022E00080E080FD07C04F81588569857A858B85A0
:1022F0000E948C1DDE01119686E0FD0111928A95E7
:10230000E9F785E0FE01379601900D928A95E1F795
:1023100049815A816B817C818D819E810E947419D3
:102320002B960FB6F894DEBF0FBECDBFDF91CF91D5
:102330000895CF93882309F4E8C0C82F8238A1F408
:102340000E94E60F81FDE1C089E30E945C1C0E94AF
:102350003B1D2FEF81EE94E0215080409040E1F74B
:1023600000C0000089E315C08338C1F40E94E60F65
:1023700080FDCBC083E50E945C1C0E943B1D2FEFBB
:1023800081EE94E0215080409040E1F700C00000D1
:1023900083E50E94AC1CCF910C943B1D8438A1F4C2
:1023A0000E94E60F82FDB1C087E40E945C1C0E947F
:1023B0003B1D2FEF81EE94E0215080409040E1F7EB
:1023C00000C0000087E4E5CF8CEF8C0F813A48F421
:1023D0008C2F0E946A28811198C08C2F0E945C1C4F
:1023E000DACF80E28C0F883048F4C77081E001C0FA
:1023F000880FCA95EAF70E94011DCDCF8BE58C0F9F
:10240000833078F4C53A29F0C63A31F083E890E099
:1024100005C081E890E002C082E890E0CF910C9482
:10242000461088E58C0F853108F06FC0C83A61F11D
:10243000C93A69F1CA3A71F1CB3A79F1CC3A81F1F2
:10244000CD3A89F1CE3A91F1CF3A99F1C13BA1F160
:10245000C03BA9F1C23BB1F1C33BB9F1C43BC1F1EF
:10246000C53BC9F1C63BD1F1C73BD9F1C83BE1F14E
:10247000C93BE9F1CA3BF1F1CB3BF9F1CC3B09F4A3
:102480003FC080E090E03EC082EE90E03BC089EE2D
:1024900090E038C08AEE90E035C085EB90E032C025
:1024A00086EB90E02FC083EB90E02CC084EB90E0B3
:1024B00029C087EB90E026C08CEC90E023C08DEC27
:1024C00090E020C083E891E01DC08AE891E01AC046
:1024D00082E991E017C084E991E014C081E292E0C2
:1024E00011C083E292E00EC084E292E00BC085E26C
:1024F00092E008C086E292E005C087E292E002C066
:102500008AE292E0CF910C947310CF9108958823C2
:1025100009F466C08238A1F40E94E60F81FF60C012
:1025200089E30E945C1C0E943B1D2FEF81EE94E02A
:10253000215080409040E1F700C0000089E315C0C1
:102540008338B9F40E94E60F80FF4AC083E50E94F9
:102550005C1C0E943B1D2FEF81EE94E021508040D7
:102560009040E1F700C0000083E50E94AC1C0C9491
:102570003B1D8438A1F40E94E60F82FF31C087E43E
:102580000E945C1C0E943B1D2FEF81EE94E02150C5
:1025900080409040E1F700C0000087E4E6CF9CEF68
:1025A000980F913A10F390E2980F983050F487709A
:1025B00091E001C0990F8A95EAF7892F0E94071DC3
:1025C000D6CF9BE5980F933020F480E090E00C94F8
:1025D0004610885A853120F480E090E00C94731006
:1025E0000895882321F00E94011D0C943B1D08953D
:1025F000882321F00E94071D0C943B1D0895CF9263
:10260000DF92EF92FF920F931F93CF93DF9300D04F
:1026100000D01F92CDB7DEB76C0185E0F601DE0178
:10262000119601900D928A95E1F7F6014081518152
:10263000238134812115310531F05F3F31F491E080
:102640004F3F19F403C091E001C090E090FD21C319
:10265000F601F280E580E2948FE0E822722F3D835C
:102660002C836F2D8D810E94D81B8C010E94D71B5B
:102670000E94C71AE12FE295EF708E2F90E0FC01C7
:10268000E05AFF4F0C94ED2B812F807F1F70882321
:1026900011F01295107FFF2049F0112309F452C266
:1026A000812F0E94141D0E943B1D4CC2802F0E944E
:1026B0008712112309F4EDC2812F0E941A1D0F9079
:1026C0000F900F900F900F90DF91CF911F910F916E
:1026D000FF90EF90DF90CF900C943B1D812F807F77
:1026E0001F70803211F01295107F002319F0013015
:1026F00009F12BC0FF20A9F0EE2059F1F1E0812F64
:10270000EF1228C00F900F900F900F900F90DF9155
:10271000CF911F910F91FF90EF90DF90CF900C948D
:10272000241DEE2021F081E0E81609F4B2C20E94D7
:10273000271D2DC0FF20E9F0E5E0EE1508F4A9C241
:102740000E94FE1C812329F022C0FF20F1F0E1103D
:1027500015C0812F0F900F900F900F900F90DF9169
:10276000CF911F910F91FF90EF90DF90CF900C943D
:10277000F112F4E0FE1508F48CC209C0F60185815F
:1027800080FFE0C18F708583E4CFE110EEC1812F1F
:1027900061C1812F86958695837019F08130B9F0DB
:1027A00078C2FF2019F0C801937002C080E090E069
:1027B0000F900F900F900F900F90DF91CF911F917E
:1027C0000F91FF90EF90DF90CF900C944610FF2078
:1027D00019F0C801937002C080E090E00F900F9054
:1027E0000F900F900F90DF91CF911F910F91FF905D
:1027F000EF90DF90CF900C947310802FFF2019F092
:102800000E94322202C00E949A220F900F900F90D5
:102810000F900F90DF91CF911F910F91FF90EF904C
:10282000DF90CF900C941F23812F837009F070C02C
:10283000F1102FC2202F229526952770220F220FEC
:10284000602F6F70862F90E0A0E0B0E06C017D01FA
:10285000022E04C0CC0CDD1CEE1CFF1C0A94D2F727
:1028600004FF12C08FE090E0A0E0B0E004C0880F49
:10287000991FAA1FBB1F2A95D2F7BC01CD016095F5
:1028800070958095909503C060E070E0CB0116953F
:10289000169513701230B1F040F56C297D298E2900
:1028A0009F29113031F10F900F900F900F900F90E2
:1028B000DF91CF911F910F91FF90EF90DF90CF901C
:1028C0000C94EC1A6C297D298E299F290F900F906A
:1028D0000F900F900F90DF91CF911F910F91FF906C
:1028E000EF90DF90CF900C94061B0E94EC1AC7016A
:1028F000B6010F900F900F900F900F90DF91CF9136
:102900001F910F91FF90EF90DF90CF900C94D21A0F
:10291000FF2019F0812F817001C08695882309F46A
:10292000B8C1202F229526952770220F220F602FE5
:102930006F70862F90E0A0E0B0E06C017D01022E68
:1029400004C0CC0CDD1CEE1CFF1C0A94D2F704FF63
:1029500012C08FE090E0A0E0B0E004C0880F991FA3
:10296000AA1FBB1F2A95D2F7BC01CD0160957095B7
:102970008095909503C060E070E0CB0116951695A8
:1029800013701230B1F040F56C297D298E299F29F2
:10299000113031F10F900F900F900F900F90DF9149
:1029A000CF911F910F91FF90EF90DF90CF900C94FB
:1029B000B31B6C297D298E299F290F900F900F90B2
:1029C0000F900F90DF91CF911F910F91FF90EF909B
:1029D000DF90CF900C94C51B0E94B31BC701B601BA
:1029E0000F900F900F900F900F90DF91CF911F914C
:1029F0000F91FF90EF90DF90CF900C94A11B003FC0
:102A0000C1F128F480E4800F803250F096C0023F7C
:102A100009F45EC008F449C0033F09F46CC08DC0DE
:102A2000F02FF071EF2E812F8F71FF2051F00E9457
:102A30003A1B802FEE2019F08295807F8BCE8F700D
:102A400089CE0E945B1B802FEE2019F08295807F3B
:102A500001C08F700F900F900F900F900F90DF912B
:102A6000CF911F910F91FF90EF90DF90CF900C943A
:102A7000F812FF20A9F084E08E1508F40AC1812F16
:102A80008F710F900F900F900F900F90DF91CF915B
:102A90001F910F91FF90EF90DF90CF900C94801BCF
:102AA000E5E0EE1508F4F5C0EACFFF2099F0812F9C
:102AB0008F710F900F900F900F900F90DF91CF912B
:102AC0001F910F91FF90EF90DF90CF900C943A1BE5
:102AD000FF2069F3812F8F710F900F900F900F904F
:102AE0000F90DF91CF911F910F91FF90EF90DF90AA
:102AF000CF900C945B1BFF2089F0812F8F710F907A
:102B00000F900F900F900F90DF91CF911F910F9129
:102B1000FF90EF90DF90CF900C94251B0F900F90BB
:102B20000F900F900F90DF91CF911F910F91FF9019
:102B3000EF90DF90CF900C94201BFF2099F0EE20B7
:102B400009F4B5CF802F0F900F900F900F900F903A
:102B5000DF91CF911F910F91FF90EF90DF90CF9079
:102B60000C949911EE2009F4B5CF802F0F900F909F
:102B70000F900F900F90DF91CF911F910F91FF90C9
:102B8000EF90DF90CF900C948712412F4F70602F01
:102B9000C6010E94321F0F900F900F900F900F9060
:102BA000DF91CF911F910F91FF90EF90DF90CF9029
:102BB0000C94221AF1106DC01F701230C9F1A0F4EC
:102BC000112339F1113009F064C00F900F900F906C
:102BD0000F900F90DF91CF911F910F91FF90EF9089
:102BE000DF90CF900C94F429133089F1143009F060
:102BF00050C0802F0F900F900F900F900F90DF918B
:102C0000CF911F910F91FF90EF90DF90CF900C9498
:102C10007F2A0F900F900F900F900F90DF91CF9120
:102C20001F910F91FF90EF90DF90CF900C94D029DF
:102C30000F900F900F900F900F90DF91CF911F91F9
:102C40000F91FF90EF90DF90CF900C94232A0F907C
:102C50000F900F900F900F90DF91CF911F910F91D8
:102C6000FF90EF90DF90CF900C94492A412F4F7046
:102C7000602FC6010F900F900F900F900F90DF9173
:102C8000CF911F910F91FF90EF90DF90CF900C9418
:102C9000351F0F900F900F900F900F90DF91CF91F5
:102CA0001F910F91FF90EF90DF90CF9008950E94B9
:102CB000211D0E94F01C0E943B1D0E9451240E9475
:102CC0001F2380E090E00E94461080E090E00C948A
:102CD00073100E94111D0C9457161F93CF93DF930E
:102CE00000D000D01F92CDB7DEB7942F4983252F97
:102CF0005A836B837C838D834C815D81452B31F0BE
:102D00002F3F31F481E09F3F19F403C081E001C0FF
:102D100080E0182F117080FD31C049815A816B818C
:102D20007C818D810E94D81B292F22952F702C30F9
:102D300030F42A30A0F42250223030F022C02C305F
:102D4000C9F02F30B9F01DC0853A28F48430C0F4A2
:102D5000823028F415C090E2980F983088F0883EB1
:102D600030F4803E68F48450813A58F409C0803FC2
:102D700041F406C093FB112710F903C010E001C015
:102D800011E0812F0F900F900F900F900F90DF9117
:102D9000CF911F910895CF93DF9300D000D01F9261
:102DA000CDB7DEB70F900F900F900F900F90DF917F
:102DB000CF910895CF93DF9300D000D000D0CDB74E
:102DC000DEB726960FB6F894DEBF0FBECDBFDF91FB
:102DD000CF9108951F93CF93DF93C091730116E0B5
:102DE00080917401C81799F0D0E01C9FF0011D9FDD
:102DF000F00D1124EB58FE4F4081518162817381A7
:102E0000848195810E94DA162196C770E9CFDF91FF
:102E1000CF911F9108954091A5015091A601609115
:102E2000A7017091A8018091A9019091AA010C9429
:102E3000DA16CF938091AA0182958F7009F05FC056
:102E40008091A701882309F45AC080917301B09141
:102E500074017091A501A091A6014091A801509123
:102E6000A90191E07F3F09F090E0692FC6E08B1740
:102E700009F445C04115510521F0AF3F21F020E094
:102E800003C021E001C0262F90E020FD35C0C89F7F
:102E9000F001C99FF00D1124EB58FE4F21812A1338
:102EA0002BC02081271328C02281211125C0238116
:102EB00034812417350710F421503109241B350BB8
:102EC000283C3105C8F42091AA012F70206120937D
:102ED000AA0126E0289FF001299FF00D1124E65851
:102EE000FE4F80818F708061808385EA91E00E942F
:102EF000FF12CF910C94EA1601968770B8CFCF914C
:102F00000895AF92BF92CF92DF92EF92FF920F930C
:102F10001F93CF93DF93CDB7DEB761970FB6F894C9
:102F2000DEBF0FBECDBF7C0185E0F701DE011D963F
:102F300001900D928A95E1F7D7014C9111965C9121
:102F400011971296DC90129713960D911C9114977D
:102F50003091A5016091A6018091A8019091A901ED
:102F6000009731F06F3F31F421E03F3F19F403C087
:102F700021E001C020E0B22FB170BB2E20FD6EC158
:102F8000A090A701AA2009F4CCC02091AA0108179B
:102F9000190728F0F801E81BF90BCF0104C0809550
:102FA0009095800F911FCC24C394883C910580F0AC
:102FB000C12C207F09F0A1C0702F198B088B6D2DBB
:102FC00089890E94CB1685EA91E00E94FF12BDC05C
:102FD000822F807F09F056C0561315C0431313C0CB
:102FE000CD2CD11010C02F7020612093AA010E9417
:102FF0000B1785EA91E00E94FF128091AA01D70188
:1030000015968C935FC10115110531F05F3F31F4C6
:1030100081E04F3F19F403C081E001C080E080FDF2
:1030200003C081E08D2502C080E090E0B82FB17030
:10303000CB2E80FF1CC0809173012091740136E07B
:10304000821709F41CC190E0389FF001399FF00D00
:103050001124EB58FE4F6181561306C06081461360
:1030600003C06281D61203C001968770E9CFCD2CD0
:10307000DD2009F427C18091AA0181608093AA0113
:10308000C12C20C1561308C0431306C0D11004C080
:103090008091AA01D701B6C04D875E87DF86702F69
:1030A000198B088B6D2D89890E946D16882399F1E3
:1030B000DD2089F12091AA01822F82958F7090E006
:1030C000029774F08091A5019091A60198878F8353
:1030D00019861B870A872C87CE0107960E94FF124C
:1030E00086E0F701A5EAB1E001900D928A95E1F73B
:1030F0000E9419170E940B1711C0561781F14D87B6
:103100005E87DF86702F198B088B6D2D89890E9451
:103110006D16811138C0C7010E94FF12CC24C394E0
:10312000D1C00817190708F446C0F801E81BF90BCD
:10313000CF01883C910508F443C0C12C702F198B36
:10314000088B6D2D89890E94CB16E5EAF1E086E0B7
:10315000DF011D928A95E9F70E940B17B3C0431354
:10316000CECFD110CCCF8091AA01F7018583C701C2
:103170000E94FF1286E0E5EAF1E0DF011D928A95E8
:10318000E9F7CA2C9FC0DD2031F22091AA01822FDD
:1031900082958F7090E002970CF4A2CF8091A501E8
:1031A0009091A6019A8389831B821D830C832E83B1
:1031B000CE01019693CF80959095800F911FB9CF46
:1031C000CD2CDD2009F4A7CF561333C0431331C0F3
:1031D0002091AA0120FD24C0822F82958F70482F54
:1031E00050E041155105E1F0D70115962C93159744
:1031F0004F30510549F08F5F982F9295907F822F25
:103200008F70892B15968C93C7010E94FF1286E060
:10321000F701A5EAB1E001900D928A95E1F79CCF04
:1032200086E0F701A5EAB1E001900D928A95E1F7F9
:1032300049C04D875E87DF86702F198B088B6D2DF7
:1032400089890E946D1681114BCF8091AA018160FE
:103250008093AA01C7010E94FF1234C0DD2009F447
:103260005ACF4D875E87DF86702F198B088B6D2DA7
:1032700089890E946D16882309F44DCF31CF702FB4
:10328000198B088B6D2D89890E94D81B292F2295B7
:103290002F70223028F49F7039F0811105C00BC0C7
:1032A000243028F49F7049F4805E883020F0C701F4
:1032B0000E94FF12BC2CCB2C05C0F7019581907F9A
:1032C00099F7F9CF8C2D61960FB6F894DEBF0FBE3B
:1032D000CDBFDF91CF911F910F91FF90EF90DF90C5
:1032E000CF90BF90AF9008951F93CF93DF93CDB74A
:1032F000DEB72C970FB6F894DEBF0FBECDBF4F835D
:10330000588769877A878B879C87CE0107960E94AA
:1033100081178823D1F09F8188852A853B85232BBF
:1033200031F08F3F31F481E09F3F19F403C081E019
:1033300001C080E080FD47C04F81588569857A854E
:103340008B859C850E94DA163EC086E0FE0137968A
:10335000DE01119601900D928A95E1F7FF81E885D3
:103360006A857B856115710531F0EF3F31F481E0AD
:10337000FF3F19F403C081E001C080E080FD23C05D
:103380002091740130E0C90101968770992740911E
:10339000730150E084179507F1F1F983EA837D8387
:1033A0006C8396E0929FD001939FB00D1124AB588F
:1033B000BE4FFE01319601900D929A95E1F78093F0
:1033C00074010E94EA1616E08091730190917401D5
:1033D000891771F1189FC00111248B589E4F0E94CC
:1033E0008117882329F1E09173011E9FF0011124B8
:1033F000EB58FE4F408151816281738184819581B8
:103400000E94DA168091730190E0019687709927E7
:1034100080937301D9CF0E946916109274011092A3
:103420007301E5EAF1E086E0DF011D928A95E9F794
:103430002C960FB6F894DEBF0FBECDBFDF91CF91B3
:103440001F910895DF92EF92FF920F931F93CF93F6
:10345000DF93FC01892B09F488C0E12CF12CDD24D9
:10346000D394EF0121968491853709F460C058F414
:10347000843708F04EC0843008F068C08130D1F045
:10348000823071F172C0883709F45BC050F486371E
:1034900009F453C0873709F068C08E2D0E940E1DB5
:1034A00052C09CE7980F903708F05FC08F770E945A
:1034B00087124EC08F010E5F1F4FFE01849190E274
:1034C000980F983050F48770FD2D01C0FF0F8A953A
:1034D000EAF78F2F0E94141D15C00E94991114C085
:1034E0008F010E5F1F4FFE01849190E2980F98307C
:1034F00068F48770FD2D01C0FF0F8A95EAF78F2FC2
:103500000E941A1D0E943B1DE80122C00E948712E2
:10351000FBCFCF010296FE01C491CC2361F0EFE90D
:10352000FFE03197F1F700C00000C150F6CFCF01A6
:103530000296FE01F490EC010BC00E94FE1CE82EE6
:1035400007C00E94111D0E943B1D02C00E949911DC
:103550008F2D882341F0EFE9FFE03197F1F700C0AC
:1035600000008150F6CFFE017CCFDF91CF911F91FB
:103570000F91FF90EF90DF9008956093BB017093DF
:10358000BC018093BD019093BE010C949C1D0895D5
:103590006093BF017093C0018093C1019093C201F9
:1035A0000C949B1D0F931F930091BF011091C001BC
:1035B0002091C1013091C201602B712B822B932B82
:1035C0006093BF017093C0018093C1019093C201C9
:1035D0001F910F910C949B1D0F931F930091BF019E
:1035E0001091C0012091C1013091C201602371236B
:1035F000822393236093BF017093C0018093C10124
:103600009093C2011F910F910C949B1D0F931F93D8
:103610000091BF011091C0012091C1013091C20100
:1036200060277127822793276093BF017093C001A1
:103630008093C1019093C2011F910F910C949B1D27
:1036400060E070E0CB010C94BD1A0F931F9341E032
:1036500050E060E070E08A019B0104C0000F111F80
:10366000221F331F8A95D2F7C901B8011F910F910C
:103670000C94BD1A0F931F9341E050E060E070E09E
:1036800004C0440F551F661F771F8A95D2F780919B
:10369000BB019091BC01A091BD01B091BE018A0116
:1036A0009B01082B192B2A2B3B2BC901B8011F9119
:1036B0000F910C94BD1A0F931F9341E050E060E00E
:1036C00070E004C0440F551F661F771F8A95D2F71C
:1036D00040955095609570958091BB019091BC018B
:1036E000A091BD01B091BE018A019B01082319235D
:1036F0002A233B23C901B8011F910F910C94BD1AD5
:103700000F931F9341E050E060E070E004C0440F6D
:10371000551F661F771F8A95D2F78091BB01909144
:10372000BC01A091BD01B091BE018A019B01082797
:1037300019272A273B27C901B8011F910F910C9423
:10374000BD1A0F931F930091BB011091BC012091F2
:10375000BD013091BE01602B712B822B932B1F91E9
:103760000F910C94BD1A0F931F930091BB01109100
:10377000BC012091BD013091BE01602371238223E1
:1037800093231F910F910C94BD1A0F931F930091D7
:10379000BB011091BC012091BD013091BE01602799
:1037A0007127822793271F910F910C94BD1A0895BA
:1037B0008F929F92AF92BF92DF92EF92FF920F9300
:1037C0001F93CF93DF9300D000D01F92CDB7DEB709
:1037D0006B837C838D838A018C819D81892B31F061
:1037E0001F3F31F481E04F3F19F403C081E001C075
:1037F00080E080FF03C080E090E04DC08B81882393
:10380000D1F18090BB019090BC01A090BD01B0901F
:10381000BE018091BF019091C001A091C101B09102
:10382000C201882A992AAA2ABB2A8FE1E82EF12C04
:10383000D501C4010E2C04C0B695A7959795879520
:103840000A94D2F780FD06C081E0E81AF10880F7FB
:10385000D12C07C0DE2CB8018E2D0E94501F01977D
:1038600099F384E0189FF0011124E555FE4FE00F15
:10387000F11DD08209C084E0189FF0011124E555A4
:10388000FE4FE00FF11DD08009831A8369817A8190
:103890008D2D0E94501F0F900F900F900F900F9042
:1038A000DF91CF911F910F91FF90EF90DF90BF902C
:1038B000AF909F908F90089590910B01992379F18B
:1038C00090910C01992359F1982F9695969596957C
:1038D0009F31A1F0E0910D01F0910E01E90FF11D72
:1038E000877021E030E0A90102C0440F551F8A957E
:1038F000E2F7CA019181892B818308959091E601B5
:1039000090FF29C01F928F938FEA93E09F938F932C
:103910000E94F1060F900F900F900F900895209144
:103920000D0130910E01F90132969FEF40E0519167
:10393000851789F09F3F19F4511101C0942F4F5FF3
:103940004E31A9F79F3F39F0F901E90FF11D97FDBD
:10395000FA9582830895089590910B01992381F13E
:1039600090910C01992361F1982F969596959695D3
:103970009F31A9F0E0910D01F0910E01E90FF11DC9
:10398000877021E030E0A90102C0440F551F8A95DD
:10399000E2F7CA01809591818923818308959091EE
:1039A000E60190FF1CC01F928F9381E993E09F93E3
:1039B0008F930E94F1060F900F900F900F90089533
:1039C000E0910D01F0910E019F01225E3F4F928127
:1039D000891301C012823196E217F307C1F70895E7
:1039E00081E090E0E0910D01F0910E01E80FF91FE8
:1039F0001082019680329105A9F708958091E50122
:103A000008959091E501892B8093E50108958095B3
:103A10009091E50189238093E50108958093E50164
:103A200008951092E50108959091E401892B809307
:103A3000E401089580959091E40189238093E40145
:103A400008951092E40108958093C301089510929F
:103A5000C301089580910D0190910E01FC013196F2
:103A60009C01205E3F4F80E0919191118F5FE217A2
:103A7000F307D1F70895E0910D01F0910E018091C7
:103A8000E5018083E0910D01F0910E01908180911C
:103A9000E401892B80838091C301882361F0E09148
:103AA0000D01F0910E019081892B80830E942A1DC7
:103AB00081111092C30180910D0190910E010C941F
:103AC000F20F909339018093380108958295982FD1
:103AD000937344E0949F900111248C7C8695869585
:103AE000282B822F8575880F2A7A2695822B089598
:103AF000CF93DF93D92F0E94661DC82F8D2F0E9470
:103B0000661D2C2F30E0322F2227A901482BCA0135
:103B1000DF91CF9108950895CF93DF9300D000D027
:103B20001F92CDB7DEB70F900F900F900F900F90B0
:103B3000DF91CF910895089508950C944D11089543
:103B40008091FB01843021F11092E70120E488E1AB
:103B500090E00FB6F894A895809360000FBE209374
:103B6000600083B7817F846083BF83B7816083BF38
:103B70007894889583B78E7F83BF0FB6F894A89505
:103B800080916000886180936000109260000FBE99
:103B90000895CF930E9451110E942B070E94521149
:103BA000C0E08C2F0E94C207811104C0CF5FC430D7
:103BB000C1F701C081E0CF9108950E944F110E948A
:103BC00069160C94BF291F920F920FB60F92112401
:103BD0008F939F93AF93BF938091E701811113C09F
:103BE0008091E8019091E901A091EA01B091EB0187
:103BF0004196A11DB11D8093E8019093E901A09326
:103C0000EA01B093EB01BF91AF919F918F910F901B
:103C10000FBE0F901F90189582E084BD93E095BD74
:103C20009AEF97BD80936E0008952FB7F894809116
:103C3000E8019091E901A091EA01B091EB012FBF59
:103C400008952FB7F8946091E8017091E90180918F
:103C5000EA019091EB012FBF0895CF92DF92EF928E
:103C6000FF920F931F932FB7F8944091E801509162
:103C7000E9016091EA017091EB012FBF6A017B01BC
:103C8000EE24FF248C0120E030E0C016D106E206CD
:103C9000F30610F4415051099A01281B390BC90150
:103CA0001F910F91FF90EF90DF90CF9008951F929A
:103CB0000F920FB60F9211248F939F93AF93BF93E0
:103CC0008091E8019091E901A091EA01B091EB01A6
:103CD0000196A11DB11D8093E8019093E901A09385
:103CE000EA01B093EB01BF91AF919F918F910F903B
:103CF0000FBE0F901F9018950E94FA0CF8942FEFAA
:103D000087EA91E6215080409040E1F700C0000032
:103D100087E090EBDC018093060290930702A0936A
:103D20000802B09309029CE088E10FB6F894A895C8
:103D3000809360000FBE90936000FFCF8D3B60F4D6
:103D4000883A90F5853A28F5843008F5813009F0F5
:103D500086C081E090E00895883E98F4803EB8F4F3
:103D60008F3B09F07CC00E9469162FEF80E792E03C
:103D7000215080409040E1F700C000000E947C1E6E
:103D80006EC0803F08F46BC090E09065089590E0AD
:103D90000895853A21F0863A21F033E803C031E8EE
:103DA00001C032E820E458C0883A51F1893A59F10B
:103DB0008A3A59F18B3A59F18C3A59F18D3A59F1C5
:103DC0008E3A59F18F3A59F1813B59F1803B59F1C3
:103DD000823B59F1833B59F1843B59F1853B59F1C1
:103DE000863B61F1873B61F1883B61F1893B61F181
:103DF0008A3B61F18B3B61F18C3B61F130E001C0AA
:103E000032EE24E429C039EEFCCF3AEEFACF35EB9E
:103E1000F8CF36EBF6CF33EBF4CF34EBF2CF37EB12
:103E2000F0CF3CECEECF3DECECCF33E805C03AE808
:103E300003C032E901C034E925E40EC031E20BC011
:103E400033E209C034E207C035E205C036E203C000
:103E500037E201C03AE226E4832F922F089580E0F2
:103E600090E0089580E090E008950895E72FF0E055
:103E700094E0899FE00DF11D1124EE0FFF1FEE0F5E
:103E8000FF1FE60FF11DE451FF4F84910895E82FC5
:103E9000F0E0EE0FFF1FE05AF040859194910895F5
:103EA0000E94361F803EA8F4803C00F5813309F45F
:103EB0005CC038F4893209F452C08A3209F45BC01C
:103EC0005FC08933B1F08238A1F0853309F441C075
:103ED00057C0833E41F128F4803E99F0823EB9F00C
:103EE0004FC0863E31F1873E71F14AC00E94471FA4
:103EF00008959091040290FD02C091FF41C080EEB0
:103F00003FC08091040280FFFACF89E339C08091DD
:103F1000040282FF0CC08091040284FF02C080E092
:103F20002FC083EE2DC08091040282FFF4CF82EE79
:103F300027C08091040283FF0AC08091040284FD9F
:103F4000EECF87EE1DC08091040283FFF6CF86EE90
:103F500017C08091040285FF06C089E211C08091DC
:103F6000040285FFFACF85E30BC08091040286FF2F
:103F700006C08AE205C08091040286FFFACF81E381
:103F80000E949E1E0895CF92DF92EF92FF920F93B0
:103F90001F93CF936C01C0E08C2F0E94C20700E0FA
:103FA00010E0E82EF12CC701002E02C095958795F0
:103FB0000A94E2F780FF15C0602F7C2F80E00E94FA
:103FC000501F8C159D0559F0292F207E392F307CEC
:103FD00011F0203A31F490E0C816D90611F481E0CE
:103FE00009C00F5F1F4F04301105E9F6CF5FC430E1
:103FF00099F680E0CF911F910F91FF90EF90DF90A5
:10400000CF900895CF93DF93EC018CE290E00E9473
:10401000C31F882329F0CE01DF91CF910C94C31FD9
:1040200080E0DF91CF910895CF930E94812181118B
:1040300002C00E94622184ED93E00E945806C5E60A
:10404000C15049F00E942B078FE39CE90197F1F7DB
:1040500000C00000F5CF8DEC93E00E94580689E285
:1040600090E00E94022081112BC18AE290E00E9420
:10407000022081110E94622185E090E00E940220CE
:1040800081110E947C1E0E949F1D0E948C218093A2
:10409000E60187E090E00E9402208823C1F18BE1D5
:1040A00090E00E940220882351F08091E60181FB7C
:1040B000222720F991E0922790FB81F90FC08EE032
:1040C00090E00E940220882361F08091E60182FB4B
:1040D000222720F991E0922790FB82F98093E60154
:1040E00016C080E190E00E9402209091E6018823B2
:1040F00041F093FB222720F981E0822780FB93F98E
:1041000004C0892F809580FB90F99093E6018091FF
:10411000E6010E9490210E949E218093040280EE7D
:1041200090E00E940220882341F080910402982FA1
:10413000909590FB80F98093040289E390E00E94BF
:104140000220882359F08091040281FB222720F964
:1041500091E0922790FB81F98093040282EE90E037
:104160000E940220882359F08091040282FB2227BA
:1041700020F991E0922790FB82F98093040286EE69
:1041800090E00E940220882359F08091040283FB72
:10419000222720F991E0922790FB83F98093040273
:1041A00083EE90E00E940220882359F0809104025F
:1041B00084FB222720F991E0922790FB84F98093D9
:1041C000040285E390E00E940220882359F0809148
:1041D000040285FB222720F991E0922790FB85F9C4
:1041E0008093040281E390E00E940220882359F02A
:1041F0008091040286FB222720F991E0922790FB10
:1042000086F98093040281E190E00E9402208823D5
:1042100059F08091040287FB222720F991E0922730
:1042200090FB87F980930402809104020E94A221EE
:104230008091040287FB882780F980930C0187E234
:1042400090E00E940220C82F8EE190E00E940220A0
:104250008111C2608FE190E00E9402208111C46050
:1042600080E290E00E9402208111C86081E290E02B
:104270000E9402208111C06182E290E00E9402202F
:104280008111C06283E290E00E9402208111C0642B
:1042900084E290E00E940220882311F0C06802C0EE
:1042A000CC2329F08C2F0E9499216C2F03C00E94EF
:1042B0009521682F70E080E090E0CF910C94C81AAF
:1042C000CF9108956DEE7EEF80E090E00E94232C68
:1042D00060E082E090E00E94152C60E083E090E0D6
:1042E0000E94152C60E084E090E00E94152C60E0B4
:1042F00085E090E00E94152C60E086E090E00C9450
:10430000152C80E090E00E940F2C21E08D3E9E4F06
:1043100009F020E0822F089582E090E00C94072CB1
:10432000682F82E090E00C94152C83E090E00C94D0
:10433000072C682F83E090E00C94152C84E090E02B
:104340000C94072C682F84E090E00C94152C86E0E8
:1043500090E00C94072C682F86E090E00C94152CCC
:104360008091EE0180FF0BC06091120185E0689F93
:10437000B001112475956795759567952BC081FFE0
:1043800009C06091120185E0689FB0011124759504
:10439000679520C082FF07C06091120185E0689F89
:1043A000B001112417C09091EF019923D1F06091D1
:1043B0001101961788F72091120185E0289F90013E
:1043C0001124929FA001939F500D112470E0CA0107
:1043D0000E94D92B6038710540F46115710519F4FC
:1043E00006C065E070E0862F08958FE7089581E0AC
:1043F00008958091EE0180FF08C06091100170E087
:10440000759567957595679521C081FF06C0609188
:10441000100170E07595679519C082FF04C0609126
:10442000100170E010C09091EF01992399F0609114
:104430000F019617A0F780911001899FC0011124E8
:1044400070E00E94D92B6038710540F46115710548
:1044500019F406C061E070E0862F08958FE7089593
:1044600081E00895803F21F40E94B021819504C02D
:10447000813F29F40E94B0218093F2010895823F88
:1044800021F40E94B021819504C0833F29F40E9449
:10449000B0218093F1010895893F19F40E94F92118
:1044A00005C08A3F31F40E94F92181958093F30180
:1044B00008958B3F21F40E94F921819504C08C3F1F
:1044C00029F40E94F9218093F4010895843F21F496
:1044D0008091F001816017C0853F21F48091F00147
:1044E000826011C0863F21F48091F00184600BC08E
:1044F000873F21F48091F001886005C0883F31F446
:104500008091F00180618093F00108958D3F21F446
:104510008091EE0181600BC08E3F21F48091EE010D
:10452000826005C08F3F29F48091EE018460809302
:10453000EE010895803F39F48091F20187FF6CC04D
:104540001092F20169C0813F29F48091F20118169E
:10455000BCF362C09091F101823F29F497FF5CC0E7
:104560001092F10159C0833F19F41916CCF354C0CD
:10457000893F41F48091F30118160CF04DC0109260
:10458000F3014AC08A3F29F48091F30187FF44C0B8
:10459000F6CF8B3F39F48091F40187FF3DC0109234
:1045A000F4013AC08C3F29F48091F4011816BCF351
:1045B00033C0843F21F48091F0018E7F17C0853F86
:1045C00021F48091F0018D7F11C0863F21F480910C
:1045D000F0018B7F0BC0873F21F48091F001877F32
:1045E00005C0883F31F48091F0018F7E8093F00107
:1045F00013C08D3F21F48091EE018E7F0BC08E3F62
:1046000021F48091EE018D7F05C08F3F29F48091C8
:10461000EE018B7F8093EE018091F10181110EC03C
:104620008091F20181110AC08091F301811106C0CD
:104630008091F401811102C01092EF0108958091E0
:10464000E60183FF7EC080E194E00E9458068091DD
:10465000F0011F928F938BE094E09F938F930E94C1
:10466000F10689E094E00E9458068091F101282F1C
:10467000082E000C330B3F938F9386E094E09F93BA
:104680008F930E94F10684E094E00E945806809186
:10469000F201282F082E000C330B3F938F9381E0FB
:1046A00094E09F938F930E94F1068FEF93E00E9416
:1046B00058068091F301282F082E000C330B3F93EE
:1046C0008F938CEF93E09F938F930E94F1068AEF74
:1046D00093E00E9458068091F401282F082E000CC8
:1046E000330B3F938F9387EF93E09F938F930E94B9
:1046F000F10684EF93E00E9458068091EF011F922B
:104700008F9381EF93E09F938F930E94F1068FEE3A
:1047100093E00E9458068091EE011F928F938CEED9
:1047200093E09F938F930E94F10689EE93E00E949D
:1047300058068DB79EB74C960FB6F8949EBF0FBE25
:104740008DBF80EF91E00E943B100E94151E909358
:10475000ED018093EC0108951F93CF93DF93809137
:10476000EC019091ED010E942D1EAC019091EF01A2
:10477000992321F02091130130E006C0209114010B
:104780008AE0289F900111244217530708F485C03E
:104790008091F101C091F201D091F3011091F401E7
:1047A000811107C0C11175C0D11173C0111171C041
:1047B00074C09F3F19F09F5F9093EF01181624F487
:1047C0000E94B0218093F1018091F10187FF05C023
:1047D0000E94B02181958093F1011C1624F40E945F
:1047E000B0218093F2018091F20187FF05C00E9401
:1047F000B02181958093F2016091F101662331F13E
:10480000C091F201CC2311F1062E000C770B880B1E
:10481000990B0E94D42A23E333E343E35FE30E942E
:10482000382B0E949C2A6093F1016C2FCC0F770BE0
:10483000880B990B0E94D42A23E333E343E35FE31D
:104840000E94382B0E949C2A6093F2011D1624F4CA
:104850000E94F9218093F3018091F30187FF05C045
:104860000E94F92181958093F301111624F40E948E
:10487000F9218093F4018091F40187FF05C00E9423
:10488000F92181958093F401DF91CF911F910C94D0
:104890001F239F3F09F08FCFA0CFDF91CF911F91B2
:1048A0000895E0EFF1E085E0DF011D928A95E9F7D8
:1048B0001092EF011092EE01089583E396E00E94BA
:1048C00058061F9281E08F931F9285E08F9385EEAB
:1048D00095E09F938F930E94F1060F900F900F9099
:1048E0000F900F900F9008958330E9F128F48130F4
:1048F00061F0823009F10895853009F462C008F44E
:1049000049C0863009F474C0089580911401262F9F
:1049100030E0280F311D2F3F310524F4680F6093DC
:10492000140103C08FEF80931401809114011F9232
:104930008F938EE195E072C080911301262F30E0B5
:10494000280F311D2F3F310524F4680F60931301A8
:1049500003C08FEF80931301809113011F928F93F7
:104960008CE095E05BC080911201262F30E0280F8B
:10497000311D2F3F310524F4680F6093120103C0ED
:104980008FEF80931201809112011F928F9389EF14
:1049900094E044C080911101262F30E0280F311D92
:1049A0002F3F310524F4680F6093110103C08FEF8E
:1049B00080931101809111011F928F9384EE94E0F6
:1049C0002DC080911001262F30E0280F311D2F3F80
:1049D000310524F4680F6093100103C08FEF8093BA
:1049E0001001809110011F928F938BEC94E016C000
:1049F00080910F01262F30E0280F311D2F3F310508
:104A000024F4680F60930F0103C08FEF80930F01B0
:104A100080910F011F928F9380EB94E09F938F936F
:104A20000E94F1060F900F900F900F900895833021
:104A300081F128F4813059F08230D1F00895853029
:104A400009F449C0B8F1863009F456C00895809140
:104A50001401681720F4861B8093140102C0109281
:104A60001401809114011F928F9381EA94E054C045
:104A700080911301681720F4861B8093130102C0F4
:104A800010921301809113011F928F938FE894E08D
:104A900043C080911201681720F4861B8093120195
:104AA00002C010921201809112011F928F938CE725
:104AB00094E032C080911101681720F4861B809326
:104AC000110102C010921101809111011F928F9368
:104AD00087E694E021C080911001681720F4861BBE
:104AE0008093100102C010921001809110011F925A
:104AF0008F938EE494E010C080910F01681720F42A
:104B0000861B80930F0102C010920F0180910F014C
:104B10001F928F9383E394E09F938F930E94F106FB
:104B20000F900F900F900F900895CF93C82F1F9262
:104B30008F9388E397E09F938F930E94F10681E023
:104B400090E0A0E0B0E0BC01CD0104C0660F771F8B
:104B5000881F991FCA95D2F70E94C81A0F900F900C
:104B60000F900F90CF910C946916CF938B3109F46D
:104B700009C208F049C08E3009F418C200F5873028
:104B800009F4E7C1A8F4863009F098C28091E601E3
:104B9000817F8E7F8093E6018DE397E00E94580627
:104BA0008CE99BE00E94580681E08093F601CFC11A
:104BB000883009F45BC08B3009F4C5C17FC28131F4
:104BC00009F464C220F4803109F404C277C286314A
:104BD00009F41BC2893109F071C280E19BE00E9497
:104BE00058068BEE9AE00E94580687EB9AE00E94E6
:104BF00058068AE89AE00E94580685E49AE00E94E6
:104C000058068AE19AE0A1C1853309F451C268F4DB
:104C1000873209F44DC228F48E3108F44FC28D5109
:104C20004AC2893209F444C249C2833438F48A330F
:104C300008F040C2883309F486C140C2833409F4C5
:104C400037C2883409F03AC20E9469168BE89BE0AB
:104C50000E9458069FEF23ED80E391502040804052
:104C6000E1F700C000000E947C1E71C180EA9BE059
:104C70000E94580687E799E00E9458060E949521F5
:104C80001F928F9384E799E09F938F930E94F10680
:104C900082E799E00E9458060E948C21C82F8FE578
:104CA00099E00E9458061F92CF938AE599E09F935E
:104CB0008F930E94F10688E599E00E9458068EE4E1
:104CC00099E00E9458068C2F81701F928F938BE47D
:104CD00099E09F938F930E94F10689E499E00E94E6
:104CE00058068FE399E00E945806C1FB882780F997
:104CF0001F928F938CE399E09F938F930E94F1060C
:104D00008AE399E00E9458068EE299E00E945806D4
:104D1000C2FB882780F91F928F938BE299E09F93C3
:104D20008F930E94F10689E299E00E94580680E282
:104D300099E00E945806C3FBCC27C0F91F92CF937D
:104D40008DE199E09F938F930E94F1068BE199E0AA
:104D50000E9458060E949E21C82F87E099E00E9479
:104D600058061F92CF9382E099E09F938F930E9401
:104D7000F10680E099E00E94580687EE98E00E94D4
:104D800058068C2F81701F928F9384EE98E09F932A
:104D90008F930E94F1068DB79EB780960FB6F89458
:104DA0009EBF0FBE8DBF82EE98E00E9458068BEC2E
:104DB00098E00E945806C1FB882780F91F928F93C4
:104DC00088EC98E09F938F930E94F10686EC98E020
:104DD0000E94580684EB98E00E945806C2FB882780
:104DE00080F91F928F9381EB98E09F938F930E949D
:104DF000F1068FEA98E00E9458068DE998E00E943B
:104E00005806C3FB882780F91F928F938AE998E0A0
:104E10009F938F930E94F10688E998E00E945806BC
:104E20008EE898E00E945806C4FB882780F91F92FC
:104E30008F938BE898E09F938F930E94F10689E807
:104E400098E00E94580687E798E00E945806C5FB44
:104E5000882780F91F928F9384E798E09F938F9320
:104E60000E94F10682E798E00E94580686E598E0E5
:104E70000E945806C6FB882780F91F928F9383E50E
:104E800098E09F938F930E94F10681E598E00E943D
:104E9000580689E498E00E945806C7FBCC27C0F961
:104EA0001F92CF9386E498E09F938F930E94F10620
:104EB00084E498E00E9458060E94A721C82F8DE242
:104EC00098E00E9458061F92CF9388E298E09F9343
:104ED0008F930E94F1068DB79EB780960FB6F89417
:104EE0009EBF0FBE8DBF86E298E00E9458068CE1FF
:104EF00098E00E9458068C2F81701F928F9389E151
:104F000098E09F938F930E94F10687E198E00E94BA
:104F100058068EE098E00E945806C6951F92CF93DF
:104F20008BE098E09F938F930E94F10689E098E0D0
:104F30000E9458068DB79EB708960FB6F8949EBF8C
:104F40000FBE8DBF04C084E697E00E945806C1E002
:104F5000BAC08091E601C82FC17080FF09C08EE7FA
:104F60009BE00E9458068091E601817F8E7F47C0BA
:104F700082E79BE00E9458068091E6018160809361
:104F8000E601E5CF9091E60191FBCC27C0F981E0E5
:104F9000C827892FC0FB81F98093E601CC2319F043
:104FA00085E69BE027C087E59BE0CFCF9091E601A7
:104FB00092FBCC27C0F981E0C827892FC0FB82F97A
:104FC0008093E601CC2319F088E49BE013C088E3CA
:104FD0009BE0BBCF9091E60193FBCC27C0F981E029
:104FE000C827892FC0FB83F98093E601CC2351F0B9
:104FF0008CE29BE00E9458068091E60181608093DC
:10500000E60161C08FE19BE0A0CF8CE09AE00E94B6
:1050100058060E94E60F1F928F9382EF99E09F93AC
:105020008F930E94F10680910B011F928F938BED5D
:1050300099E09F938F930E94F106809167011F92E0
:105040008F9388EC99E09F938F930E94F106809153
:105050000C011F928F9385EB99E09F938F930E9491
:10506000F1060E94211E9F938F937F936F938EE989
:1050700099E09F938F930E94F1068DB79EB7469655
:105080000FB6F8949EBF0FBE8DBF61CF0E94691608
:10509000C0910C0181E0C827C0930C01CC2329F0FA
:1050A00084E999E00E9458060EC089E899E04DCF46
:1050B00080E001C089530E94952549CF87E899E097
:1050C0000E945806C0E08C2FCF91089580E008958B
:1050D0000C946628CF93C82F8091F601813071F02F
:1050E00020F0823009F44BC042C1E0910D01F091F3
:1050F0000E018081823209F03CC107C0E0910D01B0
:10510000F0910E018081823261F48C2F0E94682818
:10511000811104C08C2F0E94B5252FC081E090E042
:105120002CC08C2F0E946628811126C0C431E1F06A
:1051300070F4CB3081F0C031D1F40E945D2480E363
:1051400097E00E94580682E08093F60115C0C932AC
:1051500059F0C83361F48DE397E00E94580684E368
:1051600097E00E94580608C01092F60104C18EE232
:1051700097E00E945806FFC081E08170FEC0C432F3
:1051800028F5CE3108F0C1C0CB30A1F1D0F4C73042
:1051900009F0D3C08EE18093140182E38093130160
:1051A0008AE08093120184E18093110188E080936A
:1051B000100188E280930F0184ED95E00E9458066B
:1051C000BFC0C33149F1C431C1F0B7C0CB3409F419
:1051D000A9C028F4C93289F0C83361F0AEC0C13526
:1051E00009F49EC0C23509F499C0CE3409F0A5C0B7
:1051F0006AE09EC00E945D24A3C08091F5018823CF
:1052000019F01092F5019CC081EE95E00E945806BD
:1052100081E08093F601B1C08BEB95E00E945806C7
:1052200089EA95E00E945806809114011F928F939D
:1052300086EA95E09F938F930E94F10684EA95E0B9
:105240000E94580682E995E00E9458068091130159
:105250001F928F938FE895E09F938F930E94F106A2
:105260008DE895E00E9458068EE795E00E9458066A
:10527000809112011F928F938BE795E09F938F93FC
:105280000E94F10689E795E00E94580688E695E0BD
:105290000E945806809111011F928F9385E695E038
:1052A0009F938F930E94F10683E695E00E94580633
:1052B0008EE495E00E945806809110011F928F9312
:1052C0008BE495E09F938F930E94F10689E495E02B
:1052D0000E94580682E395E00E94580680910F01D3
:1052E0001F928F938FE295E09F938F930E94F10618
:1052F0008DE295E00E9458068DB79EB748960FB68E
:10530000F8949EBF0FBE8DBF1BC0CE51EC2FF0E0B6
:10531000E25DFE4F80818093F50112C061E003C021
:1053200061E006C06AE08091F5010E94742408C023
:105330008091F5010E94172503C082ED95E013C00E
:105340008091F501882369F01F928F938CEC95E092
:105350009F938F930E94F1060F900F900F900F90E4
:1053600004C089EC95E00E94580681E006C01092C6
:10537000F60180E002C080E000CFCF9108950E9446
:105380008121811102C00E9462210E94A721809385
:10539000050280FF02C0869501C080E00C940F08D2
:1053A00080910502982F969539F481708260816012
:1053B000809305020E94AB218091E60180FF0FC01F
:1053C0008091050286951F928F938DEE9BE09F93AF
:1053D0008F930E94F1060F900F900F900F90809185
:1053E000050286950C940F0880910502982F9695DA
:1053F00091F09158990F8170892B809305028E7FCF
:1054000091E009F490E08091050290FB80F980938F
:1054100005020E94AB218091E60180FF0FC08091C0
:10542000050286951F928F9385ED9BE09F938F9346
:105430000E94F1060F900F900F900F90809105023F
:1054400086950C940F0880910502982F909590FBFB
:1054500080F9809305020E94AB218091E60180FFD4
:105460000FC08091050281701F928F938FEB9BE09C
:105470009F938F930E94F1060F900F900F900F90C3
:105480008091050280FF02C0869501C080E00C94E7
:105490000F0890910502892F86958F5F8F77917005
:1054A000823028F4880F892B8093050202C09093E4
:1054B0000502809105028E7F91E009F490E08091D1
:1054C000050290FB80F9809305020E94AB21809138
:1054D000E60180FF0FC08091050286951F928F9391
:1054E0008BEA9BE09F938F930E94F1060F900F90A1
:1054F0000F900F908091050286950C940F082091D3
:105500000502922F96958927982F990F822F8170E7
:10551000892B809305028E7F91E009F490E08091C1
:10552000050290FB80F9809305020E94AB218091D7
:10553000050286950C940F080E94A32A6894B11165
:105540000C94322B08950E94172B88F09F5798F0E7
:10555000B92F9927B751B0F0E1F0660F771F881F78
:10556000991F1AF0BA95C9F714C0B13091F00E9492
:10557000312BB1E008950C94312B672F782F8827B9
:10558000B85F39F0B93FCCF3869577956795B395B9
:10559000D9F73EF490958095709561957F4F8F4F28
:1055A0009F4F0895E89409C097FB3EF4909580952D
:1055B000709561957F4F8F4F9F4F9923A9F0F92FD9
:1055C00096E9BB279395F695879577956795B79557
:1055D000F111F8CFFAF4BB0F11F460FF1BC06F5F3D
:1055E0007F4F8F4F9F4F16C0882311F096E911C04F
:1055F000772321F09EE8872F762F05C0662371F070
:1056000096E8862F70E060E02AF09A95660F771F83
:10561000881FDAF7880F9695879597F9089557FDB3
:105620009058440F551F59F05F3F71F04795880F10
:1056300097FB991F61F09F3F79F0879508951216A7
:1056400013061406551FF2CF4695F1DF08C0161653
:1056500017061806991FF1CF869571056105089404
:105660000895E894BB2766277727CB0197F908951B
:105670000E944B2B0C94BC2B0E94AE2B38F00E9446
:10568000B52B20F0952311F00C94A52B0C94AB2B8B
:1056900011240C94322B0E940F2B70F3959FC1F3B1
:1056A000950F50E0551F629FF001729FBB27F00DD0
:1056B000B11D639FAA27F00DB11DAA1F649F662725
:1056C000B00DA11D661F829F2227B00DA11D621F74
:1056D000739FB00DA11D621F839FA00D611D221F2E
:1056E000749F3327A00D611D231F849F600D211D12
:1056F000822F762F6A2F11249F5750409AF0F1F095
:1057000088234AF0EE0FFF1FBB1F661F771F881FFD
:1057100091505040A9F79E3F510580F00C94A52B65
:105720000C94322B5F3FE4F3983ED4F38695779543
:105730006795B795F795E7959F5FC1F7FE2B880FA3
:10574000911D9695879597F9089597F99F6780E839
:1057500070E060E008959FEF80EC089500240A94C3
:105760001616170618060906089500240A9412163C
:105770001306140605060895092E0394000C11F46F
:10578000882352F0BB0F40F4BF2B11F460FF04C01C
:105790006F5F7F4F8F4F9F4F0895991B79E004C033
:1057A000991F961708F0961B881F7A95C9F7809560
:1057B000089597FB072E16F4009407D077FD09D0C3
:1057C0000E94F32B07FC05D03EF4909581959F4FE6
:1057D0000895709561957F4F0895EE0FFF1F059016
:1057E000F491E02D0994AA1BBB1B51E107C0AA1F2D
:1057F000BB1FA617B70710F0A61BB70B881F991F72
:105800005A95A9F780959095BC01CD010895F99915
:10581000FECF92BD81BDF89A992780B50895A8E181
:10582000B0E042E050E00C942A2C262FF999FECFEC
:105830001FBA92BD81BD20BD0FB6F894FA9AF99AAD
:105840000FBE019608950E94152C272F0C94162C3C
:10585000DC01CB01FC01F999FECF06C0F2BDE1BD30
:10586000F89A319600B40D9241505040B8F708951F
:04587000F894FFCFDA
:105874000517080809E508B1087D080101C40128D5
:1058840008140A321E404D3622391503C80292020A
:1058940070023702AA01C301DC01F50115020102FD
:0858A4000304050607080900D2
:00000001FF
