:100000000C9490010C94D7010C94D7010C94D70157
:100010000C94D7010C94D7010C94D7010C94D70100
:100020000C94D7010C94D7010C94D7010C9426079B
:100030000C94D5070C9454160C94D7010C94D7014A
:100040000C94D7010C94D7010C94D7010C94921600
:100050000C94D7010C94D7010C94D7010C94D701C0
:100060000C94D7010C94D7010C94D7010C94D701B0
:100070000C94D7011D0220022302260229022C0221
:100080002F023202350242086408570964085709F2
:10009000A908CC085709210934095A0C5A0C840CB8
:1000A000840CDF0CEC0EEC0EEC0E130DEC0EFE0DC2
:1000B000FE0DC40EEC0EEC0ED90E0000F1A1048A68
:1000C000E410360E0F12272D00005037383334134A
:1000D0002F2E000051E552282A3031490000C2E19C
:1000E000E0042B14291E0000E3001D161A081F202F
:1000F0000000E21B07091517212200002C06190A2F
:100100001C1823240000C105110B0D0C252600002E
:1001100000000000000000004C4F00000000000044
:10012000000000E6C20101014A4743440000014DBE
:1001300051504F4852450000010101584B4E0101FA
:100140000000010101AA3901353A0000010101A9AD
:1001500001013B3C00000101A80101013D3E0000FE
:100160000101010101013F400000010101010146BF
:1001700041420000000000000000000001010000FA
:100180000000000000000001C201595C5D60010137
:100190000000015A5B5E01610101000001380101AC
:1001A00001010101000001010150010101010000F4
:1001B0000101015152010101000001014F01010142
:1001C00001010000010101010101010100006301C1
:1001D0000101015F010100000000000000000000BB
:1001E0000101000000000000000000620E03410059
:1001F0006C007000730036003600000008035400E5
:100200004D004B00000004030904090254000301DF
:1002100000A03209040000010301010009211101BD
:1002200000012240000705810308000A09040100BB
:100230000103000000092111010001223600070519
:10024000820308000A0904020001030000000921DA
:10025000110100012239000705830320000112016A
:10026000100100000008EDFE6464010001020001BD
:1002700005010906A101050719E029E71500250177
:100280009508750181020508190129059505750173
:1002900091029501750391010507190029F71500D1
:1002A000250195F875018102C005010980A101852C
:1002B0000216810026B7001A81002AB70075109532
:1002C000018100C0050C0901A1018503160100266A
:1002D0009C021A01002A9C02751095018100C0053C
:1002E000010906A101050719E029E7150025019577
:1002F0000875018102950175088101050819012918
:100300000595057501910295017503910105071980
:100310000029FF150026FF00950675088100C00022
:1003200011241FBECFEFD4E0DEBFCDBF04B603FE65
:1003300027C08091600290916102A0916202B09109
:1003400063028730904BA740B04BD1F4109260020B
:1003500010926102109262021092630214BE84B77E
:10036000877F84BF0FB6F894A8958091600088615C
:1003700080936000109260000FBEE0E0F8E3099502
:1003800011E0A0E0B1E0E6E6F6E302C005900D92D0
:10039000AE31B107D9F722E0AEE1B1E001C01D9264
:1003A000A036B207E1F70E947D040C94311B0C9437
:1003B00000008AB180788AB98BB180788BB987B117
:1003C0008B7C87B988B18B7C88B908950E94D9014C
:1003D00084B114B885B18FEF85B987B18F7387B9B0
:1003E00088B1806C88B9E2E3F1E0AEE1B1E011924E
:1003F00011921D921D9281E0E634F807C1F708952D
:10040000DF92EF92FF920F931F93CF93DF930EE152
:1004100011E0E801F12CEE24E394E5E0DE2E8F2DCF
:1004200090E0FC013197E930F10520F4E65CFF4FE4
:100430000C94FA1A509A58981AC0519A599817C0A1
:10044000529A5A9814C0539A5B9811C0549A5C9867
:100450000EC0559A5D980BC0569A5E9808C03A9A9D
:10046000429805C03C9A449802C03D9A459880EA5B
:100470008A95F1F783B181708E2590E0199903C0B8
:10048000E2E0F0E002C0E0E0F0E08E2B9F2B1A9952
:1004900003C0E4E0F0E002C0E0E0F0E08E2B9F2B30
:1004A0001B9903C048E050E002C040E050E0842BBC
:1004B000952B1C9903C020E130E002C020E030E021
:1004C000822B932B1D9903C0E0E2F0E002C0E0E034
:1004D000F0E08E2B9F2B1E9903C060E470E002C0F9
:1004E00060E070E0862B972B63B1062E000C770B33
:1004F000609570959B012227330F221F3327369575
:10050000322F222737952795AC01422B532B26B14A
:10051000022E000C330B20953095C9018827990FC6
:10052000881F9927982F8827842B952B369903C0ED
:1005300020E032E002C020E030E0822B932B2881C3
:1005400039812817390721F099838883D0920001D7
:100550000E94D901F39422969AE0F91260CF80911B
:1005600000018823C1F0815080930001882339F075
:10057000AFE9BFE01197F1F700C000000CC0E2E363
:10058000F1E0D8018D919D918D0181939193B1E01E
:1005900002331B07B1F781E0DF91CF911F910F91DB
:1005A000FF90EF90DF900895E82FF0E0EE0FFF1F2F
:1005B000EE5CFE4F808191810895089508958091A9
:1005C000670108950895CF93DF9300D01F92CDB7B0
:1005D000DEB720915602243021F523E029839B8346
:1005E0008A8382E08093E9008FEF9091E800815048
:1005F00095FD06C095ED9A95F1F700008111F5CFB4
:100600008091E80085FF0DC040E050E063E070E0BD
:10061000CE0101960E9438058091E8008E77809384
:10062000E8000F900F900F90DF91CF910895CF9336
:10063000DF9300D01F92CDB7DEB79C0180915602A8
:10064000843019F592E099833B832A839093E900E3
:100650008FEF9091E800815095FD06C095ED9A9539
:10066000F1F700008111F5CF8091E80085FF0DC002
:1006700040E050E063E070E0CE0101960E94380552
:100680008091E8008E778093E8000F900F900F9094
:10069000DF91CF910895CF93DF93209156022430BC
:1006A00009F048C0EC0180910B018823E1F08091B2
:1006B0000C018823C1F083E08093E9008FEF9091D3
:1006C000E800815095FD06C09AE29A95F1F700C0C6
:1006D0008111F5CF8091E80085FF2CC040E050E00B
:1006E00060E270E017C081E08093E9008FEF9091A5
:1006F000E800815095FD06C095ED9A95F1F7000050
:100700008111F5CF8091E80085FF14C040E050E0F2
:1007100068E070E0CE010E9438058091E8008E7795
:100720008093E80080E2FE01A7E4B1E001900D9221
:100730008A95E1F7DF91CF910895089542E061EC49
:1007400081E00E943C0642E061EC82E00E943C06AF
:1007500042E261EC83E00C943C06809158028330C5
:1007600009F455C030F4813071F0823009F48EC044
:1007700008958A3009F47AC08B3009F460C089305A
:1007800009F09CC020C080915702813A09F096C0C0
:100790008091E800877F8093E80080915B029091D0
:1007A0005C02892B21F460E287E491E003C060E001
:1007B00080E090E070E00E9483058091E8008B77F4
:1007C0008093E800089580915702813209F076C045
:1007D00080915B0290915C02009719F0029709F0FA
:1007E0006DC08091E800877F8093E8008091E800E9
:1007F00082FD05C0809156028111F8CF5FC08091C3
:10080000F100809367018091E8008B7753C080915D
:100810005702813A09F052C080915B0290915C02CC
:10082000892B09F04BC08091E800877F8093E80016
:100830008091E80080FFFCCF80910B0136C0809151
:1008400057028132D9F580915B0290915C02892B2D
:10085000A9F58091E800877F8093E8000E947106E7
:100860008091590280930B010C94080F80915702DC
:10087000813221F58091E800877F8093E8000E9413
:10088000710680915A028093680108958091570201
:10089000813AA1F48091E800877F8093E8008091FD
:1008A000E80080FFFCCF809168018093F100809187
:1008B000E8008E778093E8000C94710608950895FF
:1008C0000C945F0480916701809346011092670148
:1008D00080E00E94DE020E94650A0C94080F0C94CE
:1008E00062040E94121680915402882329F00E940B
:1008F0003B1681110C942205089584B7877F84BF2D
:100900000FB6F894A895809160008861809360008C
:10091000109260000FBE90E080E80FB6F8948093CC
:100920006100909361000FBE0E9460040E94B809AC
:100930000E94C3060E9416078091E20084608093A3
:10094000E2007894809156028430E1F781ED97E0DF
:10095000019739F0EFE9FFE03197F1F700C00000AF
:10096000F7CF0E94BA0981E091E00E9470090E94CD
:100970005F0480915602853019F40E947104F9CF0A
:100980000E94C009F6CF0E945016809146018093C4
:10099000670108950C94C304292F332723303105B0
:1009A000C9F060F42130310581F02230310509F0C1
:1009B00041C084E590E02AE032E040C021323105B8
:1009C000E1F02232310531F135C082E190E02EE5CF
:1009D00032E034C099278130910549F028F0029720
:1009E00049F5ECEEF1E005C0E6E0F2E002C0ECEF24
:1009F000F1E0849190E09F0121C06330D8F4E62FAC
:100A0000F0E0EE0FFF1FE85EFE4F2081318189E0AC
:100A100090E014C0633070F470E0FB01EE0FFF1F34
:100A2000EE5EFE4F20813181FB01E15FFE4F808150
:100A300090E004C080E090E020E030E0FA013183F3
:100A40002083089584E089BD86E089BD09B400FE55
:100A5000FDCF8091D8008F7D8093D8008091E000F9
:100A600082608093E0008091E00081FDFCCF0895DA
:100A7000CF92DF92EF92FF920F931F93CF93DF936A
:100A8000EC018B017A010E949006811133C0E114C0
:100A9000F10439F0F70180819181081B190BC80F0F
:100AA000D91FC12CD12C0115110519F18091E80035
:100AB00085FD16C08091E8008E778093E800E114F0
:100AC000F10449F0F70180819181C80ED91ED182CD
:100AD000C08285E00FC00E949006882321F30AC0DF
:100AE00089918093F10001501109FFEFCF1ADF0ABD
:100AF000DACF80E0DF91CF911F910F91FF90EF90BF
:100B0000DF90CF90089520915D0230915E0226170C
:100B1000370748F06115710539F42091E8002E7708
:100B20002093E80001C0B901FC0120E061157105C6
:100B300061F1809156028823D9F18530D9F18091F5
:100B4000E80083FD39C08091E80082FD2BC08091D0
:100B5000E80080FFEBCF8091F20090E06115710515
:100B600051F08830910538F421912093F1006150C3
:100B700071090196F3CF21E0089709F020E08091F8
:100B8000E8008E778093E800D1CF2111D2CF0AC040
:100B900080915602882361F0853061F08091E800F1
:100BA00083FD0AC08091E80082FFF2CF80E00895C3
:100BB00082E0089583E0089581E0089520915D0228
:100BC00030915E022617370748F06115710539F438
:100BD0002091E8002E772093E80001C0B901FC01C4
:100BE00020E06115710579F180915602882309F49E
:100BF0003DC0853009F43CC08091E80083FD3AC0D7
:100C00008091E80082FD2CC08091E80080FFE9CF50
:100C10008091F20090E06115710559F088309105DE
:100C200040F424912093F1003196615071090196AE
:100C3000F2CF21E0089709F020E08091E8008E775C
:100C40008093E800CECF2111CFCF0AC08091560209
:100C5000882361F0853061F08091E80083FD0AC04F
:100C60008091E80082FFF2CF80E0089582E008954D
:100C700083E0089581E00895982F953068F590936A
:100C8000E900981739F07091EC002091ED00509137
:100C9000F00003C0242F762F50E021FD02C09F5F9B
:100CA000ECCF3091EB003E7F3093EB003091ED00C4
:100CB0003D7F3093ED003091EB0031603093EB00DD
:100CC0007093EC002093ED005093F0002091EE0023
:100CD00027FDE5CF80E008958F708093E90081E0E3
:100CE00008958091570287FF11C08091E80082FD2E
:100CF00005C0809156028111F8CF11C08091E800A3
:100D00008B770BC080915602882349F08091E800D0
:100D100080FFF8CF8091E8008E778093E8000895F7
:100D20002091E4003091E50095E64091EC00842F9D
:100D3000817040FF23C08091E80080FD1DC080913C
:100D40005602882399F0853099F08091EB0085FD5B
:100D500011C04091E4005091E5002417350729F3B4
:100D6000915011F09A01E1CF84E0089582E0089556
:100D700083E0089581E0089580E008954091E800BF
:100D800042FFDDCF08950E9420070E942307E0EE76
:100D9000F0E0808181608083E8EDF0E080818F77F2
:100DA000808319BCE3E6F0E080818160808310924B
:100DB000550208950E9420070E9423078091D800C1
:100DC0008F778093D8008091D80080688093D80076
:100DD0008091D8008F7D8093D80084E089BD86E023
:100DE00089BD09B400FEFDCF109256021092520246
:100DF000109254021092530242E060E080E00E94A0
:100E00003C068091E1008E7F8093E1008091E200BA
:100E100081608093E2008091E20088608093E2002C
:100E20008091E0008E7F8093E0000895E3E6F0E09B
:100E300080818E7F808381E0809355020C94DA0656
:100E40001092E20008951092E10008951F920F920F
:100E50000FB60F9211242F933F934F935F936F938D
:100E60007F938F939F93AF93BF93EF93FF93809163
:100E7000E10082FF0BC08091E20082FF07C08091F9
:100E8000E1008B7F8093E1000E946F098091E10077
:100E900080FF19C08091E20080FF15C08091E200C0
:100EA0008E7F8093E2008091E20080618093E20077
:100EB0008091D80080628093D80019BC85E080932F
:100EC00056020E946F048091E10084FF30C080913F
:100ED000E20084FF2CC084E089BD86E089BD09B4AE
:100EE00000FEFDCF8091D8008F7D8093D800809147
:100EF000E1008F7E8093E1008091E2008F7E8093FD
:100F0000E2008091E20081608093E20080915202D1
:100F1000882311F084E007C08091E30087FD02C0C0
:100F200081E001C083E0809356020E94CA04809150
:100F3000E10083FF29C08091E20083FF25C08091FA
:100F4000E100877F8093E10082E080935602109257
:100F500052028091E1008E7F8093E1008091E20057
:100F60008E7F8093E2008091E20080618093E200B6
:100F700042E060E080E00E943C068091F0008860E2
:100F80008093F0000E949D03FF91EF91BF91AF917C
:100F90009F918F917F916F915F914F913F912F9191
:100FA0000F900FBE0F901F9018951F920F920FB6C3
:100FB0000F9211242F933F934F935F936F937F93DF
:100FC0008F939F93AF93BF93CF93DF93EF93FF9351
:100FD000C091E900CF708091EC00D82FD17080FDD6
:100FE000D0E81092E9008091F000877F8093F000B4
:100FF00078940E9419081092E9008091F0008860AE
:101000008093F000CD2BCF70C093E900FF91EF915A
:10101000DF91CF91BF91AF919F918F917F916F9110
:101020005F914F913F912F910F900FBE0F901F90A6
:1010300018951F93CF93DF93CDB7DEB7AA970FB65E
:10104000F894DEBF0FBECDBFE7E5F2E08091F1007E
:10105000819322E0EF35F207C9F70E94AD0380913A
:10106000E80083FF24C18091570290915802492FD4
:1010700050E04A30510508F01AC1FA01ED5BFF4F0C
:101080000C94FA1A803881F0823809F010C18091EE
:101090005B028F708093E9008091EB0085FB8827CD
:1010A00080F91092E90006C0809153029091540299
:1010B000911182609091E800977F9093E80080936F
:1010C000F1001092F100C8C0282F2D7F09F0EFC069
:1010D000882319F0823061F0EAC080915902813092
:1010E00009F0E5C0933009F080E0809354022BC0F2
:1010F00080915902811127C080915B028F7009F4A1
:10110000D6C08093E9002091EB0020FF1CC09330F3
:1011100021F48091EB00806214C09091EB0090610B
:101120009093EB0021E030E0A90102C0440F551F6D
:101130008A95E2F74093EA001092EA008091EB0072
:1011400088608093EB001092E9008091E800877F2F
:1011500086C08111ACC0109159021F778091E300C5
:101160008078812B8093E3008091E800877F8093D3
:10117000E8000E9471068091E80080FFFCCF80911A
:10118000E30080688093E300111102C082E001C097
:1011900083E0809356028BC08058823008F087C06D
:1011A0008091590290915A028C3D53E0950779F550
:1011B00083E08A838AE289834FB7F894DE0113962D
:1011C00020E03EE051E2E32FF0E050935700E4913D
:1011D00020FF03C0E295EF703F5FEF708E2F90E02D
:1011E000EA3010F0C79601C0C0968D939D932F5F93
:1011F000243149F74FBF8091E800877F8093E80052
:101200006AE270E0CE0101960E94830514C0AE012F
:101210004F5F5F4F60915B020E94CC04BC01892B41
:1012200009F445C09091E800977F9093E800898188
:101230009A810E94DE058091E8008B778093E80018
:1012400036C08038A1F58091E800877F8093E80060
:10125000809152028093F1008091E8008E77809314
:10126000E8000E94710623C0811121C080915902BB
:1012700090915A0299270297D4F48091E800877FD1
:101280008093E80080915902809352020E94710677
:1012900080915202811106C08091E30087FD02C057
:1012A00081E001C084E0809356020E949E038091F9
:1012B000E80083FF0AC08091E800877F8093E80000
:1012C0008091EB0080628093EB00AA960FB6F894B1
:1012D000DEBF0FBECDBFDF91CF911F91089508955E
:1012E00090936E0180936D010895E0916D01F091EE
:1012F0006E01309721F00190F081E02D099480E09B
:101300000895E0916D01F0916E01309721F0028017
:10131000F381E02D0994089520916B0130916C01C7
:101320002817390771F090936C0180936B01E0915D
:101330006D01F0916E01309721F00680F781E02D6C
:10134000099408952091690130916A01281739079D
:1013500071F090936A0180936901E0916D01F091C1
:101360006E01309721F00084F185E02D09940895F5
:101370000C94660A0E947D160E94E6010C94601887
:101380008F929F92AF92BF92CF92DF92EF92FF9295
:101390000F931F93CF93DF9300D000D01F92CDB750
:1013A000DEB70E94000200E711E0F12C8F2D0E94B1
:1013B000D4024C01F801A080B180A826B926A1145E
:1013C000B10439F4F3940E5F1F4FFAE0FF12EECF31
:1013D00039C080914B0281FD0E94DD02E12CCC24BA
:1013E000C394D12CC5018C219D21892B21F1E98247
:1013F000FA8221E0C4018C219D21892B09F420E08F
:101400002B830E9486168160782F9D838C8349816F
:101410005A816B818D810E94690A49815A816B8151
:101420007C818D810E94FE15F801808191818C253F
:101430009D2591838083E394CC0CDD1CFAE0EF12B0
:10144000D1CFC0CF8FEF89838A831B820E948616FB
:101450008160782F9D838C8349815A816B818D8136
:101460000E94690A0E94FD150E94750990916F0102
:101470008917B9F00E94750980936F010F900F9042
:101480000F900F900F90DF91CF911F910F91FF90D0
:10149000EF90DF90CF90BF90AF909F908F900C9483
:1014A0000F160F900F900F900F900F90DF91CF912C
:1014B0001F910F91FF90EF90DF90CF90BF90AF9072
:1014C0009F908F9008950C94DE02089508950895DA
:1014D0000895CF93DF93CDB7DEB72B970FB6F8946F
:1014E000DEBF0FBECDBF942F4F83252F588769874E
:1014F0007A878B874A855B85452B31F02F3F31F406
:1015000081E09F3F19F403C081E001C080E080FDCD
:1015100007C04F81588569857A858B850E94FE15A5
:10152000DE01119686E0FD0111928A95E9F785E0CA
:10153000FE01379601900D928A95E1F749815A8113
:101540006B817C818D819E810E9426122B960FB625
:10155000F894DEBF0FBECDBFDF91CF910895CF933A
:10156000882309F4E8C0C82F8238A1F40E947509C5
:1015700081FDE1C089E30E941A150E94D7152FEF63
:1015800081EE94E0215080409040E1F700C00000DF
:1015900089E315C08338C1F40E94750980FDCBC072
:1015A00083E50E941A150E94D7152FEF81EE94E073
:1015B000215080409040E1F700C0000083E50E9488
:1015C0005915CF910C94D7158438A1F40E94750950
:1015D00082FDB1C087E40E941A150E94D7152FEF33
:1015E00081EE94E0215080409040E1F700C000007F
:1015F00087E4E5CF8CEF8C0F813A48F48C2F0E9462
:10160000A71A811198C08C2F0E941A15DACF80E298
:101610008C0F883048F4C77081E001C0880FCA95EC
:10162000EAF70E949D15CDCF8BE58C0F833078F4BF
:10163000C53A29F0C63A31F083E890E005C081E868
:1016400090E002C082E890E0CF910C948C0988E58C
:101650008C0F853108F06FC0C83A61F1C93A69F161
:10166000CA3A71F1CB3A79F1CC3A81F1CD3A89F1AC
:10167000CE3A91F1CF3A99F1C13BA1F1C03BA9F12A
:10168000C23BB1F1C33BB9F1C43BC1F1C53BC9F1A8
:10169000C63BD1F1C73BD9F1C83BE1F1C93BE9F108
:1016A000CA3BF1F1CB3BF9F1CC3B09F43FC080E000
:1016B00090E03EC082EE90E03BC089EE90E038C002
:1016C0008AEE90E035C085EB90E032C086EB90E08A
:1016D0002FC083EB90E02CC084EB90E029C087EB17
:1016E00090E026C08CEC90E023C08DEC90E020C010
:1016F00083E891E01DC08AE891E01AC082E991E098
:1017000017C084E991E014C081E292E011C083E245
:1017100092E00EC084E292E00BC085E292E008C045
:1017200086E292E005C087E292E002C08AE292E09F
:10173000CF910C94A209CF910895882309F466C033
:101740008238A1F40E94750981FF60C089E30E947C
:101750001A150E94D7152FEF81EE94E0215080409A
:101760009040E1F700C0000089E315C08338B9F468
:101770000E94750980FF4AC083E50E941A150E94E5
:10178000D7152FEF81EE94E0215080409040E1F793
:1017900000C0000083E50E9459150C94D7158438C9
:1017A000A1F40E94750982FF31C087E40E941A15D6
:1017B0000E94D7152FEF81EE94E021508040904099
:1017C000E1F700C0000087E4E6CF9CEF980F913A64
:1017D00010F390E2980F983050F4877091E001C0B8
:1017E000990F8A95EAF7892F0E94A315D6CF9BE51A
:1017F000980F933020F480E090E00C948C09885A84
:10180000853120F480E090E00C94A20908958823AB
:1018100021F00E949D150C94D7150895882321F07E
:101820000E94A3150C94D7150895CF92DF92EF92E2
:10183000FF920F931F93CF93DF9300D000D01F929E
:10184000CDB7DEB76C0185E0F601DE01119601909F
:101850000D928A95E1F7F60140815181238134810F
:101860002115310531F05F3F31F491E04F3F19F41C
:1018700003C091E001C090E090FDAEC2F601F2809D
:10188000E580E2948FE0E822722F3D832C836F2D58
:101890008D810E948F148C010E948E140E947E13F1
:1018A000E12FE295EF708E2F90E0FC01E35BFF4F9C
:1018B0000C94FA1A812F807F1F70882311F01295E3
:1018C000107FFF2049F0112309F43BC2812F0E94B1
:1018D000B0150E94D71535C2802F0E949D0B112391
:1018E00009F47AC2812F0E94B6150F900F900F90C5
:1018F0000F900F90DF91CF911F910F91FF90EF907C
:10190000DF90CF900C94D715812F807F1F7080328D
:1019100011F01295107F002319F0013009F12BC04E
:10192000FF20A9F0EE2059F1F1E0812FEF1228C03D
:101930000F900F900F900F900F90DF91CF911F910C
:101940000F91FF90EF90DF90CF900C94C015EE2098
:1019500021F081E0E81609F43FC20E94C3152DC0B2
:10196000FF20E9F0E5E0EE1508F436C20E949A1572
:10197000812329F022C0FF20F1F0E11015C0812F52
:101980000F900F900F900F900F90DF91CF911F91BC
:101990000F91FF90EF90DF90CF900C94070CF4E044
:1019A000FE1508F419C209C0F601858180FFC9C17E
:1019B0008F708583E4CFE110D7C1812F4AC1812F79
:1019C00086958695837019F08130B9F005C2FF20A5
:1019D00019F0C801937002C080E090E00F900F9062
:1019E0000F900F900F90DF91CF911F910F91FF906B
:1019F000EF90DF90CF900C948C09FF2019F0C80174
:101A0000937002C080E090E00F900F900F900F90C5
:101A10000F90DF91CF911F910F91FF90EF90DF908A
:101A2000CF900C94A209812F837009F070C0F1103F
:101A3000D3C1202F229526952770220F220F602FC9
:101A40006F70862F90E0A0E0B0E06C017D01022E67
:101A500004C0CC0CDD1CEE1CFF1C0A94D2F704FF62
:101A600012C08FE090E0A0E0B0E004C0880F991FA2
:101A7000AA1FBB1F2A95D2F7BC01CD0160957095B6
:101A80008095909503C060E070E0CB0116951695A7
:101A900013701230B1F040F56C297D298E299F29F1
:101AA000113031F10F900F900F900F900F90DF9148
:101AB000CF911F910F91FF90EF90DF90CF900C94FA
:101AC000A3136C297D298E299F290F900F900F90C9
:101AD0000F900F90DF91CF911F910F91FF90EF909A
:101AE000DF90CF900C94BD130E94A313C701B601E1
:101AF0000F900F900F900F900F90DF91CF911F914B
:101B00000F91FF90EF90DF90CF900C948913FF20FE
:101B100019F0812F817001C08695882309F45CC17A
:101B2000202F229526952770220F220F602F6F708D
:101B3000862F90E0A0E0B0E06C017D01022E04C091
:101B4000CC0CDD1CEE1CFF1C0A94D2F704FF12C063
:101B50008FE090E0A0E0B0E004C0880F991FAA1FBA
:101B6000BB1F2A95D2F7BC01CD0160957095809579
:101B7000909503C060E070E0CB0116951695137048
:101B80001230B1F040F56C297D298E299F29113042
:101B900031F10F900F900F900F900F90DF91CF9138
:101BA0001F910F91FF90EF90DF90CF900C946A14EB
:101BB0006C297D298E299F290F900F900F900F90EF
:101BC0000F90DF91CF911F910F91FF90EF90DF90D9
:101BD000CF900C947C140E946A14C701B6010F9038
:101BE0000F900F900F900F90DF91CF911F910F9159
:101BF000FF90EF90DF90CF900C945814003FC1F10C
:101C000028F480E4800F803250F096C0023F09F43F
:101C10005EC008F449C0033F09F46CC08DC0F02FCA
:101C2000F071EF2E812F8F71FF2051F00E94F11380
:101C3000802FEE2019F08295807FA2CE8F70A0CEEB
:101C40000E941214802FEE2019F08295807F01C02F
:101C50008F700F900F900F900F900F90DF91CF919A
:101C60001F910F91FF90EF90DF90CF900C940E0C8E
:101C7000FF20A9F084E08E1508F4AEC0812F8F718B
:101C80000F900F900F900F900F90DF91CF911F91B9
:101C90000F91FF90EF90DF90CF900C943714E5E018
:101CA000EE1508F499C0EACFFF2099F0812F8F71CB
:101CB0000F900F900F900F900F90DF91CF911F9189
:101CC0000F91FF90EF90DF90CF900C94F113FF20D5
:101CD00069F3812F8F710F900F900F900F900F90DD
:101CE000DF91CF911F910F91FF90EF90DF90CF90F8
:101CF0000C941214FF2089F0812F8F710F900F9098
:101D00000F900F900F90DF91CF911F910F91FF9047
:101D1000EF90DF90CF900C94DC130F900F900F900A
:101D20000F900F90DF91CF911F910F91FF90EF9047
:101D3000DF90CF900C94D713FF2099F0EE2009F498
:101D4000B5CF802F0F900F900F900F900F90DF91D5
:101D5000CF911F910F91FF90EF90DF90CF900C9457
:101D6000AF0AEE2009F4B5CF802F0F900F900F909F
:101D70000F900F90DF91CF911F910F91FF90EF90F7
:101D8000DF90CF900C949D0B412F4F70602FC601B8
:101D90000E946D170F900F900F900F900F90DF9192
:101DA000CF911F910F91FF90EF90DF90CF900C9407
:101DB000D912412F4F70602FC6010F900F900F90D6
:101DC0000F900F90DF91CF911F910F91FF90EF90A7
:101DD000DF90CF900C9470170F900F900F900F9092
:101DE0000F90DF91CF911F910F91FF90EF90DF90B7
:101DF000CF9008950E94BD150E948C150E94D715A2
:101E000080E090E00E948C0980E090E00C94A209B0
:101E10000E94AD150C94FA0E1F93CF93DF9300D060
:101E200000D01F92CDB7DEB7942F4983252F5A8358
:101E30006B837C838D834C815D81452B31F02F3FFB
:101E400031F481E09F3F19F403C081E001C080E0DC
:101E5000182F117080FD31C049815A816B817C81BE
:101E60008D810E948F14292F22952F702C3030F4F1
:101E70002A30A0F42250223030F022C02C30C9F099
:101E80002F30B9F01DC0853A28F48430C0F4823078
:101E900028F415C090E2980F983088F0883E30F40E
:101EA000803E68F48450813A58F409C0803F41F480
:101EB00006C093FB112710F903C010E001C011E028
:101EC000812F0F900F900F900F900F90DF91CF9177
:101ED0001F910895CF93DF9300D000D01F92CDB70C
:101EE000DEB70F900F900F900F900F90DF91CF9172
:101EF0000895CF93DF9300D000D000D0CDB7DEB7E8
:101F000026960FB6F894DEBF0FBECDBFDF91CF91FE
:101F10000895CF93DF93C091840180918501C81704
:101F2000A1F0D0E0CE0166E070E00E94E91AFC0169
:101F3000EA57FE4F4081518162817381848195818E
:101F40000E94790F2196C770E8CFDF91CF91089555
:101F50004091B6015091B7016091B8017091B901FB
:101F60008091BA019091BB010C94790F1F93CF938C
:101F7000DF938091BB0182958F7009F066C08091DC
:101F8000B801882309F461C0209184011091850172
:101F9000C091B601D091B701E091B901F091BA01B9
:101FA00081E0CF3F09F080E0482F211709F44DC0B0
:101FB000309721F0DF3F21F080E003C081E001C0D5
:101FC000842F30E080FD3DC0C90166E070E00E94D2
:101FD000E91ADC01AA57BE4F11968C9111978D1307
:101FE00030C08C918C132DC012968C911297811158
:101FF00028C013968D919C9114978E179F0708F413
:1020000001978E1B9F0B883C9105D8F48091BB01F2
:102010008F7080618093BB01C90166E070E00E940F
:10202000E91AFC01E557FE4F90819F709061908303
:1020300086EB91E00E94150CDF91CF911F910C94DB
:10204000890F2F5F3F4F2770B0CFDF91CF911F9146
:102050000895AF92BF92CF92DF92EF92FF920F93CB
:102060001F93CF93DF93CDB7DEB761970FB6F89488
:10207000DEBF0FBECDBF7C0185E0F701DE011D96FE
:1020800001900D928A95E1F7D7014C9111962C9110
:1020900011971296DC90129713960D911C9114973C
:1020A0005091B6016091B7018091B9019091BA0148
:1020B000009731F06F3F31F431E05F3F19F403C016
:1020C00031E001C030E0B32FB170BB2E30FD76C1DE
:1020D000A090B801AA2009F4D2C03091BB01081722
:1020E000190728F0F801E81BF90BCF0104C080950F
:1020F0009095800F911FCC24C394883C910588F063
:10210000C12C307F09F0A6C0702F198B088B522F7D
:102110006D2D89890E946A0F86EB91E00E94150C53
:10212000C3C0832F807F09F059C0261315C0451303
:1021300013C0CD2CD11010C03F7030613093BB0163
:102140000E94A80F86EB91E00E94150C8091BB01C4
:10215000D70115968C9368C10115110531F02F3FF9
:1021600031F481E04F3F19F403C081E001C080E009
:1021700080FD03C081E08D2502C080E090E0B82F93
:10218000B170CB2E80FF1FC0E0918401309185019A
:10219000E31709F425C1F0E0CF0166E070E00E948A
:1021A000E91ADC01AA57BE4F11968C91119728139A
:1021B00007C08C91481304C012968C91D81203C0AA
:1021C0003196E770E5CFCD2CDD2009F42DC180914B
:1021D000BB0181608093BB01C12C26C1261308C0BE
:1021E000451306C0D11004C08091BB01D701B9C00E
:1021F0004D872E87DF86702F198B088B522F6D2D00
:1022000089890E940C0F8823A1F1DD2091F1209192
:10221000BB01822F82958F7090E0029774F08091BD
:10222000B6019091B70198878F8319861B870A871B
:102230002C87CE0107960E94150C86E0F701A6EBCD
:10224000B1E001900D928A95E1F70E94B60F0E94CD
:10225000A80F12C0261791F14D872E87DF86702FA9
:10226000198B088B522F6D2D89890E940C0F8111BB
:1022700039C0C7010E94150CCC24C394D5C00817DF
:10228000190708F447C0F801E81BF90BCF01883C97
:10229000910508F444C0C12C702F198B088B522F64
:1022A0006D2D89890E946A0FE6EBF1E086E0DF017F
:1022B0001D928A95E9F70E94A80FB6C04513CCCFAE
:1022C000D110CACF8091BB01F7018583C7010E945D
:1022D000150C86E0E6EBF1E0DF011D928A95E9F747
:1022E000CA2CA2C0DD2029F22091BB01822F829549
:1022F0008F7090E002970CF4A0CF8091B60190917E
:10230000B7019A8389831B821D830C832E83CE01A0
:10231000019691CF80959095800F911FB8CFCD2CCD
:10232000DD2009F4A6CF261333C0451331C0209118
:10233000BB0120FD24C0822F82958F70482F50E072
:1023400041155105E1F0D70115962C9315974F30A3
:10235000510549F08F5F982F9295907F822F8F7053
:10236000892B15968C93C7010E94150C86E0F70106
:10237000A6EBB1E001900D928A95E1F79CCF86E043
:10238000F701A6EBB1E001900D928A95E1F74CC000
:102390004D872E87DF86702F198B088B522F6D2D5E
:1023A00089890E940C0F811148CF8091BB01816007
:1023B0008093BB01C7010E94150C36C0DD2009F4D3
:1023C00058CF4D872E87DF86702F198B088B522FA1
:1023D0006D2D89890E940C0F882309F44ACF2DCFD7
:1023E000702F198B088B522F6D2D89890E948F14A5
:1023F000292F22952F70223028F49F7039F08111F7
:1024000005C00BC0243028F49F7049F4805E8830EA
:1024100020F0C7010E94150CBC2CCB2C05C0F70185
:102420009581907F99F7F9CF8C2D61960FB6F8942E
:10243000DEBF0FBECDBFDF91CF911F910F91FF90F7
:10244000EF90DF90CF90BF90AF900895CF93DF9340
:10245000CDB7DEB72C970FB6F894DEBF0FBECDBF59
:102460004F83588769877A878B879C87CE01079629
:102470000E9429108823D1F09F8188852A853B8579
:10248000232B31F08F3F31F481E09F3F19F403C0DB
:1024900081E001C080E080FD6FC04F815885698573
:1024A0007A858B859C850E94790F66C086E0FE0147
:1024B0003796DE01119601900D928A95E1F7FF8122
:1024C000E8856A857B856115710531F0EF3F31F450
:1024D00081E0FF3F19F403C081E001C080E080FD8E
:1024E0004BC08091850190E09C012F5F3F4F27708A
:1024F00033274091840150E02417350709F443C085
:10250000F983EA837D836C8366E070E00E94E91AB8
:10251000DC01AA57BE4F96E0FE01319601900D9264
:102520009A95E1F7209385010E94890F25C090E0DC
:1025300066E070E00E94E91A8A579E4F0E942910B7
:10254000882371F18091840190E066E070E00E9440
:10255000E91AFC01EA57FE4F408151816281738183
:10256000848195810E94790F8091840190E0019689
:1025700087709927809384018091840190918501CF
:102580008913D5CF0DC00E94080F109285011092BB
:102590008401E6EBF1E086E0DF011D928A95E9F720
:1025A0002C960FB6F894DEBF0FBECDBFDF91CF9152
:1025B0000895DF92EF92FF920F931F93CF93DF93D3
:1025C000FC01892B09F488C0E12CF12CDD24D39483
:1025D000EF0121968491853709F460C058F484375F
:1025E00008F04EC0843008F068C08130D1F08230ED
:1025F00071F172C0883709F45BC050F4863709F472
:1026000053C0873709F068C08E2D0E94AA1552C0AA
:102610009CE7980F903708F05FC08F770E949D0B62
:102620004EC08F010E5F1F4FFE01849190E2980F04
:10263000983050F48770FD2D01C0FF0F8A95EAF79E
:102640008F2F0E94B01515C00E94AF0A14C08F01D1
:102650000E5F1F4FFE01849190E2980F983068F44E
:102660008770FD2D01C0FF0F8A95EAF78F2F0E941A
:10267000B6150E94D715E80122C00E949D0BFBCF22
:10268000CF010296FE01C491CC2361F0EFE9FFE097
:102690003197F1F700C00000C150F6CFCF0102968C
:1026A000FE01F490EC010BC00E949A15E82E07C0C1
:1026B0000E94AD150E94D71502C00E94AF0A8F2D4F
:1026C000882341F0EFE9FFE03197F1F700C0000007
:1026D0008150F6CFFE017CCFDF91CF911F910F91FA
:1026E000FF90EF90DF900895609320027093210295
:1026F00080932202909323020C940E160895609307
:1027000024027093250280932602909327020C9452
:102710000D160F931F930091240210912502209112
:10272000260230912702602B712B822B932B609312
:1027300024027093250280932602909327021F9112
:102740000F910C940D160F931F930091240210917A
:1027500025022091260230912702602371238223D3
:102760009323609324027093250280932602909312
:1027700027021F910F910C940D160F931F93009138
:102780002402109125022091260230912702602711
:1027900071278227932760932402709325028093E8
:1027A0002602909327021F910F910C940D1660E062
:1027B00070E0CB010C9474130F931F9341E050E031
:1027C00060E070E08A019B0104C0000F111F221F0E
:1027D000331F8A95D2F7C901B8011F910F910C944C
:1027E00074130F931F9341E050E060E070E004C069
:1027F000440F551F661F771F8A95D2F780912002DC
:1028000090912102A0912202B09123028A019B01A2
:10281000082B192B2A2B3B2BC901B8011F910F91B3
:102820000C9474130F931F9341E050E060E070E04C
:1028300004C0440F551F661F771F8A95D2F7409535
:102840005095609570958091200290912102A09101
:102850002202B09123028A019B01082319232A2313
:102860003B23C901B8011F910F910C9474130F936E
:102870001F9341E050E060E070E004C0440F551F3A
:10288000661F771F8A95D2F78091200290912102CE
:10289000A0912202B09123028A019B0108271927E7
:1028A0002A273B27C901B8011F910F910C9474137B
:1028B0000F931F9300912002109121022091220278
:1028C00030912302602B712B822B932B1F910F9140
:1028D0000C9474130F931F93009120021091210206
:1028E00020912202309123026023712382239323BB
:1028F0001F910F910C9474130F931F93009120025A
:102900001091210220912202309123026027712729
:10291000822793271F910F910C94741308958F921F
:102920009F92AF92BF92DF92EF92FF920F931F930D
:10293000CF93DF9300D000D01F92CDB7DEB76B836B
:102940007C838D838A018C819D81892B31F01F3F8F
:1029500031F481E04F3F19F403C081E001C080E011
:1029600080FF03C080E090E054C08B81882309F48D
:102970003DC08090200290902102A0902202B09051
:1029800023028091240290912502A0912602B09109
:102990002702882A992AAA2ABB2A8FE1E82EF12C3D
:1029A000D501C4010E2C04C0B695A79597958795BF
:1029B0000A94D2F780FD06C081E0E81AF10880F79A
:1029C000D12C07C0DE2CB8018E2D0E9492170197E2
:1029D00099F3812F90E06AE070E00E94E91A845434
:1029E0009E4FFC01E00FF11DD0820CC0812F90E0C2
:1029F0006AE070E00E94E91A84549E4FFC01E00FE7
:102A0000F11DD08009831A8369817A818D2D0E94FE
:102A100092170F900F900F900F900F90DF91CF9122
:102A20001F910F91FF90EF90DF90BF90AF909F901C
:102A30008F90089590910B019923F1F090910C01E2
:102A40009923D1F0982F9695969596959F3181F17F
:102A5000E0910D01F0910E01E90FF11D877021E069
:102A600030E0A90102C0440F551F8A95E2F7CA0160
:102A70009181892B8183089520910D0130910E0160
:102A8000F90132969FEF40E05191851789F09F3F01
:102A900019F4511101C0942F4F5F4E31A9F79F3F98
:102AA00039F0F901E90FF11D97FDFA958283089538
:102AB000089590910B019923F9F090910C019923BD
:102AC000D9F0982F9695969596959F3121F1E091A2
:102AD0000D01F0910E01E90FF11D877021E030E04A
:102AE000A90102C0440F551F8A95E2F7CA018095DB
:102AF0009181892381830895E0910D01F0910E0168
:102B00009F01225E3F4F9281891301C0128231964C
:102B1000E217F307C1F7089581E090E0E0910D011D
:102B2000F0910E01E80FF91F108201968032910595
:102B3000A9F7089580914A02089590914A02892B3D
:102B400080934A020895809590914A028923809348
:102B50004A02089580934A02089510924A02089505
:102B600090914902892B8093490208958095909114
:102B700049028923809349020895109249020895D9
:102B800080932802089510922802089580910D01E3
:102B900090910E01FC0131969C01205E3F4F80E038
:102BA000919191118F5FE217F307D1F70895E091AA
:102BB0000D01F0910E0180914A028083E0910D0198
:102BC000F0910E01908180914902892B8083809140
:102BD0002802882361F0E0910D01F0910E019081AF
:102BE000892B80830E94C615811110922802809142
:102BF0000D0190910E010C9481090895CF93DF93FC
:102C000000D000D01F92CDB7DEB70F900F900F907D
:102C10000F900F90DF91CF910895089508950C942F
:102C2000630A089580915602843021F110924C027B
:102C300020E488E190E00FB6F894A89580936000B6
:102C40000FBE2093600083B7817F846083BF83B70A
:102C5000816083BF7894889583B78E7F83BF0FB6DA
:102C6000F894A8958091600088618093600010922C
:102C700060000FBE0895CF930E94670A0E94000271
:102C80000E94680AC0E08C2F0E94D402892B29F48C
:102C9000CF5FCA30C1F780E001C081E0CF910895D5
:102CA0000E94650A0C94080F1F920F920FB60F92A4
:102CB00011248F939F93AF93BF9380914C02811106
:102CC00013C080914D0290914E02A0914F02B0919D
:102CD00050024196A11DB11D80934D0290934E026A
:102CE000A0934F02B0935002BF91AF919F918F91EB
:102CF0000F900FBE0F901F90189582E084BD93E057
:102D000095BD9AEF97BD80936E0008952FB7F89404
:102D100080914D0290914E02A0914F02B0915002CD
:102D20002FBF08951F920F920FB60F9211248F9309
:102D30009F93AF93BF9380914D0290914E02A091CB
:102D40004F02B09150020196A11DB11D80934D021A
:102D500090934E02A0934F02B0935002BF91AF9157
:102D60009F918F910F900FBE0F901F9018950E940A
:102D7000C306F8942FEF87EA91E6215080409040F7
:102D8000E1F700C0000087E090EBDC018093600277
:102D900090936102A0936202B09363029CE088E189
:102DA0000FB6F894A895809360000FBE90936000D2
:102DB000FFCF8D3B60F4883A90F5853A28F5843052
:102DC00008F5813009F086C081E090E00895883EE2
:102DD00098F4803EB8F48F3B09F07CC00E94080F45
:102DE0002FEF80E792E0215080409040E1F700C053
:102DF00000000E94B7166EC0803F08F46BC090E0E0
:102E00009065089590E00895853A21F0863A21F082
:102E100033E803C031E801C032E820E458C0883A02
:102E200051F1893A59F18A3A59F18B3A59F18C3A70
:102E300059F18D3A59F18E3A59F18F3A59F1813B56
:102E400059F1803B59F1823B59F1833B59F1843B65
:102E500059F1853B59F1863B61F1873B61F1883B34
:102E600061F1893B61F18A3B61F18B3B61F18C3B04
:102E700061F130E001C032EE24E429C039EEFCCF2C
:102E80003AEEFACF35EBF8CF36EBF6CF33EBF4CFA3
:102E900034EBF2CF37EBF0CF3CECEECF3DECECCFA8
:102EA00033E805C03AE803C032E901C034E925E45B
:102EB0000EC031E20BC033E209C034E207C035E294
:102EC00005C036E203C037E201C03AE226E4832FB0
:102ED000922F089580E090E0089580E090E00895BA
:102EE0000895382F262F872F90E06AE070E00E9427
:102EF000E91AFC01832F90E064E670E00E94E91A71
:102F00008E0F9F1FFC01E20FF11DE054FF4F8491D3
:102F10000895E82FF0E0EE0FFF1FE65CF04085918A
:102F2000949108950E947117803EA8F4803C00F5AA
:102F3000813309F45CC038F4893209F452C08A3212
:102F400009F45BC05FC08933B1F08238A1F08533EA
:102F500009F441C057C0833E41F128F4803E99F006
:102F6000823EB9F04FC0863E31F1873E71F14AC0D2
:102F70000E948917089590915F0290FD02C091FF11
:102F800041C080EE3FC080915F0280FFFACF89E3AD
:102F900039C080915F0282FF0CC080915F0284FF84
:102FA00002C080E02FC083EE2DC080915F0282FFBF
:102FB000F4CF82EE27C080915F0283FF0AC0809128
:102FC0005F0284FDEECF87EE1DC080915F0283FF1C
:102FD000F6CF86EE17C080915F0285FF06C089E2BA
:102FE00011C080915F0285FFFACF85E30BC080910D
:102FF0005F0286FF06C08AE205C080915F0286FFFD
:10300000FACF81E30E94D9160895BF92CF92DF9242
:10301000EF92FF920F931F93CF93DF93EC01B12CAC
:1030200001E010E08B2D0E94D4027C01C12CD12C38
:10303000C8010C2C02C0880F991F0A94E2F78E2158
:103040009F21892BA9F06C2D7B2D80E00E94921787
:103050008C179D0759F0292F207E392F307C11F0D5
:10306000203A31F490E0C817D90711F481E00CC080
:103070008FEFC81AD80A8AE0C816D104C9F6B394EB
:103080008AE0B812CFCF80E0DF91CF911F910F91EE
:10309000FF90EF90DF90CF90BF900895CF93DF9394
:1030A000EC018CE290E00E940518882329F0CE0103
:1030B000DF91CF910C94051880E0DF91CF910895B6
:1030C000CF930E94C019811102C00E94A619C5E6C3
:1030D000C15049F00E9400028FE39CE90197F1F78B
:1030E00000C00000F5CF89E290E00E944E188111E7
:1030F0002BC18AE290E00E944E1881110E94A6190D
:1031000085E090E00E944E1881110E94B7160E943F
:1031100011160E94CB1980934B0287E090E00E9429
:103120004E188823C1F18BE190E00E944E1888234D
:1031300051F080914B0281FB222720F991E09227E8
:1031400090FB81F90FC08EE090E00E944E1888231A
:1031500061F080914B0282FB222720F991E09227B7
:1031600090FB82F980934B0216C080E190E00E94B0
:103170004E1890914B02882341F093FB222720F9AF
:1031800081E0822780FB93F904C0892F809580FB22
:1031900090F990934B0280914B020E94CF190E94AC
:1031A000DD1980935F0280EE90E00E944E18882324
:1031B00041F080915F02982F909590FB80F9809369
:1031C0005F0289E390E00E944E18882359F08091B5
:1031D0005F0281FB222720F991E0922790FB81F981
:1031E00080935F0282EE90E00E944E18882359F08F
:1031F00080915F0282FB222720F991E0922790FBC9
:1032000082F980935F0286EE90E00E944E18882338
:1032100059F080915F0283FB222720F991E09227E9
:1032200090FB83F980935F0283EE90E00E944E183A
:10323000882359F080915F0284FB222720F991E0D6
:10324000922790FB84F980935F0285E390E00E94CF
:103250004E18882359F080915F0285FB222720F9C0
:1032600091E0922790FB85F980935F0281E390E0E3
:103270000E944E18882359F080915F0286FB222716
:1032800020F991E0922790FB86F980935F0281E11B
:1032900090E00E944E18882359F080915F0287FBCE
:1032A000222720F991E0922790FB87F980935F0213
:1032B00080915F020E94E11980915F0287FB88275D
:1032C00080F980930C0187E290E00E944E18C82F8D
:1032D0008EE190E00E944E188111C2608FE190E073
:1032E0000E944E188111C46080E290E00E944E1846
:1032F0008111C86081E290E00E944E188111C06186
:1033000082E290E00E944E188111C06283E290E058
:103310000E944E188111C06484E290E00E944E1811
:10332000882311F0C06802C0CC2329F08C2F0E94A2
:10333000D8196C2F03C00E94D419682F70E080E068
:1033400090E0CF910C947F13CF9108956DEE7EEFB6
:1033500080E090E00E941C1B60E082E090E00E9410
:103360000E1B60E083E090E00E940E1B60E084E0B2
:1033700090E00E940E1B60E085E090E00C940E1B34
:1033800080E090E00E94081B21E08D3E9E4F09F0F6
:1033900020E0822F089582E090E00C94001B682FBB
:1033A00082E090E00C940E1B83E090E00C94001BF4
:1033B000682F83E090E00C940E1B84E090E00C9466
:1033C000001B682F84E090E00C940E1B0F931F935A
:1033D0008B3109F473C0A0F58E3009F482C0C0F4BB
:1033E000873009F460C068F4863009F0A8C0809185
:1033F0004B02817F8E7F80934B0281E0809351024C
:103400009FC0883009F44AC08B3009F496C097C039
:10341000813109F470C068F4803109F090C0809166
:103420004B0283FB222720F991E0922790FB83F93E
:103430004EC0863109F481C0893109F47EC07FC055
:10344000853309F461C068F4873209F45DC028F45B
:103450008E3108F474C08D515DC0893209F454C0B6
:103460006EC0833438F48A3308F053C0883309F4CB
:1034700064C065C0833409F447C0883409F05FC074
:103480000E94080F0FEF13ED20E301501040204081
:10349000E1F700C000000E94B7164FC00E94CB1990
:1034A0000E94DD194AC090914B02892F817090FFD4
:1034B00012C0917F9E7F90934B0242C080914B023D
:1034C00081FB222720F991E0922790FB81F98093DC
:1034D0004B02992391F180914B02816080934B02C2
:1034E0002CC080914B0282FB222720F991E0922789
:1034F00090FB82F9ECCF0E94080F90910C0181E0C3
:10350000892780930C0119C061E070E080E090E0B1
:1035100010C0895341E050E060E070E08A019B01F7
:1035200004C0000F111F221F331F8A95D2F7C90153
:10353000B8010E947F130E94080F81E001C080E063
:103540001F910F91089580E008950C94A31ACF93D2
:10355000C82F80915102882319F0813049F031C081
:10356000E0910D01F0910E018081823261F507C07A
:10357000E0910D01F0910E018081823261F48C2F77
:103580000E94A51A811104C08C2F0E94E61917C051
:1035900081E090E014C08C2F0E94A31A81110EC00C
:1035A000C43149F018F4CB3049F00FC0C93219F0DA
:1035B000C83321F00AC01092510207C081E0817027
:1035C00006C01092510280E002C080E0F8CFCF9197
:1035D00008950024552704C0080E591F880F991F0D
:1035E000009729F076956795B8F37105B9F7802DA6
:1035F000952F0895EE0FFF1F0590F491E02D09948B
:10360000F999FECF92BD81BDF89A992780B50895AA
:10361000A8E1B0E042E050E00C94231B262FF9997A
:10362000FECF1FBA92BD81BD20BD0FB6F894FA9AA5
:10363000F99A0FBE019608950E940E1B272F0C9435
:103640000F1BDC01CB01FC01F999FECF06C0F2BDD6
:10365000E1BDF89A319600B40D9241505040B8F750
:063660000895F894FFCF6D
:1036660005DF024B03E2021703E3020101290240D0
:0E3676003639DF02A90270021C0235024E0234
:00000001FF
