:100000000C9489050C94D0050C94D0050C94D00563
:100010000C94D0050C94D0050C94D0050C94D0050C
:100020000C94D0050C94D0050C94D0050C94470C7E
:100030000C94F60C0C940B1C0C94D0050C94D0056D
:100040000C94D0050C94D0050C94D0050C947F1C16
:100050000C94D0050C94D0050C94D0050C94D005CC
:100060000C94D0050C94D0050C94D0050C94D005BC
:100070000C94D005CD06D006D306D606D906DC06EC
:10008000DF06630D850D780E850D780ECA0DED0D1A
:10009000780E420E550E251225124F124F12AA123B
:1000A000DE12CE14CE14F512CE14E013E013A61413
:1000B000CE14CE14BB140000F1A1048AC110360E78
:1000C0000F12272DC237383334132F2E00E50028A6
:1000D0002A30314C00E1E0042B14291EE0E21D1609
:1000E0001A081F20E31B0709151721222C06190ADD
:1000F0001C182324E205110B0D0C2526010101011A
:100100004A474344014D51504F48524501010101B6
:100110004B4E0149010101AA3901353A010101A9FA
:1001200001013B3C0101A80101013D3E010101012A
:1001300001013F4001010101014641420162015AB2
:100140005B5E015601635401550101570101010134
:1001500001010101010101503901010101010151B8
:100160005201010101014F010101010101010101E0
:10017000015C015F01010101595D60610A002530E8
:10018000325800626F756E6365213A20004B6579C5
:10019000626F6172642073746172742E0A00555329
:1001A0004220636F6E666967757265642E0A000D82
:1001B0000A696E69740A00140341006C00700073D0
:1001C00000360034005F0041004400000008035482
:1001D000004D004B000000040309040902740004F0
:1001E0000100A032090400000103010100092111EE
:1001F0000100012240000705810308000A090401EB
:10020000000103010200092111010001224D000734
:1002100005820308000A0904020001030000000926
:1002200021110100012236000705830308000A0995
:100230000403000203000000092111010001222231
:1002400000070584032000010705040320000112B4
:1002500001100100000008EDFE64640100010200CD
:10026000010631FF0974A1010975150026FF0095EB
:1002700020750881020976150026FF009520750873
:100280009102C005010980A101850216810026B7EF
:10029000001A81002AB700751095018100C0050C75
:1002A0000901A1018503160100269C021A01002AFA
:1002B0009C02751095018100C005010902A1010988
:1002C00001A10005091901290515002501950575EC
:1002D000018102950175038101050109300931157C
:1002E00081257F95027508810609381581257F953E
:1002F0000175088106050C0A38021581257F9501D4
:1003000075088106C0C005010906A101050719E0AD
:1003100029E71500250195087501810295017508E9
:1003200081010508190129059505750191029501BD
:10033000750391010507190029FF150026FF009597
:100340000675088100C0636F6E73756D65723A2023
:10035000253034580A0073797374656D3A2025305E
:1003600034580A000A002530325820006B65796243
:100370006F6172643A20004C45443A20253032586F
:100380000A00253032583A202530386225730A0099
:10039000722F632030313233343536370A00646FC0
:1003A0006E652E0A00626F6F746D616769632073FA
:1003B00063616E3A202E2E2E2000290A002575003A
:1003C0002F002575005D28002564002000256400AD
:1003D000200025640020002564007C002530325870
:1003E000006D6F7573656B6579205B62746E7C78E8
:1003F0002079207620685D287265702F61636C29F2
:100400003A205B006D6B5F776865656C5F74696D42
:10041000655F746F5F6D6178203D2025640A006D13
:100420006B5F776865656C5F6D61785F737065653C
:1004300064203D2025640A006D6B5F74696D655F03
:10044000746F5F6D6178203D2025640A006D6B5FDD
:100450006D61785F7370656564203D2025640A00D6
:100460006D6B5F696E74657276616C203D202564EA
:100470000A006D6B5F64656C6179203D2025640A1C
:10048000006D6B5F776865656C5F74696D655F743F
:100490006F5F6D6178203D2025640A006D6B5F778A
:1004A0006865656C5F6D61785F7370656564203D3C
:1004B0002025640A006D6B5F74696D655F746F5F02
:1004C0006D6178203D2025640A006D6B5F6D617859
:1004D0005F7370656564203D2025640A006D6B5F65
:1004E000696E74657276616C203D2025640A006D2A
:1004F0006B5F64656C6179203D2025640A000A0009
:10050000257500363A20776865656C5F74696D659E
:100510005F746F5F6D61783A20000A0025750035C1
:100520003A20776865656C5F6D61785F73706565AB
:10053000643A20000A00257500343A2074696D651C
:100540005F746F5F6D61783A20000A002575003393
:100550003A206D61785F73706565643A20000A0027
:10056000257500323A20696E74657276616C286D6B
:1005700073293A20000A00257500313A2064656C21
:100580006179282A31306D73293A20000A092D201B
:1005900056616C756573202D0A004D3E004D256433
:1005A0003E20003F007365742064656661756C745D
:1005B0000A00433E200077686572652064656C74AC
:1005C000613A20637572736F723D25642C207768E1
:1005D00065656C3D25640A53656520687474703ADE
:1005E0002F2F656E2E77696B6970656469612E6F58
:1005F00072672F77696B692F4D6F7573655F6B65D8
:1006000079730A000A092D204D6F7573656B657942
:10061000202D0A4553432F713A09717569740A31C7
:100620003A0964656C6179282A31306D73290A3280
:100630003A09696E74657276616C286D73290A33A4
:100640003A096D61785F73706565640A343A0974BC
:10065000696D655F746F5F6D61780A353A09776817
:1006600065656C5F6D61785F73706565640A363AC5
:1006700009776865656C5F74696D655F746F5F6D40
:1006800061780A0A703A097072696E742076616C3A
:100690007565730A643A09736574206465666175EB
:1006A0006C74730A75703A092B310A646F776E3A6D
:1006B000092D310A706775703A092B31300A70675D
:1006C000646F776E3A092D31300A0A73706565647C
:1006D000203D2064656C7461202A206D61785F7311
:1006E00070656564202A2028726570656174202F0A
:1006F0002074696D655F746F5F6D6178290A003FD2
:10070000004D3E2000433E20004C25640A000A09AB
:100710002D20436F6E736F6C65202D0A4553432F58
:10072000713A09717569740A6D3A096D6F7573656F
:100730006B65790A000A092D204D61676963202DD8
:100740000A643A0964656275670A783A0964656201
:100750007567206D61747269780A6B3A0964656225
:100760007567206B6579626F6172640A6D3A09641E
:1007700065627567206D6F7573650A763A097665EF
:100780007273696F6E0A733A097374617475730AD0
:10079000633A09636F6E736F6C65206D6F64650AF1
:1007A000302D343A096C61796572302D3428463128
:1007B000302D4634290A506175733A09626F6F749F
:1007C0006C6F616465720A653A09656570726F6D78
:1007D0000A000A002575002E6E6B726F3A20000A1F
:1007E000002575002E737761705F6261636B736CB7
:1007F0006173685F6261636B73706163653A200067
:100800000A002575002E737761705F6772617665E7
:100810005F6573633A20000A002575002E6E6F5FD6
:100820006775693A20000A002575002E737761709C
:100830005F72616C745F726775693A20000A002507
:1008400075002E737761705F6C616C745F6C677597
:10085000693A20000A002575002E636170736C6F81
:10086000636B5F746F5F636F6E74726F6C3A2000BE
:100870000A002575002E737761705F636F6E747266
:100880006F6C5F636170736C6F636B3A20000A007A
:1008900025303258006B65796D61705F636F6E66ED
:1008A00069672E7261773A20000A002575002E6D67
:1008B0006F7573653A20000A002575002E6B657907
:1008C000626F6172643A20000A002575002E6D6126
:1008D000747269783A20000A002575002E656E61F1
:1008E000626C653A20000A00253032580064656267
:1008F00075675F636F6E6669672E7261773A200075
:100900000A0025750064656661756C745F6C6179B9
:1009100065723A20003F0074696D65725F726561AF
:1009200064333228293A202530346C580A006B652C
:1009300079626F6172645F69646C653A2025580A58
:10094000006B6579626F6172645F70726F746F6360
:100950006F6C3A2025580A00686F73745F6B657975
:10096000626F6172645F6C65647328293A20255850
:100970000A000A092D20537461747573202D0A0032
:100980004743433A20352E342E30204156522D4CC9
:100990004942433A20322E302E30204156525F4198
:1009A0005243483A2061767233350A004F50544919
:1009B0004F4E533A204C55464120424F4F544D41E3
:1009C000474943204D4F5553454B455920455854B1
:1009D00052414B455920434F4E534F4C4520434FB6
:1009E0004D4D414E4420343039360A004255494C71
:1009F000443A20633564366363332D6469727479D5
:100A0000202832333A31323A353620446563203279
:100A1000342032303231290A005649443A203078A5
:100A20004645454428544D4B29205049443A2030EE
:100A3000783634363428416C707336345F4144293B
:100A4000205645523A203078303030310A00444543
:100A500053433A20544D4B206B6579626F61726449
:100A6000206669726D7761726520666F7220416CD5
:100A7000707336340A000A092D2056657273696F47
:100A80006E202D0A000A6D6F7573653A206F6666D9
:100A90000A000A6D6F7573653A206F6E0A000A6B63
:100AA0006579626F6172643A206F66660A000A6B4C
:100AB0006579626F6172643A206F6E0A000A6D6137
:100AC000747269783A206F66660A000A6D61747202
:100AD00069783A206F6E0A000A64656275673A2089
:100AE0006F6E0A000A64656275673A206F66660A6F
:100AF000000A0A626F6F746C6F616465722E2E2E2D
:100B00002000433E20006565636F6E6669673A0AA0
:100B1000000011241FBECFEFD4E0DEBFCDBF04B66E
:100B200003FE27C080910D0290910E02A0910F024A
:100B3000B09110028730904BA740B04BD1F4109287
:100B40000D0210920E0210920F021092100214BEAB
:100B500084B7877F84BF0FB6F894A8958091600012
:100B6000886180936000109260000FBEE0E0F8E3BF
:100B7000099511E0A0E0B1E0E4E6F2E502C00590DD
:100B80000D92A433B107D9F722E0A4E3B1E001C08C
:100B90001D92AD30B207E1F70E948E090C94302906
:100BA0000C940000FF93EF93E0913401F091350134
:100BB000309709F00995EF91FF910895FC01859117
:100BC000803011F0EFDFFBCF0895FF27E0E230E245
:100BD00047FF0CC0419597FF09C0EDE26095709505
:100BE00080959095611D711D811D911D27FF02C08B
:100BF000219530E350E2AA27660F771F881F991FBF
:100C0000AA1FA41710F0A41B63955A95A9F7AA3040
:100C100008F0A95FA05DAF93F3956115710581059B
:100C2000910541F7ED3211F4EF93F395F21718F4B3
:100C30003F93F395FBCF8F91B5DFFA95E1F70895D8
:100C4000E991F9918591803021F0853219F0AADF80
:100C5000F9CF089520E0E89455915532C1F350330F
:100C600011F4689455915A3348F4505390F3220F7D
:100C7000022E220F220F200D250FF4CF0EF4219506
:100C800089919991533619F3533729F1533559F115
:100C9000BC0188279927E8945C3621F489919991C1
:100CA00068945591543639F446EF7EF077FF0DC0C5
:100CB0008FEF9FEF0AC055374AE039F0583540E1D1
:100CC00021F0523642E009F00895FF93EF937DDF63
:100CD000EF91FF91B7CFFF93EF93FC0181918030AB
:100CE000B9F360DFFBCFFF93EF9368DFF1CFDF93C2
:100CF000CF93CDB7DEB72596A3DFCF91DF910895CF
:100D00008AB180788AB98BB180788BB93A98429849
:100D100008950E94800684B114B885B18FEF85B91B
:100D2000EEE3F1E0A6E3B1E011921D9221E0E6349A
:100D3000F207D1F78091EE0182608093EE013D9A37
:100D4000459A8FEF99E628E1815090402040E1F7E5
:100D500000C000003D9845980895CF92DF92EF9231
:100D6000FF920F931F93CF93DF9306E311E0E80107
:100D7000D12C85E0C82E9EE7E92E91E0F92E8D2D2D
:100D800090E0FC013197E730F10520F4E65CFF4F7D
:100D90000C94E528509A589814C0519A599811C04B
:100DA000529A5A980EC0539A5B980BC0549A5C980A
:100DB00008C0559A5D9805C0569A5E9802C03A9A46
:100DC000429880EA8A95F1F783B1809598819817C7
:100DD00039F1888380910001882301F18091EE012F
:100DE00080FF04C083E891E00E94DE058091EE015F
:100DF00080FF0CC0809100011F928F93FF92EF92B1
:100E00000E9477060F900F900F900F908091EE0147
:100E100080FF04C08CE791E00E94DE05C0920001D3
:100E20000E948006D394219698E0D912A8CF809191
:100E300000018823B1F0815080930001882339F0AC
:100E4000AFE9BFE01197F1F700C000000AC0EEE380
:100E5000F1E0D8018D918D018193B1E00E331B0734
:100E6000C1F781E0DF91CF911F910F91FF90EF903B
:100E7000DF90CF900895E82FF0E0E25CFE4F808194
:100E8000089581FF03C03D9A459A08953D9845987D
:100E900008958091520108959FB7F89410924901E6
:100EA0009FBF90910302943009F057C09091E900E0
:100EB0009F703091EC00232F217030FD20E8922BA1
:100EC00024E02093E9002091EB0020FF43C0209113
:100ED000EE0027FF3FC020914601222321F0209100
:100EE000E80025FF37C01092460126E03091E80067
:100EF00035FD15C030910302343061F53091EB00BF
:100F000035FD28C0215021F481E08093460122C0A4
:100F1000EFE9FFE03197F1F700C00000E7CF8093E1
:100F2000F1008091E80085FD0AC08091E80080FF13
:100F3000FCCF8091E8008E778093E80006C08FB7E1
:100F4000F89421E0209349018FBF9F709093E900AE
:100F500080E008959F709093E9008FEF0895CF93FC
:100F6000DF9300D01F92CDB7DEB79C0180910302C2
:100F7000843019F593E099833B832A839093E900A9
:100F80008FEF9091E800815095FD06C095ED9A9500
:100F9000F1F700008111F5CF8091E80085FF0DC0C9
:100FA00040E050E063E070E0CE0101960E94590AF3
:100FB0008091E8008E778093E8000F900F900F905B
:100FC000DF91CF910895CF93DF9300D01F92CDB7DB
:100FD000DEB720910302243021F522E029839B8390
:100FE0008A8383E08093E9008FEF9091E80081503D
:100FF00095FD06C095ED9A95F1F700008111F5CFAA
:101000008091E80085FF0DC040E050E063E070E0B3
:10101000CE0101960E94590A8091E8008E77809354
:10102000E8000F900F900F90DF91CF9108952091DD
:1010300003022430F1F422E02093E9002FEF3091F5
:10104000E800215035FD06C035ED3A95F1F7000076
:101050002111F5CF2091E80025FF0BC040E050E0C2
:1010600065E070E00E94590A8091E8008E778093D5
:10107000E8000895CF93DF9320910302243039F5DF
:1010800021E02093E9002FEF3091E800215035FD59
:1010900006C035ED3A95F1F700002111F5CF20910A
:1010A000E80025FF14C0EC0140E050E068E070E08B
:1010B0000E94590A8091E8008E778093E80088E0CA
:1010C000FE01AAE4B1E001900D928A95E1F7DF916B
:1010D000CF9108950895209147012F5F822F62E3F9
:1010E0000E94C528992319F0209347010895109272
:1010F000470180914901882371F180910302843076
:1011000041F58091E9008F702091EC00922F917051
:1011100020FD90E8892B94E09093E9009091EB00FA
:1011200090FF14C09091EE0097FF10C09091E800DE
:1011300095FF03C01092F100F9CF9091E80090FF65
:1011400005C09091E8009E779093E8008F7080939F
:10115000E90010924901089542E061EC81E00E94AB
:101160005D0B42E061EC82E00E945D0B42E061ECCD
:1011700083E00E945D0B42E261EC84E00C945D0B25
:1011800080910502833009F453C030F4813071F04E
:10119000823009F48CC008958A3009F478C08B300D
:1011A00009F45EC0893009F09AC020C08091040221
:1011B000813A09F094C08091E800877F8093E8002D
:1011C0008091080290910902892B21F468E08AE459
:1011D00091E003C060E080E090E070E00E94A40A2B
:1011E0008091E8008B778093E80008958091040255
:1011F000813209F074C08091080290910902892B14
:1012000009F06DC08091E800877F8093E8008091AD
:10121000E80082FD05C0809103028111F8CF5FC014
:101220008091F100809352018091E8008B7753C048
:1012300080910402813A09F052C080910802909195
:101240000902892B09F04BC08091E800877F8093C9
:10125000E8008091E80080FFFCCF80910B0136C050
:10126000809104028132D9F580910802909109029F
:10127000892BA9F58091E800877F8093E8000E9480
:10128000920B8091060280930B010C94EE148091D6
:101290000402813221F58091E800877F8093E80085
:1012A0000E94920B809107028093530108958091D0
:1012B0000402813AA1F48091E800877F8093E800DE
:1012C0008091E80080FFFCCF809153018093F10072
:1012D0008091E8008E778093E8000C94920B08953B
:1012E00008950C94700980915201809348011092E6
:1012F000520180E00E9441070E94FC0F0C94EE1402
:101300000C9473090E94CA1B80910102882329F062
:101310000E94F31B81110C94430A089584B7877FC0
:1013200084BF0FB6F894A89580916000886180937F
:101330006000109260000FBE90E080E80FB6F89455
:1013400080936100909361000FBE8CE497E00E944F
:101350009E1B8FEA91E00E94DE050E9471090E94A7
:101360004F0F0E94E40B0E94370C8091E2008460D2
:101370008093E2007894809103028430E1F781ED5C
:1013800097E0019739F0EFE9FFE03197F1F700C0FE
:101390000000F7CF8EE991E00E94DE050E94510F18
:1013A00081E091E00E94900E8DE891E00E94DE05C0
:1013B0000E94700980910302853019F40E9482090D
:1013C000F9CF0E94570FF6CF0E94071C8091480169
:1013D0008093520108950C94E409292F3327233078
:1013E0003105C9F060F42130310581F0223031053A
:1013F00009F041C084E790E02BED31E040C021329C
:101400003105E1F02232310531F135C082E190E061
:101410002FE432E034C099278130910549F028F05B
:10142000029749F5E7EBF1E005C0E7EDF1E002C016
:10143000EDECF1E0849190E09F0121C06430D8F49C
:10144000E62FF0E0EE0FFF1FE05EFE4F20813181BE
:1014500089E090E014C0643070F470E0FB01EE0F9E
:10146000FF1FE85EFE4F20813181FB01EC5EFE4FE5
:10147000808190E004C080E090E020E030E0FA015C
:1014800031832083089584E089BD86E089BD09B455
:1014900000FEFDCF8091D8008F7D8093D800809191
:1014A000E00082608093E0008091E00081FDFCCF4D
:1014B0000895CF92DF92EF92FF920F931F93CF93F5
:1014C000DF93EC018B017A010E94B10B811133C0D3
:1014D000E114F10439F0F70180819181081B190BA7
:1014E000C80FD91FC12CD12C0115110519F18091FC
:1014F000E80085FD16C08091E8008E778093E800B3
:10150000E114F10449F0F70180819181C80ED91EE0
:10151000D182C08285E00FC00E94B10B882321F3E5
:101520000AC089918093F10001501109FFEFCF1A91
:10153000DF0ADACF80E0DF91CF911F910F91FF900A
:10154000EF90DF90CF90089520910A0230910B0226
:101550002617370748F06115710539F42091E80026
:101560002E772093E80001C0B901FC0120E061154D
:10157000710561F1809103028823D9F18530D9F199
:101580008091E80083FD39C08091E80082FD2BC086
:101590008091E80080FFEBCF8091F20090E0611530
:1015A000710551F08830910538F421912093F100B4
:1015B000615071090196F3CF21E0089709F020E00E
:1015C0008091E8008E778093E800D1CF2111D2CFAF
:1015D0000AC080910302882361F0853061F0809118
:1015E000E80083FD0AC08091E80082FFF2CF80E02E
:1015F000089582E0089583E0089581E008952091A0
:101600000A0230910B022617370748F06115710561
:1016100039F42091E8002E772093E80001C0B90149
:10162000FC0120E06115710579F1809103028823A6
:1016300009F43DC0853009F43CC08091E80083FD89
:101640003AC08091E80082FD2CC08091E80080FFC4
:10165000E9CF8091F20090E06115710559F0883072
:10166000910540F424912093F10031966150710965
:101670000196F2CF21E0089709F020E08091E80080
:101680008E778093E800CECF2111CFCF0AC0809112
:101690000302882361F0853061F08091E80083FDCA
:1016A0000AC08091E80082FFF2CF80E0089582E0D6
:1016B000089583E0089581E00895982F953068F5A6
:1016C0009093E900981739F07091EC002091ED00AB
:1016D0005091F00003C0242F762F50E021FD02C06E
:1016E0009F5FECCF3091EB003E7F3093EB00309169
:1016F000ED003D7F3093ED003091EB003160309391
:10170000EB007093EC002093ED005093F0002091DB
:10171000EE0027FDE5CF80E008958F708093E9000B
:1017200081E008958091040287FF11C08091E80054
:1017300082FD05C0809103028111F8CF11C0809114
:10174000E8008B770BC080910302882349F08091D9
:10175000E80080FFF8CF8091E8008E778093E80062
:1017600008952091E4003091E50095E64091EC0069
:10177000842F817040FF23C08091E80080FD1DC050
:1017800080910302882399F0853099F08091EB00D5
:1017900085FD11C04091E4005091E5002417350704
:1017A00029F3915011F09A01E1CF84E0089582E08D
:1017B000089583E0089581E0089580E008954091C0
:1017C000E80042FFDDCF08950E94410C0E94440CC6
:1017D000E0EEF0E0808181608083E8EDF0E08081E0
:1017E0008F77808319BCE3E6F0E08081816080839D
:1017F0001092020208950E94410C0E94440C8091B4
:10180000D8008F778093D8008091D800806880932B
:10181000D8008091D8008F7D8093D80084E089BD66
:1018200086E089BD09B400FEFDCF1092030210923C
:10183000FF01109201021092000242E060E080E09D
:101840000E945D0B8091E1008E7F8093E10080918A
:10185000E20081608093E2008091E20088608093E2
:10186000E2008091E0008E7F8093E0000895E3E63F
:10187000F0E080818E7F808381E0809302020C946F
:10188000FB0B1092E20008951092E10008951F9260
:101890000F920FB60F9211242F933F934F935F93A4
:1018A0006F937F938F939F93AF93BF93EF93FF9328
:1018B0008091E10082FF0BC08091E20082FF07C0AF
:1018C0008091E1008B7F8093E1000E946B08809102
:1018D000E10080FF19C08091E20080FF15C0809177
:1018E000E2008E7F8093E2008091E200806180932D
:1018F000E2008091D80080628093D80019BC85E016
:10190000809303020E9480098091E10084FF30C02F
:101910008091E20084FF2CC084E089BD86E089BD0F
:1019200009B400FEFDCF8091D8008F7D8093D80050
:101930008091E1008F7E8093E1008091E2008F7EB4
:101940008093E2008091E20081608093E2008091C8
:10195000FF01882311F084E007C08091E30087FD38
:1019600002C081E001C083E0809303020E94EB0982
:101970008091E10083FF29C08091E20083FF25C0B0
:101980008091E100877F8093E10082E080930302F1
:101990001092FF018091E1008E7F8093E1008091A1
:1019A000E2008E7F8093E2008091E200806180936C
:1019B000E20042E060E080E00E945D0B8091F00078
:1019C00088608093F0000E946A08FF91EF91BF91B8
:1019D000AF919F918F917F916F915F914F913F91C7
:1019E0002F910F900FBE0F901F9018951F920F927E
:1019F0000FB60F9211242F933F934F935F936F93E2
:101A00007F938F939F93AF93BF93CF93DF93EF9386
:101A1000FF93C091E900CF708091EC00D82FD17076
:101A200080FDD0E81092E9008091F000877F8093DC
:101A3000F00078940E943A0D1092E9008091F00035
:101A400088608093F000CD2BCF70C093E900FF91A8
:101A5000EF91DF91CF91BF91AF919F918F917F9146
:101A60006F915F914F913F912F910F900FBE0F900B
:101A70001F9018951F93CF93DF93CDB7DEB7AA972A
:101A80000FB6F894DEBF0FBECDBFE4E0F2E0809168
:101A9000F100819322E0EC30F207C9F70E94C00800
:101AA0008091E80083FF24C1809104029091050297
:101AB000492F50E04A30510508F01AC1FA01EF5B96
:101AC000FF4F0C94E528803881F0823809F010C16E
:101AD000809108028F708093E9008091EB0085FB74
:101AE000882780F91092E90006C080910002909149
:101AF0000102911182609091E800977F9093E80035
:101B00008093F1001092F100C8C0282F2D7F09F0BA
:101B1000EFC0882319F0823061F0EAC0809106029C
:101B2000813009F0E5C0933009F080E08093010234
:101B30002BC080910602811127C0809108028F700E
:101B400009F4D6C08093E9002091EB0020FF1CC06F
:101B5000933021F48091EB00806214C09091EB00EF
:101B600090619093EB0021E030E0A90102C0440FA6
:101B7000551F8A95E2F74093EA001092EA0080919F
:101B8000EB0088608093EB001092E9008091E80000
:101B9000877F86C08111ACC0109106021F778091AB
:101BA000E3008078812B8093E3008091E800877FB9
:101BB0008093E8000E94920B8091E80080FFFCCFA8
:101BC0008091E30080688093E300111102C082E0FD
:101BD00001C083E0809303028BC08058823008F0FC
:101BE00087C080910602909107028C3D53E09507D3
:101BF00079F583E08A838AE289834FB7F894DE011E
:101C0000139620E03EE051E2E32FF0E050935700BE
:101C1000E49120FF03C0E295EF703F5FEF708E2FDD
:101C200090E0EA3010F0C79601C0C0968D939D9366
:101C30002F5F243149F74FBF8091E800877F809361
:101C4000E8006AE270E0CE0101960E94A40A14C086
:101C5000AE014F5F5F4F609108020E94ED09BC0129
:101C6000892B09F445C09091E800977F9093E80094
:101C700089819A810E94FF0A8091E8008B77809386
:101C8000E80036C08038A1F58091E800877F809316
:101C9000E8008091FF018093F1008091E8008E7749
:101CA0008093E8000E94920B23C0811121C0809193
:101CB00006029091070299270297D4F48091E800D8
:101CC000877F8093E800809106028093FF010E9445
:101CD000920B8091FF01811106C08091E30087FD86
:101CE00002C081E001C084E0809303020E94AC083E
:101CF0008091E80083FF0AC08091E800877F80938D
:101D0000E8008091EB0080628093EB00AA960FB60A
:101D1000F894DEBF0FBECDBFDF91CF911F91089524
:101D200090935901809358010895E0915801F091E2
:101D30005901309721F00190F081E02D099480E065
:101D40000895EF92FF920F931F93CF93DF93E0914B
:101D50005801F09159013097B1F18C010280F38163
:101D6000E02D09958091EE0182FF2DC080FF04C017
:101D70008CE693E00E94DE05E80118E086E6E82E96
:101D800083E0F82E8091EE0180FF0BC088811F92C6
:101D90008F93FF92EF920E9477060F900F900F9013
:101DA0000F90115021961111EDCF8091EE0180FF1F
:101DB0000AC084E693E0DF91CF911F910F91FF90CD
:101DC000EF900C94DE05DF91CF911F910F91FF9062
:101DD000EF900895E0915801F0915901309721F06A
:101DE0000480F581E02D09940895CF93DF9320912D
:101DF0005601309157012817390709F1909357017F
:101E000080935601E0915801F09159013097B9F053
:101E1000EC010680F781E02D09958091EE0182FFAB
:101E20000EC080FF0CC0DF93CF9386E593E09F93B5
:101E30008F930E9477060F900F900F900F90DF9175
:101E4000CF910895CF93DF932091540130915501A4
:101E50002817390709F19093550180935401E091B7
:101E60005801F09159013097B9F0EC010084F185E7
:101E7000E02D09958091EE0182FF0EC080FF0CC01D
:101E8000DF93CF9386E493E09F938F930E9477062E
:101E90000F900F900F900F90DF91CF9108950C94B9
:101EA000FD0F0E94341C0E9489060C943F1EBF92B5
:101EB000CF92DF92EF92FF920F931F93CF93DF9316
:101EC00000D000D01F92CDB7DEB70E94AD060BE563
:101ED00011E0F12C8F2D0E943B07B82EF801C08035
:101EE000C82639F4F3940F5F1F4FF8E0FF12F2CFCA
:101EF00030C08091EE0181FD0E94FE0FD12CEE24B6
:101F0000E3948C2D8E21F9F0D982FA8291E08B2D09
:101F10008E2109F490E09B830E943D1C8160782F04
:101F20009D838C8349815A816B818D810E943410FD
:101F300049815A816B817C818D810E94B61BF80199
:101F400080818E258083D394EE0CF8E0DF12D9CF08
:101F5000C9CF8FEF89838A831B820E943D1C8160D9
:101F6000782F9D838C8349815A816B818D810E945A
:101F700034100E94B51B0E94C6210E94950E9091BC
:101F80005A01891741F10E94950E80935A01909150
:101F9000EE0192FF0EC090FF0CC01F928F9387E757
:101FA00093E09F938F930E9477060F900F900F906E
:101FB0000F9080915A010F900F900F900F900F90FB
:101FC000DF91CF911F910F91FF90EF90DF90CF9015
:101FD000BF900C94C71B0F900F900F900F900F9015
:101FE000DF91CF911F910F91FF90EF90DF90CF90F5
:101FF000BF9008950C94410708950895EF92FF92C1
:102000000F931F93CF93DF9380E993E00E94DE0547
:10201000C0E0D0E088E2E82E81E0F82E02E813E08C
:102020008C2F0E943B070E94A31BFF92EF921F92EE
:102030008F93DF93CF931F930F930E947706219680
:102040008DB79EB708960FB6F8949EBF0FBE8DBF92
:10205000C830D10529F7DF91CF911F910F91FF90E3
:10206000EF90089508950895CF93DF93CDB7DEB72D
:102070002B970FB6F894DEBF0FBECDBF942F4F83C2
:10208000252F588769877A878B874A855B85452BFB
:1020900031F02F3F31F481E09F3F19F403C081E01C
:1020A00001C080E080FD07C04F81588569857A8531
:1020B0008B850E94B61BDE01119686E0FD01119210
:1020C0008A95E9F785E0FE01379601900D928A9591
:1020D000E1F749815A816B817C818D819E810E94CB
:1020E0000C182B960FB6F894DEBF0FBECDBFDF9154
:1020F000CF910895CF93882309F4E8C0C82F823880
:10210000A1F40E94950E81FDE1C089E30E94001BAD
:102110000E94781B2FEF81EE94E021508040904088
:10212000E1F700C0000089E315C08338C1F40E94C4
:10213000950E80FDCBC083E50E94001B0E94781B9A
:102140002FEF81EE94E0215080409040E1F700C0F5
:10215000000083E50E941D1BCF910C94781B8438EE
:10216000A1F40E94950E82FDB1C087E40E94001B7D
:102170000E94781B2FEF81EE94E021508040904028
:10218000E1F700C0000087E4E5CF8CEF8C0F813AC7
:1021900048F48C2F0E942626811198C08C2F0E9413
:1021A000001BDACF80E28C0F883048F4C77081E0E2
:1021B00001C0880FCA95EAF70E943E1BCDCF8BE580
:1021C0008C0F833078F4C53A29F0C63A31F083E8B1
:1021D00090E005C081E890E002C082E890E0CF91F5
:1021E0000C94F50E88E58C0F853108F06FC0C83A65
:1021F00061F1C93A69F1CA3A71F1CB3A79F1CC3A55
:1022000081F1CD3A89F1CE3A91F1CF3A99F1C13BC2
:10221000A1F1C03BA9F1C23BB1F1C33BB9F1C43B51
:10222000C1F1C53BC9F1C63BD1F1C73BD9F1C83BB0
:10223000E1F1C93BE9F1CA3BF1F1CB3BF9F1CC3B10
:1022400009F43FC080E090E03EC082EE90E03BC0E9
:1022500089EE90E038C08AEE90E035C085EB90E0E2
:1022600032C086EB90E02FC083EB90E02CC084EB73
:1022700090E029C087EB90E026C08CEC90E023C072
:102280008DEC90E020C083E891E01DC08AE891E0E9
:102290001AC082E991E017C084E991E014C081E29C
:1022A00092E011C083E292E00EC084E292E00BC0A3
:1022B00085E292E008C086E292E005C087E292E003
:1022C00002C08AE292E0CF910C94220FCF91089540
:1022D000882309F466C08238A1F40E94950E81FF1C
:1022E00060C089E30E94001B0E94781B2FEF81EEE3
:1022F00094E0215080409040E1F700C0000089E365
:1023000015C08338B9F40E94950E80FF4AC083E55A
:102310000E94001B0E94781B2FEF81EE94E0215059
:1023200080409040E1F700C0000083E50E941D1B43
:102330000C94781B8438A1F40E94950E82FF31C062
:1023400087E40E94001B0E94781B2FEF81EE94E02F
:10235000215080409040E1F700C0000087E4E6CFC4
:102360009CEF980F913A10F390E2980F983050F448
:10237000877091E001C0990F8A95EAF7892F0E9432
:10238000441BD6CF9BE5980F933020F480E090E07B
:102390000C94F50E885A853120F480E090E00C947E
:1023A000220F0895882321F00E943E1B0C94781B75
:1023B0000895882321F00E94441B0C94781B0895F3
:1023C000CF92DF92EF92FF920F931F93CF93DF9301
:1023D00000D000D01F92CDB7DEB76C0185E0F601CA
:1023E000DE01119601900D928A95E1F7F601408188
:1023F0005181238134812115310531F05F3F31F462
:1024000091E04F3F19F403C091E001C090E090FDCE
:10241000C5C2F601F280E580E2948FE0E822722FD7
:102420003D832C836F2D8D810E94751A8C010E9433
:10243000741A0E946419E12FE295EF708E2F90E0DC
:10244000FC01E55BFF4F0C94E528812F807F1F7016
:10245000882311F01295107FFF2049F0112309F411
:1024600052C2812F0E94511B0E94781B4CC2802FA8
:102470000E946811112309F491C2812F0E94571BF9
:102480000F900F900F900F900F90DF91CF911F91B1
:102490000F91FF90EF90DF90CF900C94781B812FDD
:1024A000807F1F70803211F01295107F002319F089
:1024B000013009F12BC0FF20A9F0EE2059F1F1E025
:1024C000812FEF1228C00F900F900F900F900F9058
:1024D000DF91CF911F910F91FF90EF90DF90CF9000
:1024E0000C94611BEE2021F081E0E81609F456C23D
:1024F0000E94641B2DC0FF20E9F0E5E0EE1508F412
:102500004DC20E943B1B812329F022C0FF20F1F025
:10251000E11015C0812F0F900F900F900F900F902A
:10252000DF91CF911F910F91FF90EF90DF90CF90AF
:102530000C94D211F4E0FE1508F430C209C0F60183
:10254000858180FFE0C18F708583E4CFE110EEC10B
:10255000812F61C1812F86958695837019F0813016
:10256000B9F01CC2FF2019F0C801937002C080E0CE
:1025700090E00F900F900F900F900F90DF91CF9100
:102580001F910F91FF90EF90DF90CF900C94F50E7C
:10259000FF2019F0C801937002C080E090E00F9016
:1025A0000F900F900F900F90DF91CF911F910F918F
:1025B000FF90EF90DF90CF900C94220F802FFF20A0
:1025C00019F00E944C2002C00E94B4200F900F907E
:1025D0000F900F900F90DF91CF911F910F91FF906F
:1025E000EF90DF90CF900C943921812F837009F008
:1025F00070C0F110D3C1202F229526952770220F8D
:10260000220F602F6F70862F90E0A0E0B0E06C0189
:102610007D01022E04C0CC0CDD1CEE1CFF1C0A94B4
:10262000D2F704FF12C08FE090E0A0E0B0E004C059
:10263000880F991FAA1FBB1F2A95D2F7BC01CD0195
:10264000609570958095909503C060E070E0CB0137
:102650001695169513701230B1F040F56C297D294E
:102660008E299F29113031F10F900F900F900F900C
:102670000F90DF91CF911F910F91FF90EF90DF901E
:10268000CF900C9489196C297D298E299F290F9050
:102690000F900F900F900F90DF91CF911F910F919E
:1026A000FF90EF90DF90CF900C94A3190E948919AE
:1026B000C701B6010F900F900F900F900F90DF9110
:1026C000CF911F910F91FF90EF90DF90CF900C94DE
:1026D0006F19FF2019F0812F817001C08695882322
:1026E00009F45CC1202F229526952770220F220F16
:1026F000602F6F70862F90E0A0E0B0E06C017D014C
:10270000022E04C0CC0CDD1CEE1CFF1C0A94D2F778
:1027100004FF12C08FE090E0A0E0B0E004C0880F9A
:10272000991FAA1FBB1F2A95D2F7BC01CD01609546
:1027300070958095909503C060E070E0CB01169590
:10274000169513701230B1F040F56C297D298E2951
:102750009F29113031F10F900F900F900F900F9033
:10276000DF91CF911F910F91FF90EF90DF90CF906D
:102770000C94501A6C297D298E299F290F900F9057
:102780000F900F900F90DF91CF911F910F91FF90BD
:10279000EF90DF90CF900C94621A0E94501AC701FC
:1027A000B6010F900F900F900F900F90DF91CF9187
:1027B0001F910F91FF90EF90DF90CF900C943E1AF5
:1027C000003FC1F128F480E4800F803250F096C0C1
:1027D000023F09F45EC008F449C0033F09F46CC02D
:1027E0008DC0F02FF071EF2E812F8F71FF2051F0EF
:1027F0000E94D719802FEE2019F08295807F8BCE12
:102800008F7089CE0E94F819802FEE2019F08295E2
:10281000807F01C08F700F900F900F900F900F90DE
:10282000DF91CF911F910F91FF90EF90DF90CF90AC
:102830000C94D911FF20A9F084E08E1508F4AEC0E5
:10284000812F8F710F900F900F900F900F90DF914D
:10285000CF911F910F91FF90EF90DF90CF900C944C
:102860001D1AE5E0EE1508F499C0EACFFF2099F0B3
:10287000812F8F710F900F900F900F900F90DF911D
:10288000CF911F910F91FF90EF90DF90CF900C941C
:10289000D719FF2069F3812F8F710F900F900F9040
:1028A0000F900F90DF91CF911F910F91FF90EF90BC
:1028B000DF90CF900C94F819FF2089F0812F8F7151
:1028C0000F900F900F900F900F90DF91CF911F916D
:1028D0000F91FF90EF90DF90CF900C94C2190F9062
:1028E0000F900F900F900F90DF91CF911F910F914C
:1028F000FF90EF90DF90CF900C94BD19FF2099F0DE
:10290000EE2009F4B5CF802F0F900F900F900F900D
:102910000F90DF91CF911F910F91FF90EF90DF907B
:10292000CF900C947A10EE2009F4B5CF802F0F9041
:102930000F900F900F900F90DF91CF911F910F91FB
:10294000FF90EF90DF90CF900C946811412F4F7063
:10295000602FC6010E945A1D0F900F900F900F908C
:102960000F90DF91CF911F910F91FF90EF90DF902B
:10297000CF900C94BF18412F4F70602FC6010F905D
:102980000F900F900F900F90DF91CF911F910F91AB
:10299000FF90EF90DF90CF900C945D1D0F900F9003
:1029A0000F900F900F90DF91CF911F910F91FF909B
:1029B000EF90DF90CF9008950E945E1B0E942D1B28
:1029C0000E94781B0E946C220E94392180E090E0D6
:1029D0000E94F50E80E090E00C94220F0E944E1BA6
:1029E0000C94DC141F93CF93DF9300D000D01F9280
:1029F000CDB7DEB7942F4983252F5A836B837C8311
:102A00008D834C815D81452B31F02F3F31F481E086
:102A10009F3F19F403C081E001C080E0182F1170BE
:102A200080FD31C049815A816B817C818D810E94FA
:102A3000751A292F22952F702C3030F42A30A0F4EB
:102A40002250223030F022C02C30C9F02F30B9F0A3
:102A50001DC0853A28F48430C0F4823028F415C0B3
:102A600090E2980F983088F0883E30F4803E68F409
:102A70008450813A58F409C0803F41F406C093FB6A
:102A8000112710F903C010E001C011E0812F0F9051
:102A90000F900F900F900F90DF91CF911F9108959D
:102AA000CF93DF9300D000D01F92CDB7DEB70F9049
:102AB0000F900F900F900F90DF91CF910895CF93CB
:102AC000DF9300D000D000D0CDB7DEB726960FB68A
:102AD000F894DEBF0FBECDBFDF91CF910895CF93A5
:102AE000DF93C091630180916401C817A1F0D0E029
:102AF000CE0166E070E00E94B428FC01EB59FE4F65
:102B00004081518162817381848195810E945F152A
:102B10002196C770E8CFDF91CF910895409195013C
:102B2000509196016091970170919801809199015F
:102B300090919A010C945F151F93CF93DF9380912E
:102B40009A0182958F7009F066C080919701882361
:102B500009F461C02091630110916401C091950155
:102B6000D0919601E0919801F091990181E0CF3FD9
:102B700009F080E0482F211709F44DC0309721F06B
:102B8000DF3F21F080E003C081E001C0842F30E00E
:102B900080FD3DC0C90166E070E00E94B428DC0100
:102BA000AB59BE4F11968C9111978D1330C08C91FB
:102BB0008C132DC012968C911297811128C01396F8
:102BC0008D919C9114978E179F0708F401978E1B87
:102BD0009F0B883C9105D8F480919A018F70806199
:102BE00080939A01C90166E070E00E94B428FC015C
:102BF000E659FE4F90819F709061908385E991E046
:102C00000E94E011DF91CF911F910C946F152F5FFF
:102C10003F4F2770B0CFDF91CF911F910895AF92B2
:102C2000BF92CF92DF92EF92FF920F931F93CF93B9
:102C3000DF93CDB7DEB761970FB6F894DEBF0FBE56
:102C4000CDBF7C0185E0F701DE011D9601900D925C
:102C50008A95E1F7D7014C9111962C911197129614
:102C6000DC90129713960D911C9114975091950139
:102C7000609196018091980190919901009731F0AF
:102C80006F3F31F431E05F3F19F403C031E001C020
:102C900030E0B32FB170BB2E30FD76C1A09097010C
:102CA000AA2009F4D2C030919A010817190728F018
:102CB000F801E81BF90BCF0104C080959095800FB7
:102CC000911FCC24C394883C910588F0C12C307F9F
:102CD00009F0A6C0702F198B088B522F6D2D898992
:102CE0000E94501585E991E00E94E011C3C0832F36
:102CF000807F09F059C0261315C0451313C0CD2C91
:102D0000D11010C03F70306130939A010E948E152F
:102D100085E991E00E94E01180919A01D701159612
:102D20008C9368C10115110531F02F3F31F481E01A
:102D30004F3F19F403C081E001C080E080FD03C073
:102D400081E08D2502C080E090E0B82FB170CB2EDD
:102D500080FF1FC0E091630130916401E31709F423
:102D600025C1F0E0CF0166E070E00E94B428DC01EC
:102D7000AB59BE4F11968C911197281307C08C91B7
:102D8000481304C012968C91D81203C03196E77094
:102D9000E5CFCD2CDD2009F42DC180919A01816011
:102DA00080939A01C12C26C1261308C0451306C082
:102DB000D11004C080919A01D701B9C04D872E87E8
:102DC000DF86702F198B088B522F6D2D89890E94F9
:102DD000F2148823A1F1DD2091F120919A01822F34
:102DE00082958F7090E0029774F080919501909198
:102DF000960198878F8319861B870A872C87CE01B7
:102E000007960E94E01186E0F701A5E9B1E0019084
:102E10000D928A95E1F70E949C150E948E1512C0B2
:102E2000261791F14D872E87DF86702F198B088B1F
:102E3000522F6D2D89890E94F214811139C0C7016A
:102E40000E94E011CC24C394D5C00817190708F4D8
:102E500047C0F801E81BF90BCF01883C910508F445
:102E600044C0C12C702F198B088B522F6D2D89896E
:102E70000E945015E5E9F1E086E0DF011D928A9598
:102E8000E9F70E948E15B6C04513CCCFD110CACF3A
:102E900080919A01F7018583C7010E94E01186E0C5
:102EA000E5E9F1E0DF011D928A95E9F7CA2CA2C09D
:102EB000DD2029F220919A01822F82958F7090E077
:102EC00002970CF4A0CF80919501909196019A837E
:102ED00089831B821D830C832E83CE01019691CFA3
:102EE00080959095800F911FB8CFCD2CDD2009F4EF
:102EF000A6CF261333C0451331C020919A0120FD7F
:102F000024C0822F82958F70482F50E041155105C3
:102F1000E1F0D70115962C9315974F30510549F0E4
:102F20008F5F982F9295907F822F8F70892B1596A7
:102F30008C93C7010E94E01186E0F701A5E9B1E09A
:102F400001900D928A95E1F79CCF86E0F701A5E903
:102F5000B1E001900D928A95E1F74CC04D872E8724
:102F6000DF86702F198B088B522F6D2D89890E9457
:102F7000F214811148CF80919A01816080939A0167
:102F8000C7010E94E01136C0DD2009F458CF4D87FB
:102F90002E87DF86702F198B088B522F6D2D898914
:102FA0000E94F214882309F44ACF2DCF702F198B79
:102FB000088B522F6D2D89890E94751A292F229511
:102FC0002F70223028F49F7039F0811105C00BC09A
:102FD000243028F49F7049F4805E883020F0C701C7
:102FE0000E94E011BC2CCB2C05C0F7019581907F8D
:102FF00099F7F9CF8C2D61960FB6F894DEBF0FBE0E
:10300000CDBFDF91CF911F910F91FF90EF90DF9097
:10301000CF90BF90AF900895CF93DF93CDB7DEB739
:103020002C970FB6F894DEBF0FBECDBF4F835887E5
:1030300069877A878B879C87CE0107960E940F1637
:103040008823D1F09F8188852A853B85232B31F009
:103050008F3F31F481E09F3F19F403C081E001C04C
:1030600080E080FD6FC04F81588569857A858B85AA
:103070009C850E945F1566C086E0FE013796DE01E2
:10308000119601900D928A95E1F7FF81E8856A8596
:103090007B856115710531F0EF3F31F481E0FF3F31
:1030A00019F403C081E001C080E080FD4BC0809135
:1030B000640190E09C012F5F3F4F277033274091C0
:1030C000630150E02417350709F443C0F983EA830C
:1030D0007D836C8366E070E00E94B428DC01AB590C
:1030E000BE4F96E0FE01319601900D929A95E1F760
:1030F000209364010E946F1525C090E066E070E0A7
:103100000E94B4288B599E4F0E940F16882371F19C
:103110008091630190E066E070E00E94B428FC01B9
:10312000EB59FE4F40815181628173818481958189
:103130000E945F158091630190E001968770992746
:103140008093630180916301909164018913D5CFCD
:103150000DC00E94EE141092640110926301E5E923
:10316000F1E086E0DF011D928A95E9F72C960FB613
:10317000F894DEBF0FBECDBFDF91CF910895DF92EF
:10318000EF92FF920F931F93CF93DF93FC01892B54
:1031900009F488C0E12CF12CDD24D394EF012196B1
:1031A0008491853709F460C058F4843708F04EC024
:1031B000843008F068C08130D1F0823071F172C083
:1031C000883709F45BC050F4863709F453C0873759
:1031D00009F068C08E2D0E944B1B52C09CE7980FCF
:1031E000903708F05FC08F770E9468114EC08F0142
:1031F0000E5F1F4FFE01849190E2980F983050F4BB
:103200008770FD2D01C0FF0F8A95EAF78F2F0E946E
:10321000511B15C00E947A1014C08F010E5F1F4F02
:10322000FE01849190E2980F983068F48770FD2D2C
:1032300001C0FF0F8A95EAF78F2F0E94571B0E944B
:10324000781BE80122C00E946811FBCFCF010296D3
:10325000FE01C491CC2361F0EFE9FFE03197F1F773
:1032600000C00000C150F6CFCF010296FE01F490DD
:10327000EC010BC00E943B1BE82E07C00E944E1BB6
:103280000E94781B02C00E947A108F2D882341F083
:10329000EFE9FFE03197F1F700C000008150F6CF71
:1032A000FE017CCFDF91CF911F910F91FF90EF90A6
:1032B000DF9008956093DB017093DC018093DD0162
:1032C0009093DE010C94C61B08956093DF01709308
:1032D000E0018093E1019093E2010C94C51B0F93F0
:1032E0001F930091DF011091E0012091E1013091E5
:1032F000E201602B712B822B932B6093DF01709383
:10330000E0018093E1019093E2011F910F910C94F1
:10331000C51B0F931F930091DF011091E0012091D5
:10332000E1013091E20160237123822393236093B2
:10333000DF017093E0018093E1019093E2011F911E
:103340000F910C94C51B0F931F930091DF011091F7
:10335000E0012091E1013091E2016027712782278D
:1033600093276093DF017093E0018093E1019093D4
:10337000E2011F910F910C94C51B60E070E0CB013E
:103380000C945A190F931F9341E050E060E070E0F5
:103390008A019B0104C0000F111F221F331F8A9551
:1033A000D2F7C901B8011F910F910C945A190F93CC
:1033B0001F9341E050E060E070E004C0440F551FEF
:1033C000661F771F8A95D2F78091DB019091DC010F
:1033D000A091DD01B091DE018A019B01082B192B20
:1033E0002A2B3B2BC901B8011F910F910C945A193C
:1033F0000F931F9341E050E060E070E004C0440F81
:10340000551F661F771F8A95D2F740955095609596
:1034100070958091DB019091DC01A091DD01B0916C
:10342000DE018A019B01082319232A233B23C901BA
:10343000B8011F910F910C945A190F931F9341E0FB
:1034400050E060E070E004C0440F551F661F771F16
:103450008A95D2F78091DB019091DC01A091DD018A
:10346000B091DE018A019B01082719272A273B27F3
:10347000C901B8011F910F910C945A190F931F9312
:103480000091DB011091DC012091DD013091DE0122
:10349000602B712B822B932B1F910F910C945A1937
:1034A0000F931F930091DB011091DC012091DD014E
:1034B0003091DE0160237123822393231F910F91AA
:1034C0000C945A190F931F930091DB011091DC01AA
:1034D0002091DD013091DE0160277127822793273B
:1034E0001F910F910C945A1908958F929F92AF9249
:1034F000BF92DF92EF92FF920F931F93CF93DF93D0
:1035000000D000D01F92CDB7DEB76B837C838D8354
:103510008A018C819D81892B31F01F3F31F481E03C
:103520004F3F19F403C081E001C080E080FF03C079
:1035300080E090E054C08B81882309F43DC08090E6
:10354000DB019090DC01A090DD01B090DE01809164
:10355000DF019091E001A091E101B091E201882AA0
:10356000992AAA2ABB2A2FE1E22EF12CD501C40107
:103570000E2C04C0B695A795979587950A94D2F717
:1035800080FD06C081E0E81AF10880F7D12C07C061
:10359000DE2CB8018E2D0E947B1D019799F3E12F3F
:1035A000F0E093E0EE0FFF1F9A95E1F7E556FE4F2E
:1035B000E00FF11DD0820CC0E12FF0E083E0EE0FB0
:1035C000FF1F8A95E1F7E556FE4FE00FF11DD08011
:1035D00009831A8369817A818D2D0E947B1D0F904A
:1035E0000F900F900F900F90DF91CF911F910F913F
:1035F000FF90EF90DF90BF90AF909F908F900895D5
:1036000020910C0130910D01F90132969FEF40E0BD
:103610005191851789F09F3F19F4511101C0942FE2
:103620004F5F4630A9F79F3F39F0F901E90FF11DCF
:1036300097FDFA95828308950895E0910C01F09129
:103640000D019F012A5F3F4F9281891301C01282B1
:103650003196E217F307C1F7089581E090E0E09119
:103660000C01F0910D01E80FF91F108201968830CE
:103670009105A9F708958091ED0108959091ED01CC
:10368000892B8093ED01089580959091ED01892318
:103690008093ED0108958093ED0108951092ED015E
:1036A00008959091EC01892B8093EC010895809509
:1036B0009091EC0189238093EC0108951092EC0124
:1036C00008958093E30108951092E3010895809195
:1036D0000C0190910D01FC0131969C01285F3F4F38
:1036E00080E0919191118F5FE217F307D1F7089570
:1036F000E0910C01F0910D018091ED018083E0914A
:103700000C01F0910D0190818091EC01892B808357
:103710008091E301882361F0E0910C01F0910D01AB
:103720009081892B80830E94671B81111092E30195
:1037300080910C0190910D010C94A10E9093350194
:103740008093340108958295982F9373292F220F27
:10375000220F982F9C7C96959695922B892F857594
:10376000880F9A7A9695892B08950895CF93DF93C1
:1037700000D000D01F92CDB7DEB70F900F900F9002
:103780000F900F90DF91CF910895089508950C94B4
:10379000FA0F089580910302843021F11092EF0115
:1037A00020E488E190E00FB6F894A895809360003B
:1037B0000FBE2093600083B7817F846083BF83B78F
:1037C000816083BF7894889583B78E7F83BF0FB65F
:1037D000F894A895809160008861809360001092B1
:1037E00060000FBE0895CF930E9432100E94AD0674
:1037F0000E943310C0E08C2F0E943B07811104C04F
:10380000CF5FC830C1F701C081E0CF9108950E9419
:10381000FC0F0C94EE141F920F920FB60F9211240E
:103820008F939F93AF93BF938091EF01811113C04A
:103830008091F0019091F101A091F201B091F3011A
:103840004196A11DB11D8093F0019093F101A093C9
:10385000F201B093F301BF91AF919F918F910F90BF
:103860000FBE0F901F90189582E084BD93E095BD28
:103870009AEF97BD80936E0008952FB7F8948091CA
:10388000F0019091F101A091F201B091F3012FBFED
:1038900008952FB7F8946091F0017091F101809133
:1038A000F2019091F3012FBF0895CF92DF92EF9232
:1038B000FF920F931F932FB7F8944091F00150910E
:1038C000F1016091F2017091F3012FBF6A017B0158
:1038D000EE24FF248C0120E030E0C016D106E20681
:1038E000F30610F4415051099A01281B390BC90104
:1038F0001F910F91FF90EF90DF90CF9008951F924E
:103900000F920FB60F9211248F939F93AF93BF9393
:103910008091F0019091F101A091F201B091F30139
:103920000196A11DB11D8093F0019093F101A09328
:10393000F201B093F301BF91AF919F918F910F90DE
:103940000FBE0F901F9018950E94E40BF8942FEF74
:1039500087EA91E6215080409040E1F700C00000E6
:1039600087E090EBDC0180930D0290930E02A09310
:103970000F02B09310029CE088E10FB6F894A8956E
:10398000809360000FBE90936000FFCF8D3B60F48A
:10399000883A90F5853A28F5843008F5813009F0A9
:1039A00086C081E090E00895883E98F4803EB8F4A7
:1039B0008F3B09F07CC00E94EE142FEF80E792E06D
:1039C000215080409040E1F700C000000E94A41CFC
:1039D0006EC0803F08F46BC090E09065089590E061
:1039E0000895853A21F0863A21F033E803C031E8A2
:1039F00001C032E820E458C0883A51F1893A59F1BF
:103A00008A3A59F18B3A59F18C3A59F18D3A59F178
:103A10008E3A59F18F3A59F1813B59F1803B59F176
:103A2000823B59F1833B59F1843B59F1853B59F174
:103A3000863B61F1873B61F1883B61F1893B61F134
:103A40008A3B61F18B3B61F18C3B61F130E001C05D
:103A500032EE24E429C039EEFCCF3AEEFACF35EB52
:103A6000F8CF36EBF6CF33EBF4CF34EBF2CF37EBC6
:103A7000F0CF3CECEECF3DECECCF33E805C03AE8BC
:103A800003C032E901C034E925E40EC031E20BC0C5
:103A900033E209C034E207C035E205C036E203C0B4
:103AA00037E201C03AE226E4832F922F089580E0A6
:103AB00090E0089580E090E008950895E82FF0E008
:103AC00083E0EE0FFF1F8A95E1F7E70FF11D93E00A
:103AD000EE0FFF1F9A95E1F7E60FF11DE454FF4F3B
:103AE00084910895E82FF0E0EE0FFF1FEA5CF040AC
:103AF0008591949108950E945E1D803EA8F4803CBB
:103B000000F5813309F45CC038F4893209F452C0FD
:103B10008A3209F45BC05FC08933B1F08238A1F00A
:103B2000853309F441C057C0833E41F128F4803EFB
:103B300099F0823EB9F04FC0863E31F1873E71F177
:103B40004AC00E94721D089590910C0290FD02C01F
:103B500091FF41C080EE3FC080910C0280FFFACF00
:103B600089E339C080910C0282FF0CC080910C0265
:103B700084FF02C080E02FC083EE2DC080910C0234
:103B800082FFF4CF82EE27C080910C0283FF0AC02F
:103B900080910C0284FDEECF87EE1DC080910C0257
:103BA00083FFF6CF86EE17C080910C0285FF06C01A
:103BB00089E211C080910C0285FFFACF85E30BC02A
:103BC00080910C0286FF06C08AE205C080910C023B
:103BD00086FFFACF81E30E94C61C0895CF92DF9240
:103BE000EF92FF920F931F93CF936C01C0E08C2F45
:103BF0000E943B0700E010E0E82EF12CC701002EE8
:103C000002C0959587950A94E2F780FF15C0602F52
:103C10007C2F80E00E947B1D8C159D0559F0292F7B
:103C2000207E392F307C11F0203A31F490E0C81614
:103C3000D90611F481E009C00F5F1F4F083011054C
:103C4000E9F6CF5FC83099F680E0CF911F910F91D0
:103C5000FF90EF90DF90CF900895CF93DF93EC012A
:103C60008CE290E00E94EE1D882329F0CE01DF91C6
:103C7000CF910C94EE1D80E0DF91CF910895CF930A
:103C80000E94A01F811102C00E94861F85EA93E056
:103C90000E94DE05C5E6C15049F00E94AD068FE3E3
:103CA0009CE90197F1F700C00000F5CF8EE993E0A1
:103CB0000E94DE0589E290E00E942D1E811124C140
:103CC0008AE290E00E942D1E81110E94861F85E0ED
:103CD00090E00E942D1E81110E94A41C0E94C91B0D
:103CE0000E94AB1F8093EE0187E090E00E942D1EA2
:103CF0008823C1F18BE190E00E942D1E882351F0B2
:103D00008091EE0181FB222720F991E0922790FB20
:103D100081F90FC08EE090E00E942D1E882361F093
:103D20008091EE0182FB222720F991E0922790FBFF
:103D300082F98093EE0116C080E190E00E942D1E72
:103D40009091EE01882341F093FB222720F981E036
:103D5000822780FB93F904C0892F809580FB90F91E
:103D60009093EE018091EE010E94AF1F0E94BD1F53
:103D700080930C0280EE90E00E942D1E882341F07B
:103D800080910C02982F909590FB80F980930C0203
:103D900089E390E00E942D1E882359F080910C0247
:103DA00081FB222720F991E0922790FB81F98093F3
:103DB0000C0282EE90E00E942D1E882359F0809123
:103DC0000C0282FB222720F991E0922790FB82F9D6
:103DD00080930C0286EE90E00E942D1E882359F0FD
:103DE00080910C0283FB222720F991E0922790FB1F
:103DF00083F980930C0283EE90E00E942D1E8823AD
:103E000059F080910C0284FB222720F991E092273F
:103E100090FB84F980930C0285E390E00E942D1EB4
:103E2000882359F080910C0285FB222720F991E02C
:103E3000922790FB85F980930C0281E390E00E9429
:103E40002D1E882359F080910C0286FB222720F931
:103E500091E0922790FB86F980930C0281E190E03B
:103E60000E942D1E882359F080910C0287FB222787
:103E700020F991E0922790FB87F980930C028091C2
:103E80000C020E94C11F87E290E00E942D1EC82FE5
:103E90008EE190E00E942D1E8111C2608FE190E0C2
:103EA0000E942D1E8111C46080E290E00E942D1EB0
:103EB0008111C86081E290E00E942D1E8111C061D5
:103EC00082E290E00E942D1E8111C06283E290E0A8
:103ED0000E942D1E8111C06484E290E00E942D1E7C
:103EE000882311F0C06802C0CC2329F08C2F0E94D7
:103EF000B81F6C2F03C00E94B41F682F70E080E0D1
:103F000090E0CF910C946519CF9108956DEE7EEFFE
:103F100080E090E00E941B2960E082E090E00E9437
:103F20000D2960E083E090E00E940D2960E084E0CC
:103F300090E00E940D2960E085E090E00C940D294E
:103F400080E090E00E94072921E08D3E9E4F09F01D
:103F500020E0822F089582E090E00C94FF28682FE3
:103F600082E090E00C940D2983E090E00C94FF280F
:103F7000682F83E090E00C940D2984E090E00C948D
:103F8000FF28682F84E090E00C940D298091F601C1
:103F900080FF0CC08091110190E065E070E00E940C
:103FA000B42895958795959587952EC081FF0AC071
:103FB0008091110190E065E070E00E94B428959531
:103FC000879522C082FF08C08091110190E065E0D2
:103FD00070E00E94B42818C02091F7012223D9F084
:103FE00030911001231780F78091110190E065E076
:103FF00070E00E94B428622F70E00E94B428632F02
:1040000070E00E94D128CB018038910538F40097E8
:1040100039F481E005C085E090E008958FE70895C8
:1040200008958091F60180FF08C060910F0170E053
:10403000759567957595679523C081FF06C060915A
:104040000F0170E0759567951BC082FF04C06091F9
:104050000F0170E012C06091F7016623A9F0209172
:104060000E016217A0F780910F0170E090E00E94AE
:10407000B428622F70E00E94D1286038710540F4A6
:104080006115710519F406C061E070E0862F08958E
:104090008FE7089581E00895803F21F40E94C61FB4
:1040A000819504C0813F29F40E94C61F8093FA01C4
:1040B0000895823F21F40E94C61F819504C0833F6A
:1040C00029F40E94C61F8093F9010895893F19F4CD
:1040D0000E94112005C08A3F31F40E941120819571
:1040E0008093FB0108958B3F21F40E94112081955C
:1040F00004C08C3F29F40E9411208093FC01089594
:10410000843F21F48091F801816017C0853F21F43C
:104110008091F801826011C0863F21F48091F801FE
:1041200084600BC0873F21F48091F801886005C04E
:10413000883F31F48091F80180618093F8010895FF
:104140008D3F21F48091F60181600BC08E3F21F4F8
:104150008091F601826005C08F3F29F48091F601BD
:1041600084608093F6010895803F39F48091FA01CC
:1041700087FF6CC01092FA0169C0813F29F48091D9
:10418000FA011816BCF362C09091F901823F29F43C
:1041900097FF5CC01092F90159C0833F19F41916BA
:1041A000CCF354C0893F41F48091FB0118160CF008
:1041B0004DC01092FB014AC08A3F29F48091FB0157
:1041C00087FF44C0F6CF8B3F39F48091FC0187FF15
:1041D0003DC01092FC013AC08C3F29F48091FC0153
:1041E0001816BCF333C0843F21F48091F8018E7F10
:1041F00017C0853F21F48091F8018D7F11C0863F63
:1042000021F48091F8018B7F0BC0873F21F48091CE
:10421000F801877F05C0883F31F48091F8018F7ED7
:104220008093F80113C08D3F21F48091F6018E7FB9
:104230000BC08E3F21F48091F6018D7F05C08F3F2A
:1042400029F48091F6018B7F8093F6018091F9012A
:1042500081110EC08091FA0181110AC08091FB0189
:10426000811106C08091FC01811102C01092F701FA
:1042700008958091EE0183FF7EC081EE93E00E945D
:10428000DE058091F8011F928F938CED93E09F9350
:104290008F930E9477068AED93E00E94DE0580915D
:1042A000F901282F082E000C330B3F938F9387EDD5
:1042B00093E09F938F930E94770685ED93E00E9491
:1042C000DE058091FA01282F082E000C330B3F9356
:1042D0008F9382ED93E09F938F930E94770680EDFA
:1042E00093E00E94DE058091FB01282F082E000C30
:1042F000330B3F938F938DEC93E09F938F930E94AA
:1043000077068BEC93E00E94DE058091FC01282F5C
:10431000082E000C330B3F938F9388EC93E09F9310
:104320008F930E94770685EC93E00E94DE058091D2
:10433000F7011F928F9382EC93E09F938F930E94DB
:10434000770680EC93E00E94DE058091F6011F92D3
:104350008F938DEB93E09F938F930E9477068AEB68
:1043600093E00E94DE058DB79EB74C960FB6F89489
:104370009EBF0FBE8DBF88EF91E00E94EA0E0E94A3
:104380003D1C9093F5018093F40108951F93CF9302
:10439000DF938091F4019091F5010E94551CFC017E
:1043A0002091F701222321F08091120190E007C0B3
:1043B0008091130190E06AE070E00E94B428E81751
:1043C000F90708F485C08091F901C091FA01D091F4
:1043D000FB011091FC01811107C0C11175C0D11101
:1043E00073C0111171C074C02F3F19F02F5F20935B
:1043F000F701181624F40E94C61F8093F9018091DA
:10440000F90187FF05C00E94C61F81958093F901BD
:104410001C1624F40E94C61F8093FA018091FA01B1
:1044200087FF05C00E94C61F81958093FA016091A5
:10443000F901662331F1C091FA01CC2311F1062E66
:10444000000C770B880B990B0E94B32723E333E30F
:1044500043E35FE30E9417280E947B276093F901E2
:104460006C2FCC0F770B880B990B0E94B32723E39B
:1044700033E343E35FE30E9417280E947B276093A6
:10448000FA011D1624F40E9411208093FB018091F3
:10449000FB0187FF05C00E94112081958093FB01DD
:1044A000111624F40E9411208093FC018091FC01DC
:1044B00087FF05C00E94112081958093FC01DF9148
:1044C000CF911F910C9439212F3F09F08FCFA0CFAE
:1044D000DF91CF911F910895E8EFF1E085E0DF01D2
:1044E0001D928A95E9F71092F7011092F60108954E
:1044F00084E096E00E94DE051F9281E08F931F9278
:1045000085E08F9386EB95E09F938F930E947706CB
:104510000F900F900F900F900F900F900895833091
:10452000E9F128F4813061F0823009F10895853095
:1045300009F462C008F449C0863009F474C00895D3
:1045400080911301262F30E0280F311D2F3F3105B8
:1045500024F4680F6093130103C08FEF809313015D
:10456000809113011F928F938FEE94E072C080911F
:104570001201262F30E0280F311D2F3F310524F482
:10458000680F6093120103C08FEF80931201809136
:1045900012011F928F938DED94E05BC08091110109
:1045A000262F30E0280F311D2F3F310524F4680FEE
:1045B0006093110103C08FEF80931101809111016D
:1045C0001F928F938AEC94E044C080911001262FB3
:1045D00030E0280F311D2F3F310524F4680F609320
:1045E000100103C08FEF80931001809110011F9282
:1045F0008F9385EB94E02DC080910F01262F30E042
:10460000280F311D2F3F310524F4680F60930F01EF
:1046100003C08FEF80930F0180910F011F928F9342
:104620008CE994E016C080910E01262F30E0280F0F
:10463000311D2F3F310524F4680F60930E0103C034
:104640008FEF80930E0180910E011F928F9381E86E
:1046500094E09F938F930E9477060F900F900F9096
:104660000F900895833081F128F4813059F0823021
:10467000D1F00895853009F449C0B8F1863009F4C5
:1046800056C0089580911301681720F4861B80930B
:10469000130102C010921301809113011F928F9396
:1046A00082E794E054C080911201681720F4861BC1
:1046B0008093120102C010921201809112011F9288
:1046C0008F9380E694E043C080911101681720F435
:1046D000861B8093110102C010921101809111017B
:1046E0001F928F938DE494E032C08091100168177F
:1046F00020F4861B8093100102C01092100180915B
:1047000010011F928F9388E394E021C080910F01E4
:10471000681720F4861B80930F0102C010920F01CE
:1047200080910F011F928F938FE194E010C08091D0
:104730000E01681720F4861B80930E0102C01092B0
:104740000E0180910E011F928F9384E094E09F935D
:104750008F930E9477060F900F900F900F900895FF
:10476000CF93C82F1F928F9389E097E09F938F93E9
:104770000E94770681E090E0A0E0B0E0BC01CD01AE
:1047800004C0660F771F881F991FCA95D2F70E9431
:1047900065190F900F900F900F90CF910C94EE141D
:1047A000CF938732B0F58E3108F040C28E3009F4D5
:1047B000BEC100F5873009F48DC1A8F4863009F038
:1047C00039C28091EE01817F8E7F8093EE018EE071
:1047D00097E00E94DE0582E09BE00E94DE0581E01A
:1047E0008093FE0175C1883009F43FC08B3009F415
:1047F0006BC120C2863109F4E0C120F4803109F494
:10480000AAC118C2893109F4C1C18B3109F47BC135
:1048100011C2883309F458C150F4893209F404C232
:10482000853309F401C2873209F004C2FDC1833423
:1048300009F4FAC128F48A3308F4FCC18953F7C19A
:10484000883409F0F7C10E94EE1481EF9AE00E94CB
:10485000DE059FEF23ED80E3915020408040E1F79B
:1048600000C000000E94A41C33C186E09BE00E94AF
:10487000DE0585E099E00E94DE050E94B41F1F92CC
:104880008F9382E099E09F938F930E94770680E058
:1048900099E00E94DE050E94AB1FC82F8DEE98E0C4
:1048A0000E94DE051F92CF9388EE98E09F938F932E
:1048B0000E94770686EE98E00E94DE058CED98E077
:1048C0000E94DE058C2F81701F928F9389ED98E0F6
:1048D0009F938F930E94770687ED98E00E94DE05F4
:1048E0008DEC98E00E94DE05C1FB882780F91F92BD
:1048F0008F938AEC98E09F938F930E94770688ECC1
:1049000098E00E94DE058CEB98E00E94DE05C2FB79
:10491000882780F91F928F9389EB98E09F938F935C
:104920000E94770687EB98E00E94DE058EEA98E009
:104930000E94DE05C3FBCC27C0F91F92CF938BEA00
:1049400098E09F938F930E94770689EA98E00E94EF
:10495000DE050E94BD1FC82F85E998E00E94DE0594
:104960001F92CF9380E998E09F938F930E947706E0
:104970008EE898E00E94DE0585E798E00E94DE055B
:104980008C2F81701F928F9382E798E09F938F9373
:104990000E9477068DB79EB780960FB6F8949EBF9B
:1049A0000FBE8DBF80E798E00E94DE0589E598E0A4
:1049B0000E94DE05C1FB882780F91F928F9386E550
:1049C00098E09F938F930E94770684E598E00E9479
:1049D000DE0582E498E00E94DE05C2FB882780F9AC
:1049E0001F928F938FE398E09F938F930E94770697
:1049F0008DE398E00E94DE058BE298E00E94DE05E0
:104A0000C3FB882780F91F928F9388E298E09F93D9
:104A10008F930E94770686E298E00E94DE058CE183
:104A200098E00E94DE05C4FB882780F91F928F93CF
:104A300089E198E09F938F930E94770687E198E041
:104A40000E94DE0585E098E00E94DE05C5FB882710
:104A500080F91F928F9382E098E09F938F930E943A
:104A6000770680E098E00E94DE0584EE97E00E94E1
:104A7000DE05C6FB882780F91F928F9381EE97E0B1
:104A80009F938F930E9477068FED97E00E94DE053B
:104A900087ED97E00E94DE05C7FBCC27C0F91F9287
:104AA000CF9384ED97E09F938F930E94770682EDDA
:104AB00097E00E94DE058DB79EB74C960FB6F8942E
:104AC0009EBF0FBE8DBF04C085E397E00E94DE0548
:104AD000C1E0B5C08091EE01C82FC17080FF09C050
:104AE00084EE9AE00E94DE058091EE01817F8E7F48
:104AF00047C088ED9AE00E94DE058091EE0181605A
:104B00008093EE01E5CF9091EE0191FBCC27C0F9A7
:104B100081E0C827892FC0FB81F98093EE01CC2367
:104B200019F08BEC9AE027C08DEB9AE0CFCF9091F3
:104B3000EE0192FBCC27C0F981E0C827892FC0FB8A
:104B400082F98093EE01CC2319F08EEA9AE013C02B
:104B50008EE99AE0BBCF9091EE0193FBCC27C0F990
:104B600081E0C827892FC0FB83F98093EE01CC2315
:104B700051F082E99AE00E94DE058091EE018160A9
:104B80008093EE015CC085E89AE0A0CF86E79AE0CA
:104B90000E94DE058EE49AE00E94DE0589E19AE03B
:104BA0000E94DE058CEE99E00E94DE058CEA99E019
:104BB0000E94DE0580E899E089CF82E799E00E94B3
:104BC000DE050E94950E1F928F9388E599E09F93D2
:104BD0008F930E94770680910B011F928F9381E43F
:104BE00099E09F938F930E947706809153011F92C3
:104BF0008F938EE299E09F938F930E9477060E9495
:104C0000491C9F938F937F936F9387E199E09F93C4
:104C10008F930E9477068DB79EB742960FB6F89491
:104C20009EBF0FBE8DBF54CF80E001C08D510E944A
:104C3000B0234ECF85E199E00E94DE05C0E08C2FC5
:104C4000CF91089580E008950C942226CF93C82F29
:104C50008091FE01813071F020F0823009F44BC068
:104C600042C1E0910C01F0910D018081823209F086
:104C70003CC107C0E0910C01F0910D0180818232AE
:104C800061F48C2F0E942426811104C08C2F0E9475
:104C9000D0232FC081E090E02CC08C2F0E942226D0
:104CA000811126C0C431E1F070F4CB3081F0C03105
:104CB000D1F40E94782281E097E00E94DE0582E034
:104CC0008093FE0115C0C93259F0C83361F48EE0FB
:104CD00097E00E94DE0585E097E00E94DE0508C0AF
:104CE0001092FE0104C18FEF96E00E94DE05FFC026
:104CF00081E08170FEC0C43228F5CE3108F0C1C019
:104D0000CB30A1F1D0F4C73009F0D3C08EE180934D
:104D1000130182E3809312018AE08093110184E100
:104D20008093100188E080930F0188E280930E0148
:104D300085EA95E00E94DE05BFC0C33149F1C43168
:104D4000C1F0B7C0CB3409F4A9C028F4C93289F046
:104D5000C83361F0AEC0C13509F49EC0C23509F454
:104D600099C0CE3409F0A5C06AE09EC00E947822A6
:104D7000A3C08091FD01882319F01092FD019CC011
:104D800082EB95E00E94DE0581E08093FE01B1C0D8
:104D90008CE895E00E94DE058AE795E00E94DE053A
:104DA000809113011F928F9387E795E09F938F93D4
:104DB0000E94770685E795E00E94DE0583E695E090
:104DC0000E94DE05809112011F928F9380E695E08C
:104DD0009F938F930E9477068EE595E00E94DE05F3
:104DE0008FE495E00E94DE05809111011F928F9360
:104DF0008CE495E09F938F930E9477068AE495E078
:104E00000E94DE0589E395E00E94DE058091100195
:104E10001F928F9386E395E09F938F930E9477066E
:104E200084E395E00E94DE058FE195E00E94DE05B7
:104E300080910F011F928F938CE195E09F938F9348
:104E40000E9477068AE195E00E94DE0583E095E006
:104E50000E94DE0580910E011F928F9380E095E005
:104E60009F938F930E9477068EEF94E00E94DE0559
:104E70008DB79EB748960FB6F8949EBF0FBE8DBFF4
:104E80001BC0CE51EC2FF0E0E75DFE4F8081809398
:104E9000FD0112C061E003C061E006C06AE08091DC
:104EA000FD010E948F2208C08091FD010E943223E3
:104EB00003C083EA95E013C08091FD01882369F067
:104EC0001F928F938DE995E09F938F930E947706B1
:104ED0000F900F900F900F9004C08AE995E00E9408
:104EE000DE0581E006C01092FE0180E002C080E095
:104EF00000CFCF9108950E9482276894B1110C943D
:104F0000112808950E94F62788F09F5798F0B92F2E
:104F10009927B751B0F0E1F0660F771F881F991FEE
:104F20001AF0BA95C9F714C0B13091F00E94102858
:104F3000B1E008950C941028672F782F8827B85F68
:104F400039F0B93FCCF3869577956795B395D9F746
:104F50003EF490958095709561957F4F8F4F9F4F50
:104F60000895E89409C097FB3EF49095809570955C
:104F700061957F4F8F4F9F4F9923A9F0F92F96E9A5
:104F8000BB279395F695879577956795B795F1111A
:104F9000F8CFFAF4BB0F11F460FF1BC06F5F7F4FB7
:104FA0008F4F9F4F16C0882311F096E911C07723C9
:104FB00021F09EE8872F762F05C0662371F096E8D2
:104FC000862F70E060E02AF09A95660F771F881FA1
:104FD000DAF7880F9695879597F9089557FD9058B9
:104FE000440F551F59F05F3F71F04795880F97FBAD
:104FF000991F61F09F3F79F0879508951216130667
:105000001406551FF2CF4695F1DF08C01616170695
:105010001806991FF1CF86957105610508940895CA
:10502000E894BB2766277727CB0197F908950E945C
:1050300029280C94A3280E94952838F00E949C28C7
:1050400020F0952311F00C948C280C9492280C9449
:1050500011280E94EE2778F39923C9F35523B9F359
:10506000950F50E0551FAA27EE27FF27BB270024E6
:105070000894679520F4E20FF31FB41F0A1E220F55
:10508000331F441FAA1F6695A9F7779530F4F30FD5
:10509000B41F0A1E121E08F46395330F441FAA1F83
:1050A000221F769599F7879520F4B40F0A1E121ED9
:1050B000631F440FAA1F221F331F8695A9F7862F4F
:1050C000712D602D11249F5750409AF0F1F08823E4
:1050D0004AF0EE0FFF1FBB1F661F771F881F9150FE
:1050E0005040A9F79E3F510580F00C948C280C94F9
:1050F00011285F3FE4F3983ED4F386957795679542
:10510000B795F795E7959F5FC1F7FE2B880F911D27
:105110009695879597F9089597F99F6780E870E0CD
:1051200060E008959FEF80EC089500240A9416161D
:10513000170618060906089500240A941216130685
:10514000140605060895092E0394000C11F4882313
:1051500052F0BB0F40F4BF2B11F460FF04C06F5F2F
:105160007F4F8F4F9F4F08950024552704C0080E8E
:10517000591F880F991F009729F076956795B8F306
:105180007105B9F7802D952F0895991B79E004C01A
:10519000991F961708F0961B881F7A95C9F7809576
:1051A000089597FB072E16F4009407D077FD09D0D9
:1051B0000E94EB2807FC05D03EF4909581959F4F07
:1051C0000895709561957F4F0895EE0FFF1F05902C
:1051D000F491E02D0994AA1BBB1B51E107C0AA1F43
:1051E000BB1FA617B70710F0A61BB70B881F991F88
:1051F0005A95A9F780959095BC01CD010895F9992C
:10520000FECF92BD81BDF89A992780B50895A8E197
:10521000B0E042E050E00C942229262FF999FECF0D
:105220001FBA92BD81BD20BD0FB6F894FA9AF99AC3
:105230000FBE019608950E940D29272F0C940E2968
:10524000DC01CB01FC01F999FECF06C0F2BDE1BD46
:10525000F89A319600B40D9241505040B8F7089535
:04526000F894FFCFF0
:105264000549073A081708E307AF0701E4012808CE
:10527400140A321E404D36220603B902830261022B
:10528400ED0106021F0238020001020304050607AD
:045294000809000005
:00000001FF
